:020000040800F2
:10000000882E0020F1010008A143000845410008A6
:100010009D430008FD040008A14F000800000000F7
:10002000000000000000000000000000E1440008A3
:10003000FD060008000000001144000815450008F6
:100040000B0200080B0200080B0200080B0200085C
:100050000B0200080B0200080B0200080B0200084C
:100060000B0200080B0200080B0200080B0200083C
:100070000B0200080B0200088D0600089D06000810
:100080000B0200080B0200080B0200080B0200081C
:1000900001050008110500080B0200080B0200080A
:1000A0000B0200080B0200080B0200080B020008FC
:1000B0000B0200080B020008D14500080B020008E3
:1000C0000B0200080B0200080B0200080B020008DC
:1000D0000B020008914F00080B0200080B020008F9
:1000E0000B0200080B0200080B02000800000000D1
:1000F0000000000000000000000000000000000000
:1001000000000000000000000B0200080B020008C5
:100110000B0200080B0200080B0200080B0200088B
:100120000B0200080B0200080B0200080B0200087B
:100130000B02000800000000000000000B02000895
:1001400021050008310500080B0200080B02000819
:1001500000F002F800F03CF80AA090E8000C82449D
:100160008344AAF10107DA4501D100F031F8AFF27A
:10017000090EBAE80F0013F0010F18BFFB1A43F085
:10018000010318473495000054950000103A24BF2D
:1001900078C878C1FAD8520724BF30C830C144BFEC
:1001A00004680C607047000000230024002500262E
:1001B000103A28BF78C1FBD8520728BF30C148BFCA
:1001C0000B6070471FB500F01BF91FBD10B510BDC7
:1001D00000F05EF91146FFF7F5FF07F037F900F080
:1001E0007CF903B4FFF7F2FF03BC00F07FF90000D5
:1001F0000948804709480047FEE7FEE7FEE7FEE7BB
:10020000FEE7FEE7FEE7FEE7FEE7FEE704480549F6
:10021000054A064B70470000CD4500085101000813
:1002200088280020882E0020882A0020882A002084
:1002300053EA020C00F069802DE9F04B4FF0000604
:10024000002B1FBFB3FA83F503FA05F424FA05F671
:100250005E4012BF1643B2FA82F502FA05F4C5F108
:1002600020051EBF22FA05FC44EA0C04203556EA9C
:10027000044C4FEA144418BF641C4FF000084FF0C0
:100280000009904271EB030C39D3002919BFB1FA70
:1002900081F701FA07F6B0FA80F700FA07F6C7F11E
:1002A00020071EBF20FA07FC46EA0C062037B6FBE3
:1002B000F4FCA7EB0507103F07F01F0BCBF120065E
:1002C0002CFA06F60CFA0BFB44BFB3460026202F8F
:1002D000A4BF5E464FF0000B5BEA060C08BF4FF070
:1002E000010B19EB0B0948EB0608ABFB027C06FB84
:1002F00002CC0BFB03CCC01B71EB0C01C1E70B461E
:10030000024641464846BDE8F08B13B5084318BF86
:100310004FF0FF300146AFF30080BDE81C4070474E
:10032000032A40F2308010F0030C00F0158011F821
:10033000013BBCF1020F624498BF11F801CB00F8F9
:10034000013B38BF11F8013BA2F1040298BF00F84D
:1003500001CB38BF00F8013B11F0030300F06280CD
:10036000083AC0F0088051F8043B083A51F804CB31
:10037000A0E80810F5E7121D5CBF51F8043B40F8F7
:10038000043BAFF30080D20724BF11F8013B11F802
:1003900001CB48BF11F8012B24BF00F8013B00F846
:1003A00001CB48BF00F8012B70474FF0000200B5A9
:1003B000134694469646203922BFA0E80C50A0E888
:1003C0000C50B1F12001BFF4F7AF090728BFA0E836
:1003D0000C5048BF0CC05DF804EB890028BF40F802
:1003E000042B08BF704748BF20F8022B11F0804F44
:1003F00018BF00F8012B7047704770477047000026
:1004000070B5064C7C44064D7D4404E020460168EE
:1004100008448047241DAC42F8D170BDD092000042
:10042000D092000010B5203AC0F00B80B1E818500F
:10043000A0E81850B1E81850A0E81850203ABFF4CE
:10044000F5AF5FEA027C24BFB1E81850A0E818506D
:1004500044BF18C918C0BDE810405FEA827C24BFC1
:1004600051F8043B40F8043B08BF7047D20728BF4F
:1004700031F8023B48BF11F8012B28BF20F8023B9E
:1004800048BF00F8012B7047004870471800002053
:100490007546FFF7F9FFAE4605006946534620F062
:1004A0000700854618B020B5FFF7B0FEBDE8204034
:1004B0004FF000064FF000074FF000084FF0000B20
:1004C000AC46ACE8C009ACE8C009ACE8C009ACE88F
:1004D000C00921F007018D46704710B50446AFF3FF
:1004E00000802046BDE81040FFF77BBE0149182080
:1004F000ABBEFEE72600020070470000FFE7FEE704
:1005000080B541F27830C2F2000000F0E1FB80BD1E
:1005100080B541F27830C2F2000000F0D9FB80BD16
:1005200080B541F2A030C2F2000000F0D1FB80BDE6
:1005300080B541F2A030C2F2000000F0C9FB80BDDE
:1005400080B584B003900291039801F043F80398BA
:10055000006846F20041C4F20001884216D1FFE76C
:10056000039840F29001C2F200010860029888628C
:1005700003980023019319461A4606F0EDFE019BED
:1005800003980C211A4606F0E7FE1FE00398006866
:1005900046F60001C4F20001884216D1FFE7039835
:1005A00040F2D401C2F20001086002988862039808
:1005B0007021002300931A4606F0CEFE009B03989C
:1005C0007C211A4606F0C8FEFFE7FFE703980221E8
:1005D00000F09EF80398102100F09AF804B080BD56
:1005E00080B58CB0DDF838C00B90ADF82A100992B8
:1005F000ADF822300E98009020B1FFE70098042853
:1006000006D00BE0BDF82A0002900020039005E020
:1006100000200290BDF82A000390FFE70E98049096
:1006200000200590BDF8220006900B98099A02A9B7
:1006300001AB00F097F80CB080BD000080B582B02F
:100640000190FFE741F26430C2F20000016801311D
:100650000160006864280DD1FFE741F26431C2F205
:1006600000010020086040F20010C2F2000005F016
:10067000D1F9FFE740F20010C2F2000005F02AFABB
:1006800004F036F8022006F00FFFDBE780B541F2F8
:100690000C40C2F2000001F0C9F980BD80B541F202
:1006A000C830C2F2000001F0C1F980BD84B00390EF
:1006B0000291019200930398C16B026C012090405B
:1006C00048600098039909684860039840681028BA
:1006D00009D1FFE701980399096888600298039996
:1006E0000968C86008E00298039909688860019861
:1006F00003990968C860FFE704B0704770470000BD
:1007000081B0EFF3108072B60090FFE7FEE70000C3
:1007100084B002900191029890F820008DF80300B7
:100720009DF80300012805D0FFE79DF8030002288B
:100730000AD1FFE7019A02980168486910434861AD
:1007400000208DF80F0008E00299486A40F48020EC
:10075000486201208DF80F00FFE79DF80F0004B0FC
:100760007047000088B006900591049203930698A4
:1007700090F820008DF807000698006880680090C7
:100780000598806808B9FFE700E0FFE79DF80700DB
:10079000012806D0FFE79DF80700022840F080807E
:1007A000FFE79DF80300400700280CD4FFE79DF801
:1007B00003000007002806D4FFE79DF80300C006E9
:1007C000002864D5FFE70098C0F301600290029909
:1007D00001208840039908600598806868B9FFE7A0
:1007E00005980168C06840EA415006990968029A74
:1007F00001EB0211C1F880010EE005994A68886892
:10080000C96840EAC200084306990968029A01EBE8
:100810000211C1F88001FFE705980069069909688F
:10082000029A01EB0211C1F884010598007D0128AC
:100830000CD1FFE706980068029900EB0111D1F88E
:10084000840140F48070C1F88401FFE70498406897
:1008500006990968029A01EB0211C1F88C0104980B
:10086000006806990968029A01EB0211C1F8880133
:1008700006980068029900EB0111D1F8800140F060
:100880000100C1F8800100208DF81F0011E00699D9
:10089000486A40F40010486201208DF81F0008E00B
:1008A0000699486A40F48020486201208DF81F00B4
:1008B000FFE79DF81F0008B07047000086B0049065
:1008C0000391049800680190049890F820008DF836
:1008D00003009DF80300012806D0FFE79DF8030000
:1008E000022840F0B080FFE746F20040C4F200006A
:1008F00001900199D1F8000240F00100C1F8000216
:100900000199D1F8000220F47C50C1F8000203984C
:10091000426A0199D1F8000240EA0220C1F80002BF
:100920000398406900F01F01012088400290029A5C
:100930000199D1F81C029043C1F81C020398C069C8
:10094000F0B9FFE7029A0199D1F80C029043C1F87F
:100950000C02039A9088D168526940EA01400199DB
:1009600001EBC201C1F84002039A108891685269F4
:1009700040EA0140019901EBC201C1F84402FFE7DE
:100980000398C06901281ED1FFE7029A0199D1F8A6
:100990000C021043C1F80C02039A90881168526946
:1009A00040EA0140019901EBC201C1F84002039AFB
:1009B00090899168526940EA0140019901EBC201B6
:1009C000C1F84402FFE70398806940B9FFE7029A43
:1009D0000199D1F804029043C1F8040207E0029A99
:1009E0000199D1F804021043C1F80402FFE703980B
:1009F000006940B9FFE7029A0199D1F814029043C7
:100A0000C1F8140207E0029A0199D1F814021043C8
:100A1000C1F81402FFE70398006A012808D1FFE734
:100A2000029A0199D1F81C021043C1F81C02FFE799
:100A30000199D1F8000220F00100C1F80002002065
:100A40008DF8170008E00499486A40F48020486255
:100A500001208DF81700FFE79DF8170006B07047DA
:100A600081B0009001B0704784B0039002910020E3
:100A70000190039890F820008DF803009DF8030082
:100A8000012805D0FFE79DF80300022812D1FFE7F7
:100A9000029838B9FFE703980068C06800F00300C7
:100AA000019006E003980068006900F003000190DF
:100AB000FFE7FFE7019804B07047000086B004909C
:100AC000039102920193049890F820008DF803009E
:100AD0009DF80300012806D0FFE79DF803000228D7
:100AE00040F0E880FFE7039880B9FFE704980068CA
:100AF000C068800748B9FFE70499486A40F40010CD
:100B0000486201208DF81700DDE00FE004980068CE
:100B10000069800748B9FFE70499486A40F400106B
:100B2000486201208DF81700CDE0FFE704980068C7
:100B3000039900EB0110D0F8B00100F00400029915
:100B400088600298806858B9FFE7049800680399A4
:100B500000EB0110D0F8B001400D029908600AE0E6
:100B600004980068039900EB0110D0F8B001C008A8
:100B700002994860FFE704980068039900EB0110B0
:100B8000D0F8B00100F002000299C8600498006833
:100B9000039900EB0110D0F8B40100F00F00082811
:100BA00004D3FFE70299082008610BE0049800686D
:100BB000039900EB0110D0F8B40100F00F00029986
:100BC0000861FFE704980068039900EB0110D0F872
:100BD000B40180B2000A0299886104980068039900
:100BE00000EB0110D0F8B401000C029948610498A0
:100BF0000068039900EB0110D0F8B8010199087062
:100C000004980068039900EB0110D0F8B801000ABD
:100C10000199487004980068039900EB0110D0F81E
:100C2000B801000C0199887004980068039900EBE2
:100C30000110D0F8B801000E0199C870049800683E
:100C4000039900EB0110D0F8BC01019908710498D8
:100C50000068039900EB0110D0F8BC01000A01996B
:100C6000487104980068039900EB0110D0F8BC01AA
:100C7000000C0199887104980068039900EB011039
:100C8000D0F8BC01000E0199C871039838B9FFE78C
:100C900004980168C86840F02000C86006E0049825
:100CA0000168086940F020000861FFE700208DF826
:100CB000170008E00499486A40F480204862012047
:100CC0008DF81700FFE79DF8170006B07047000089
:100CD00080B58AB0099000200890099800684069A2
:100CE0000790099800684068069009980068806835
:100CF000059009980068C068049009980068006928
:100D0000039009980068806902909DF81C00C00754
:100D1000002800F09480FFE79DF81400C00758B346
:100D2000FFE709980168012088609DF8140080079A
:100D3000002804D5FFE7099800F096FC1BE09DF819
:100D400014004007002805D5FFE7089840F400602C
:100D500008900FE09DF814000007002805D5FFE774
:100D6000089840F48050089003E0099800F078FC5F
:100D7000FFE7FFE7FFE7FFE79DF81500C00760B357
:100D8000FFE7099801684FF4807088609DF81500AE
:100D90008007002804D5FFE7099800F06DFC1BE0F0
:100DA0009DF815004007002805D5FFE7089840F496
:100DB000005008900FE09DF815000007002805D5A9
:100DC000FFE7089840F48040089003E0099800F09D
:100DD0004FFCFFE7FFE7FFE7FFE79DF81600C007BE
:100DE00060B3FFE7099801684FF4803088609DF890
:100DF00016008007002804D5FFE7099800F044FC9E
:100E00001BE09DF816004007002805D5FFE708986D
:100E100040F4004008900FE09DF8160000070028FD
:100E200005D5FFE7089840F48030089003E0099862
:100E300000F026FCFFE7FFE7FFE7FFE7FFE79DF88D
:100E40001C000007002810D5FFE79DF81000C00621
:100E5000002809D5FFE7089840F400700890099829
:100E600001681020C860FFE7FFE79DF81C004007FD
:100E700000280FD5FFE79DF810000007002808D5CF
:100E8000FFE7099801680820C860099800F0FEFA99
:100E9000FFE7FFE79DF81C00800700280BD5FFE760
:100EA00009980068C068800720B1FFE7099800F042
:100EB000F1FAFFE7FFE79DF81C004006002810D577
:100EC000FFE79DF80C00C006002809D5FFE7089849
:100ED00040F4806008900998016810200861FFE7DD
:100EE000FFE79DF81C00800600280FD5FFE79DF85E
:100EF0000C000007002808D5FFE7099801680820C2
:100F00000861099800F012FBFFE7FFE79DF81C005D
:100F1000C00600280BD5FFE7099800680069800724
:100F200020B1FFE7099800F005FBFFE7FFE79DF818
:100F30001E00800700280FD5FFE79DF81800C006A7
:100F4000002808D5FFE70998016810204860099833
:100F500000F03CFBFFE7FFE79DF81E00C00778B1FB
:100F6000FFE79DF818000007002808D5FFE709985B
:100F7000016808204860099800F08AFBFFE7FFE756
:100F80009DF81D000006002840F18D80FFE79DF8C8
:100F900018004007002840F18180FFE79DF81D0000
:100FA000C00750B1FFE79DF80800C00728B1FFE770
:100FB000089840F001000890FFE79DF81D008007A9
:100FC00000280BD5FFE79DF808008007002805D50D
:100FD000FFE7089840F002000890FFE79DF81D0029
:100FE000400700280BD5FFE79DF8080040070028C0
:100FF00005D5FFE7089840F004000890FFE79DF84A
:101000001D000007002848D5FFE79DF8080010F0F4
:10101000700F42D0FFE7029800F070000146019186
:10102000102814D0FFE70198202815D0FFE7019879
:10103000302816D0FFE70198402817D0FFE7019825
:10104000502818D0FFE70198602819D01DE00898B3
:1010500040F00800089019E0089840F0100008904F
:1010600014E0089840F0200008900FE0089840F045
:10107000400008900AE0089840F08000089005E0E1
:10108000089840F48070089000E0FFE70998016834
:10109000886920F070008861FFE7FFE70998016820
:1010A00004204860FFE7089848B1FFE7089A0999CB
:1010B000486A104348620998FFF7D2FCFFE70AB07C
:1010C00080BD000080B584B00290029820B9FFE78F
:1010D00001208DF80F00E0E0029890F8200020B980
:1010E000FFE7029800F0DEF8FFE702980168086861
:1010F00040F00100086001F04BFA0190FFE7029810
:1011000000684068C007A8B9FFE701F041FA0199FB
:10111000401A0B280DD3FFE70299486A40F40030CB
:1011200048620299052081F8200001208DF80F0007
:10113000B3E0E4E702980168086820F00200086064
:1011400001F026FA0190FFE70298006840688007E6
:10115000002815D5FFE701F01BFA0199401A0B286A
:101160000DD3FFE70299486A40F4003048620299C3
:10117000052081F8200001208DF80F008DE0E3E7C5
:101180000298007E012807D1FFE7029801680868ED
:1011900040F08000086006E002980168086820F0CE
:1011A00080000860FFE70298407E012807D1FFE732
:1011B00002980168086840F04000086006E0029864
:1011C0000168086820F040000860FFE70298807E10
:1011D000012807D1FFE702980168086840F0200065
:1011E000086006E002980168086820F020000860A6
:1011F000FFE70298C07E012807D1FFE70298016847
:10120000086820F01000086006E00298016808688D
:1012100040F010000860FFE70298007F012807D126
:10122000FFE702980168086840F00800086006E0DF
:1012300002980168086820F008000860FFE702983B
:10124000407F012807D1FFE702980168086840F055
:101250000400086006E002980168086820F00400B5
:101260000860FFE7029B19685A689868D3F80CC0B9
:1012700040EA0C00D3F810C040EA0C005B69184348
:10128000013A1043C861029900204862029A012184
:1012900082F820108DF80F00FFE79DF80F0004B0D2
:1012A00080BD000080B598B0179000201690159072
:1012B000149013901798006846F20041C4F20001A0
:1012C00088426ED1FFE740F62010C2F200000168AC
:1012D000013101600068012810D1FFE7FFE741F20A
:1012E0001C00C4F20200016841F000710160006856
:1012F00000F0007012901298FFE7FFE7FFE741F25D
:101300001800C4F20200016841F0080101600068A1
:1013100000F0080011901198FFE74FF480701390CF
:1013200000201490159040F60040C4F201000B908C
:1013300013A90C9100F09CFF0B980C994FF40072CC
:101340001392022214920322169200F091FFFFE7FB
:101350000421C4F2010108681090109820F4C040E4
:101360001090109840F0E0601090109840F4804089
:10137000109010980860FFE714200790052108914D
:101380000022099201F0E8F9079801F0DBF90899C9
:10139000099A15200A9001F0DFF90A9801F0D2F9B4
:1013A00071E01798006846F60001C4F20001884217
:1013B00068D1FFE7FFE741F21C00C4F202000168B8
:1013C00041F080610160006800F080600F900F982C
:1013D000FFE740F62010C2F2000001680131016011
:1013E0000068012810D1FFE7FFE741F21C00C4F2BA
:1013F0000200016841F000710160006800F00070B7
:101400000E900E98FFE7FFE7FFE741F21800C4F2E5
:101410000200016841F008010160006800F0080066
:101420000D900D98FFE74FF4805013900020059029
:101430001490159040F60040C4F20100019013A9E9
:10144000029100F015FF019802994FF40052139297
:10145000022214920322169200F00AFF059A4020FD
:1014600003900521049101F077F9039801F06AF9DE
:101470000499059A4120069001F06EF9069801F052
:1014800061F9FFE7FFE718B080BD000081B0009070
:1014900001B0704780B586B005900598006846F2A7
:1014A0000041C4F2000188421AD1FFE7FFE7059826
:1014B0000021FFF7D9FA90B1FFE7059840F29001BB
:1014C000C2F2000103910A1D049201F120030021E0
:1014D000FFF7F4FA03990498896A8847E7E723E05D
:1014E0000598006846F60001C4F2000188421AD14E
:1014F000FFE7FFE705980021FFF7B6FA90B1FFE795
:10150000059840F2D401C2F2000101910A1D029235
:1015100001F120030021FFF7D1FA01990298896AAD
:101520008847E7E7FFE7FFE706B080BD81B000909E
:1015300001B0704780B586B005900598006846F206
:101540000041C4F2000188421AD1FFE7FFE7059885
:101550000121FFF789FA90B1FFE7059840F2900169
:10156000C2F2000103910A1D049201F1200301213E
:10157000FFF7A4FA03990498896A8847E7E723E00C
:101580000598006846F60001C4F2000188421AD1AD
:10159000FFE7FFE705980121FFF766FA90B1FFE743
:1015A000059840F2D401C2F2000101910A1D029295
:1015B00001F120030121FFF781FA01990298896A5C
:1015C0008847E7E7FFE7FFE706B080BD81B00090FE
:1015D00001B0704780B584B00290029890F8200066
:1015E00001282FD1FFE70299022081F820000298FC
:1015F0000168086820F00100086000F0C9FF019050
:10160000FFE7029800684068C007A8B1FFE700F054
:10161000BFFF0199401A0B280DD3FFE70299486AD2
:1016200040F4003048620299052081F82000012032
:101630008DF80F000FE0E4E70299002048628DF872
:101640000F0008E00299486A40F400204862012037
:101650008DF80F00FFE79DF80F0004B080BD00007B
:1016600081B0009001B0704781B0009001B0704728
:1016700081B0009001B0704781B0009001B0704718
:1016800081B0009001B0704781B0009001B0704708
:1016900081B0009001B0704783B0019000208DF8B8
:1016A0000300019890F8210002280DD0FFE701996E
:1016B00004208863FFE70199002081F82000FFE7FC
:1016C00001208DF80B0021E001980168086820F0E6
:1016D0000E00086001980168086820F001000860A9
:1016E0000198C16B026C012090404860FFE70199AE
:1016F000012081F82100FFE70199002081F82000F6
:10170000FFE79DF803008DF80B00FFE79DF80B0045
:1017100003B0704780B596B0159000208DF8530047
:10172000159890F82100022807D0FFE715990420AA
:10173000886301208DF8530074E1159801680868EA
:1017400020F00E00086015980168086820F001007C
:101750000860159800688121C4F202018842C0F037
:10176000A880FFE7159800680821C4F202018842AA
:1017700003D1FFE70120139094E0159800681C2125
:10178000C4F20201884203D1FFE71020129086E0E4
:10179000159800683021C4F20201884204D1FFE7A5
:1017A0004FF48070119077E0159800684421C4F2DE
:1017B0000201884204D1FFE74FF48050109068E0A6
:1017C000159800685821C4F20201884204D1FFE74D
:1017D0004FF480300F9059E0159800686C21C4F2E6
:1017E0000201884204D1FFE74FF480100E904AE0D6
:1017F000159800688021C4F20201884204D1FFE7F5
:101800004FF080700D903BE01598006840F2084161
:10181000C4F20201884203D1FFE701200C902CE0C2
:101820001598006840F21C41C4F20201884203D1BD
:10183000FFE710200B901DE01598006840F2304142
:10184000C4F20201884204D1FFE74FF480700A908D
:101850000DE01598016840F24442C4F202024FF4D0
:101860008030914208BF4FF480500A90FFE70A98F9
:101870000B90FFE70B980C90FFE70C980D90FFE79B
:101880000D980E90FFE70E980F90FFE70F981090BD
:10189000FFE710981190FFE711981290FFE7129858
:1018A0001390FFE7139840F20441C4F2020108606C
:1018B000A5E0159800680821C4F20201884203D10E
:1018C000FFE70120099094E0159800681C21C4F2FC
:1018D0000201884203D1FFE71020089086E01598A6
:1018E00000683021C4F20201884204D1FFE74FF4BE
:1018F0008070079077E0159800684421C4F20201D7
:10190000884204D1FFE74FF48050069068E01598B4
:1019100000685821C4F20201884204D1FFE74FF465
:101920008030059059E0159800686C21C4F20201DE
:10193000884204D1FFE74FF4801004904AE01598E4
:1019400000688021C4F20201884204D1FFE74FF011
:10195000807003903BE01598006840F20841C4F2A3
:101960000201884203D1FFE7012002902CE0159884
:10197000006840F21C41C4F20201884203D1FFE733
:10198000102001901DE01598006840F23041C4F22B
:101990000201884204D1FFE74FF4807000900DE00F
:1019A0001598016840F24442C4F202024FF48030BC
:1019B000914208BF4FF480500090FFE700980190DB
:1019C000FFE701980290FFE702980390FFE7039872
:1019D0000490FFE704980590FFE705980690FFE75D
:1019E00006980790FFE707980890FFE70898099086
:1019F000FFE709980421C4F202010860FFE7159986
:101A0000012081F82100FFE71599002081F82000CE
:101A1000FFE71598406B20B1FFE71598416B8847A9
:101A2000FFE7FFE79DF8530016B080BD80B5ACB06E
:101A30002B902B98C06B00682A902B980068006848
:101A400029902A982B99096CC8404007002840F13A
:101A50007581FFE79DF8A4004007002840F16E81E2
:101A6000FFE72B98006800688006002807D4FFE78E
:101A70002B980168086820F004000860FFE72B98A5
:101A800000688121C4F202018842C0F0A880FFE70B
:101A90002B9800680821C4F20201884203D1FFE7B5
:101AA0000420289094E02B9800681C21C4F20201C5
:101AB000884203D1FFE74020279086E02B980068FA
:101AC0003021C4F20201884204D1FFE74FF4806064
:101AD000269077E02B9800684421C4F202018842E6
:101AE00004D1FFE74FF48040259068E02B98006810
:101AF0005821C4F20201884204D1FFE74FF480204C
:101B0000249059E02B9800686C21C4F202018842AD
:101B100004D1FFE74FF4800023904AE02B9800683F
:101B20008021C4F20201884204D1FFE74FF08060B7
:101B300022903BE02B98006840F20841C4F2020179
:101B4000884203D1FFE7042021902CE02B98006805
:101B500040F21C41C4F20201884203D1FFE7402059
:101B600020901DE02B98006840F23041C4F2020141
:101B7000884204D1FFE74FF480601F900DE02B985E
:101B8000016840F24442C4F202024FF480209142C4
:101B900008BF4FF480401F90FFE71F982090FFE799
:101BA00020982190FFE721982290FFE72298239028
:101BB000FFE723982490FFE724982590FFE72598D6
:101BC0002690FFE726982790FFE727982890FFE7C1
:101BD000289840F20441C4F202010860A5E02B9865
:101BE00000680821C4F20201884203D1FFE7042003
:101BF0001E9094E02B9800681C21C4F202018842D8
:101C000003D1FFE740201D9086E02B98006830212B
:101C1000C4F20201884204D1FFE74FF480601C90B7
:101C200077E02B9800684421C4F20201884204D175
:101C3000FFE74FF480401B9068E02B980068582124
:101C4000C4F20201884204D1FFE74FF480201A90C9
:101C500059E02B9800686C21C4F20201884204D13B
:101C6000FFE74FF4800019904AE02B98006880212C
:101C7000C4F20201884204D1FFE74FF0806018905F
:101C80003BE02B98006840F20841C4F20201884210
:101C900003D1FFE7042017902CE02B98006840F256
:101CA0001C41C4F20201884203D1FFE74020169094
:101CB0001DE02B98006840F23041C4F202018842D6
:101CC00004D1FFE74FF4806015900DE02B98016878
:101CD00040F24442C4F202024FF48020914208BF15
:101CE0004FF480401590FFE715981690FFE716987F
:101CF0001790FFE717981890FFE718981990FFE7DB
:101D000019981A90FFE71A981B90FFE71B981C90F0
:101D1000FFE71C981D90FFE71D981E90FFE71E9897
:101D20000421C4F202010860FFE72B98C06A20B1C9
:101D3000FFE72B98C16A8847FFE7B7E12A982B99FC
:101D4000096CC8408007002840F17F81FFE79DF8BB
:101D5000A4008007002840F17881FFE72B980068F5
:101D60000068800600280BD4FFE72B9801680868FC
:101D700020F00A0008602B99012081F82100FFE77C
:101D80002B9800688121C4F202018842C0F0A8802B
:101D9000FFE72B9800680821C4F20201884203D1B2
:101DA000FFE70220149094E02B9800681C21C4F2F5
:101DB0000201884203D1FFE72020139086E02B9890
:101DC00000683021C4F20201884204D1FFE74FF4D9
:101DD0000070129077E02B9800684421C4F2020151
:101DE000884204D1FFE74FF40050119068E02B982F
:101DF00000685821C4F20201884204D1FFE74FF481
:101E00000030109059E02B9800686C21C4F2020158
:101E1000884204D1FFE74FF400100F904AE02B985E
:101E200000688021C4F20201884204D1FFE74FF02C
:101E300000700E903BE02B98006840F20841C4F21D
:101E40000201884203D1FFE702200D902CE02B987D
:101E5000006840F21C41C4F20201884203D1FFE74E
:101E600020200C901DE02B98006840F23041C4F215
:101E70000201884204D1FFE74FF400700B900DE09F
:101E80002B98016840F24442C4F202024FF4003041
:101E9000914208BF4FF400500B90FFE70B980C9055
:101EA000FFE70C980D90FFE70D980E90FFE70E9856
:101EB0000F90FFE70F981090FFE710981190FFE741
:101EC00011981290FFE712981390FFE7139814905F
:101ED000FFE7149840F20441C4F202010860A5E053
:101EE0002B9800680821C4F20201884203D1FFE761
:101EF00002200A9094E02B9800681C21C4F2020191
:101F0000884203D1FFE72020099086E02B980068E3
:101F10003021C4F20201884204D1FFE74FF400707F
:101F2000089077E02B9800684421C4F202018842AF
:101F300004D1FFE74FF40050079068E02B98006849
:101F40005821C4F20201884204D1FFE74FF4003067
:101F5000069059E02B9800686C21C4F20201884277
:101F600004D1FFE74FF4001005904AE02B98006879
:101F70008021C4F20201884204D1FFE74FF00070D3
:101F800004903BE02B98006840F20841C4F2020143
:101F9000884203D1FFE7022003902CE02B980068D1
:101FA00040F21C41C4F20201884203D1FFE7202025
:101FB00002901DE02B98006840F23041C4F202010B
:101FC000884204D1FFE74FF4007001900DE02B9898
:101FD000016840F24442C4F202024FF400309142E0
:101FE00008BF4FF400500190FFE701980290FFE70F
:101FF00002980390FFE703980490FFE70498059088
:10200000FFE705980690FFE706980790FFE7079817
:102010000890FFE708980990FFE709980A90FFE702
:102020000A980421C4F202010860FFE7FFE72B9938
:10203000002081F82000FFE72B98806A20B1FFE79D
:102040002B98816A8847FFE72FE02A982B99096C23
:10205000C8400007002827D5FFE79DF8A400000727
:10206000002821D5FFE72B980168086820F00E00B2
:1020700008602B98C26B016C012000FA01F15160DD
:102080002B9988632B9981F82100FFE72B99002079
:1020900081F82000FFE72B98006B20B1FFE72B9819
:1020A000016B8847FFE7FFE7FFE7FFE72CB080BD44
:1020B00083B0019000200090019820B9FFE7012033
:1020C0008DF80B006AE00198006840F20741C4F205
:1020D0000201884218D8FFE7019908684FF6F872A4
:1020E000CBF6FD7210444CF6CD42CCF6CC42A0FBB0
:1020F00002026FF0030000EA9200086401990020D8
:10210000C4F20200C86318E0019908684FF6F8327B
:10211000CBF6FD7210444CF6CD42CCF6CC42A0FB7F
:1021200002026FF0030000EA92000864019940F295
:102130000040C4F20200C863FFE70199022081F861
:1021400021000198006800680090009843F6F07143
:102150008843009001994868D1F808C0CB680A69A3
:1021600040EA0C00184310434A6910438A6910433F
:10217000C9690143009808430090009801990968D3
:102180000860019900208863019A012182F82110DA
:10219000019981F820008DF80B00FFE79DF80B00F6
:1021A00003B0704780B586B004900391029201930A
:1021B00000208DF80300FFE7049890F82000012824
:1021C00004D1FFE702208DF817004CE004990120AC
:1021D00081F82000FFE7FFE7049890F8210001282C
:1021E00032D1FFE70499022081F8210004990020F0
:1021F000886304980168086820F00100086004986A
:102200000399029A019BFEF751FA0498C06A38B10B
:10221000FFE704980168086840F00E0008600CE0D1
:1022200004980168086820F00400086004980168B8
:10223000086840F00A000860FFE704980168086831
:1022400040F00100086009E0FFE70499002081F8F0
:102250002000FFE702208DF80300FFE79DF8030050
:102260008DF81700FFE79DF8170006B080BD00004D
:1022700090B00F900E9100200D900990FFE70E98FE
:1022800000680D99C840002800F07F81FFE70D9994
:10229000012088400C900E9800680C9908400B9023
:1022A0000B980C99884240F06C81FFE70E984068CB
:1022B0000590002851D0FFE7059801283AD0FFE7A4
:1022C000059802283FD0FFE7059803285FD0FFE775
:1022D0000598112832D0FFE70598122838D0FFE77B
:1022E00005980021C1F21101884236D0FFE7059818
:1022F0000021C1F2120188422FD0FFE7059800218A
:10230000C1F22101884228D0FFE705980021C1F2DF
:102310002201884221D0FFE705980021C1F2310156
:1023200088421AD0FFE705980021C1F232018842A5
:1023300013D02FE00E98C06809902CE00E98C0686A
:102340000430099027E00E98C0680830099022E018
:102350000E98C0680C3009901DE00E98806818B97E
:10236000FFE70420099011E00E988068012806D14B
:10237000FFE7082009900C980F99086105E00820F4
:1023800009900C980F994861FFE7FFE703E00020F0
:10239000099000E0FFE70B98FF2803D8FFE70F98AC
:1023A000049003E00F9804300490FFE7049808902D
:1023B0000B98FF2804D8FFE70D988000039006E0F3
:1023C0000D996FF01F0000EB81000390FFE7039869
:1023D000079008980068079A0F219140884309994F
:1023E00091400843089908600E98C079C0060028FB
:1023F00040F1C680FFE7FFE741F21800C4F2020097
:10240000016841F001010160006800F001000690E0
:102410000698FFE70D9820F003000821C4F201019F
:1024200040580A900D9800F0030081000F2000FA38
:1024300001F10A9888430A900F9840F60001C4F20F
:102440000101884203D1FFE70020029026E00F98A7
:1024500040F60041C4F20101884203D1FFE70120A8
:10246000019018E00F9841F20001C4F20101884286
:1024700003D1FFE7022000900AE00F9941F20042E9
:10248000C4F201020420914208BF03200090FFE73C
:1024900000980190FFE701980290FFE702980D99DC
:1024A00001F00301890000FA01F10A9808430A903B
:1024B0000A980D9921F003010822C4F20102885004
:1024C0000E988079C006002809D5FFE70B9A40F2E4
:1024D0000841C4F2010108681043086008E00B9A43
:1024E00040F20841C4F20101086890430860FFE728
:1024F0000E9880798006002809D5FFE70B9A40F2F4
:102500000C41C4F2010108681043086008E00B9A0E
:1025100040F20C41C4F20101086890430860FFE7F3
:102520000E9880798007002809D5FFE70B9A40F2C2
:102530000441C4F2010108681043086008E00B9AE6
:1025400040F20441C4F20101086890430860FFE7CB
:102550000E988079C00748B1FFE70B9A40F200411E
:10256000C4F2010108681043086008E00B9A40F2C9
:102570000041C4F20101086890430860FFE7FFE7EB
:10258000FFE70D9801300D9079E610B0704700001C
:1025900042F28450C2F200000068704740F204002A
:1025A000C2F20000027842F28451C2F200010868CF
:1025B000104408607047000080B542F20001C4F288
:1025C0000201086840F010000860032000F0DEF807
:1025D0000F2000F005F800F07BF8002080BD00001F
:1025E00080B58CB00B900020049003908DF807000C
:1025F000FFE741F21C00C4F20200016841F004014F
:102600000160006800F0040000900098FFE706A851
:1026100002A900F0EFF909980490049820B9FFE7A7
:1026200000F018FA059004E000F014FA400005905C
:10263000FFE705984DF68361C4F21B31A0FB010151
:102640004FF0FF3000EB9140039041F25040C2F256
:10265000000040F60001C4F20001016040F2E731E1
:10266000C16003994160002101618160816100F0D6
:10267000B5FE8DF807009DF8070028BBFFE741F283
:102680005040C2F2000000F0FBFE8DF807009DF8FC
:102690000700C0B9FFE71E2000F054F80B980F2880
:1026A0000CD8FFE70B991E20002200F055F80B987C
:1026B00040F20801C2F20001086003E001208DF839
:1026C0000700FFE7FFE7FFE79DF807000CB080BDBC
:1026D00080B584B0FFE741F21800C4F2020001683F
:1026E00041F001010160006800F0010003900398CF
:1026F000FFE7FFE741F21C00C4F20200016841F06D
:1027000080510160006800F0805002900298FFE75D
:102710006FF001000F21002200F01EF8FFE70421F6
:10272000C4F2010108680190019820F0E060019076
:10273000019840F00070019001980860FFE704B034
:1027400080BD000080B582B08DF807009DF90700BC
:1027500004F09AFD02B080BD80B586B08DF81700F8
:10276000049103920020029004F0A6FD02909DF9CE
:102770001700019002980499039A01F013FE014694
:10278000019804F0A1FD06B080BD000080B582B0C4
:102790000190019804F0BAFD02B080BD80B584B00C
:1027A00002900191029820B9FFE701208DF80F00F7
:1027B0001BE1019842F20001C4F20201096801F034
:1027C0000701884216D9FFE742F20000C4F2020076
:1027D000016821F00701019A11430160006800F0CF
:1027E00007000199884204D0FFE701208DF80F000F
:1027F000FBE0FFE702980078800700282AD5FFE772
:10280000029800784007002809D5FFE741F204014B
:10281000C4F20201086840F4E0600860FFE7029833
:1028200000780007002809D5FFE741F20401C4F24F
:102830000201086840F460500860FFE741F20401BB
:10284000C4F20201086820F0F000029A9268104376
:102850000860FFE702980078C007002860D0FFE713
:102860000298406801280ED1FFE741F20000C4F24F
:10287000020000688003002804D4FFE701208DF8DF
:102880000F00B2E021E00298406802280ED1FFE775
:1028900041F20000C4F2020000688001002804D464
:1028A000FFE701208DF80F009FE00DE041F20000EE
:1028B000C4F2020000688007002804D4FFE701206A
:1028C0008DF80F0091E0FFE7FFE741F20401C4F249
:1028D0000201086820F00300029A52681043086061
:1028E000FFF756FE0090FFE741F20400C4F2020039
:1028F000006800F00C0002994968B0EB810F0ED01F
:10290000FFE7FFF745FE0099401A41F289318842FE
:1029100004D3FFE703208DF80F0066E0E4E7FFE74C
:10292000019842F20001C4F20201096801F00701B6
:10293000884216D2FFE742F20000C4F202000168AA
:1029400021F00701019A11430160006800F00700BF
:102950000199884204D0FFE701208DF80F0044E080
:10296000FFE702980078400700280CD5FFE741F206
:102970000401C4F20201086820F4E060029AD268FF
:1029800010430860FFE702980078000700280DD583
:10299000FFE741F20401C4F20201086820F460502C
:1029A000029A126940EAC2000860FFE700F076F878
:1029B00041F20401C4F202010968C9B20A0949F2EC
:1029C0003C31C0F60001895CC84040F20001C2F20F
:1029D0000001086040F20800C2F200000068FFF742
:1029E000FFFD00208DF80F00FFE79DF80F0004B0F9
:1029F00080BD000082B00190009101990F20086015
:102A000041F20400C4F20200016801F00301019ADE
:102A10005160016801F0F001019A9160016801F4D0
:102A2000E061019AD160006800F46050C00801992B
:102A3000086142F20000C4F20200006800F00700E2
:102A40000099086002B0704740F20000C2F2000036
:102A50000068704780B5FFF7F7FF41F20401C4F248
:102A600002010968C1F3022249F24C31C0F60001AB
:102A7000895CC84080BD000080B5FFF7E5FF41F2EA
:102A80000401C4F202010968C1F3C22249F24C31C7
:102A9000C0F60001895CC84080BD000080B588B0E8
:102AA00000200790069005900490039002900190FA
:102AB00041F20400C4F2020000680790079800F099
:102AC0000C0001460091002878D0FFE70098042808
:102AD00004D0FFE70098082806D070E041F20020FB
:102AE000C0F27A00039070E00798C0F3834149F286
:102AF0005430C0F60000405C04909DF81E00C007F2
:102B0000002850D0FFE741F22C00C4F20200016817
:102B100001F00F0249F26231C0F60001895C0691B2
:102B20000068C003002825D5FFE741F22C00C4F25D
:102B300002000168CAB2012101EB12110291006882
:102B400000F47061022000EB1120019001980499BB
:102B5000A0FB010141F20022C0F27A02A0FB0203B5
:102B600001FB0231029A069BA2FB0323FDF760FBE7
:102B700005900AE0049841F20021C0F27A0148432E
:102B80000699B0FBF1F00590FFE7049849F2543143
:102B9000C0F60001497B884204D1FFE70598400850
:102BA0000590FFE707E0049840F60011C0F23D01F0
:102BB00048430590FFE70598039006E0FFE741F2E0
:102BC0000020C0F27A000390FFE7039808B080BDB0
:102BD00080B586B00490049820B9FFE701208DF8F5
:102BE0001700EFE304980078C007002800F0AE80DB
:102BF000FFE741F20400C4F20200006800F00C009C
:102C0000042813D0FFE741F20400C4F20200006878
:102C100000F00C0008281BD1FFE741F20400C4F2C9
:102C200002000068C003002812D5FFE741F200004F
:102C3000C4F2020000688003002808D5FFE704986A
:102C4000806820B9FFE701208DF81700BAE37CE027
:102C5000FFE704988068B0F5803F09D1FFE741F2B3
:102C60000001C4F20201086840F48030086032E0DC
:102C70000498806868B9FFE741F20001C4F20201DC
:102C8000086820F480300860086820F4802008601C
:102C900020E004988068B0F5A02F0DD1FFE741F245
:102CA0000001C4F20201086840F48020086008684E
:102CB00040F4803008600CE041F20001C4F20201EF
:102CC000086820F480300860086820F480200860DC
:102CD000FFE7FFE7FFE7FFE704988068D0B1FFE771
:102CE000FFF756FC0390FFE741F20000C4F2020038
:102CF0000068800300280CD4FFE7FFF749FC039924
:102D0000401A652804D3FFE703208DF8170059E324
:102D1000EAE719E0FFF73CFC0390FFE741F200000F
:102D2000C4F202000068800300280CD5FFE7FFF71B
:102D30002FFC0399401A652804D3FFE703208DF880
:102D400017003FE3EAE7FFE7FFE7FFE704980078B3
:102D50008007002840F18D80FFE741F20400C4F2B3
:102D60000200006810F00C0F13D0FFE741F20400DE
:102D7000C4F20200006800F00C00082829D1FFE727
:102D800041F20400C4F202000068C003002820D40D
:102D9000FFE741F20000C4F202000068800700284B
:102DA00009D5FFE704984069012804D0FFE7012016
:102DB0008DF8170006E341F20001C4F20201086831
:102DC00020F0F800049A926940EAC2000860FFE728
:102DD0004EE00498406958B3FFE70021C4F2422155
:102DE00001200860FFF7D4FB0390FFE741F20000E9
:102DF000C4F202000068800700280CD4FFE7FFF748
:102E0000C7FB0399401A032804D3FFE703208DF87A
:102E10001700D7E2EAE741F20001C4F202010868B4
:102E200020F0F800049A926940EAC20008601EE0AF
:102E30000021C4F2422100200860FFF7A9FB0390A3
:102E4000FFE741F20000C4F202000068800700289A
:102E50000CD5FFE7FFF79CFB0399401A032804D326
:102E6000FFE703208DF81700ACE2EAE7FFE7FFE792
:102E7000FFE7049800780007002848D5FFE704988A
:102E8000C06918B3FFE740F28041C4F2422101203B
:102E90000860FFF77DFB0390FFE741F22400C4F2D6
:102EA00002000068800700280CD4FFE7FFF770FBE2
:102EB0000399401A032804D3FFE703208DF8170075
:102EC00080E2EAE7012001F0C5FA1FE040F280410C
:102ED000C4F2422100200860FFF75AFB0390FFE78D
:102EE00041F22400C4F202000068800700280CD5DB
:102EF000FFE7FFF74DFB0399401A032804D3FFE7D0
:102F000003208DF817005DE2EAE7FFE7FFE704988A
:102F100000784007002840F1D880FFE700208DF8B6
:102F2000070041F21C00C4F202000068C000002843
:102F300013D4FFE7FFE741F21C00C4F2020001686E
:102F400041F080510160006800F0805000900098CE
:102F5000FFE701208DF80700FFE747F20000C4F209
:102F600000000068C005002822D4FFE747F20001F6
:102F7000C4F20001086840F480700860FFF708FBA5
:102F80000390FFE747F20000C4F200000068C005AC
:102F900000280CD4FFE7FFF7FBFA0399401A6528D5
:102FA00004D3FFE703208DF817000BE2EAE7FFE701
:102FB000FFE704980069012809D1FFE741F22001E9
:102FC000C4F20201086840F00100086031E0049892
:102FD000006968B9FFE741F22001C4F20201086804
:102FE00020F001000860086820F0040008601FE07D
:102FF0000498006905280DD1FFE741F22001C4F2D1
:103000000201086840F004000860086840F0010010
:1030100008600CE041F22001C4F20201086820F0CF
:1030200001000860086820F004000860FFE7FFE77F
:10303000FFE7FFE704980069E0B1FFE7FFF7A8FAB0
:103040000390FFE741F22000C4F20200006880070D
:1030500000280ED4FFE7FFF79BFA0399401A41F2CC
:103060008931884204D3FFE703208DF81700A9E1D6
:10307000E8E71BE0FFF78CFA0390FFE741F220003E
:10308000C4F202000068800700280ED5FFE7FFF7B2
:103090007FFA0399401A41F28931884204D3FFE74D
:1030A00003208DF817008DE1E8E7FFE79DF80700A2
:1030B000012809D1FFE741F21C01C4F202010868AE
:1030C00020F080500860FFE7FFE70498C06A0028FE
:1030D00000F0B780FFE741F20400C4F2020000688C
:1030E000C003002817D5FFE741F20400C4F2020034
:1030F000006800F00C0008280DD1FFE741F22C0019
:10310000C4F202000068C003002804D5FFE70120D4
:103110008DF8170056E10498C06A022868D1FFE7CD
:1031200041F20000C4F202000068C000002810D57F
:10313000FFE741F22C00C4F20200006800F0F0004A
:103140000499496B884204D0FFE701208DF81700ED
:1031500038E16821C4F2422100200860FFF718FA24
:103160000390FFE741F20000C4F202000068000192
:1031700000280CD5FFE7FFF70BFA0399401A6528E2
:1031800004D3FFE703208DF817001BE1EAE741F2C3
:103190002C01C4F20201086820F0F000049A526B7E
:1031A00010430860086820F47060049A126B1043A2
:1031B00008606821C4F2422101200860FFF7E8F9A5
:1031C0000390FFE741F20000C4F202000068000132
:1031D00000280CD4FFE7FFF7DBF90399401A6528B4
:1031E00004D3FFE703208DF81700EBE0EAE726E0C1
:1031F00041F22C01C4F20201086820F4803008601A
:103200006821C4F2422100200860FFF7C1F9039051
:10321000FFE741F20000C4F202000068000100284C
:103220000CD5FFE7FFF7B4F90399401A652804D3DA
:10323000FFE703208DF81700C4E0EAE7FFE7FFE7A8
:10324000FFE70498006A002800F0B880FFE741F229
:103250000400C4F20200006800F00C00082800F02E
:103260008780FFE70498006A022861D1FFE76021A8
:10327000C4F2422100200860FFF78AF90390FFE7BB
:1032800041F20000C4F202000068800100280CD561
:10329000FFE7FFF77DF90399401A032804D3FFE7FE
:1032A00003208DF817008DE0EAE70498406AB0F536
:1032B000803F11D1FFE70498426841F22C01C4F22B
:1032C0000201086810430860086820F00F00049AA3
:1032D000D26810430860FFE741F20401C4F2020122
:1032E000086820F47410049B5A6A9B6A1A431043BE
:1032F00008606021C4F2422101200860FFF748F90C
:103300000390FFE741F20000C4F202000068800170
:1033100000280CD4FFE7FFF73BF90399401A032874
:1033200004D3FFE703208DF817004BE0EAE71EE027
:103330006021C4F2422100200860FFF729F90390C0
:10334000FFE741F20000C4F202000068800100289B
:103350000CD5FFE7FFF71CF90399401A032804D3A3
:10336000FFE703208DF817002CE0EAE7FFE724E0F1
:103370000498006A012804D1FFE701208DF81700A6
:1033800020E041F20400C4F20200006802900298BA
:1033900000F480300499496A884208D1FFE7029816
:1033A00000F470100499896A884204D0FFE7012074
:1033B0008DF8170006E0FFE7FFE7FFE700208DF834
:1033C0001700FFE79DF8170006B080BD81B00090A0
:1033D00001B0704781B0009001B0704780B582B0F5
:1033E0000090009820B9FFE701208DF807003FE02A
:1033F000009890F83D0040B9FFE70099002081F85F
:103400003C00009800F038F8FFE70099022081F8AE
:103410003D00009951F8040B01F0E2F800990120F9
:1034200081F84600FFE70099012081F83E000099ED
:1034300081F83F00009981F84000009981F841002F
:10344000FFE7FFE70099012081F84200009981F829
:103450004300009981F84400009981F84500FFE796
:103460000099012081F83D0000208DF80700FFE75A
:103470009DF8070002B080BD81B0009001B0704798
:1034800083B00190019890F83D00012804D0FFE737
:1034900001208DF80B0050E00199022081F83D00D9
:1034A00001980168C86840F00100C8600198006890
:1034B00042F60041C4F20101884221D0FFE70198A1
:1034C0000068B0F1804F1BD0FFE70198006840F220
:1034D0000041C4F20001884212D0FFE70198006861
:1034E00040F60001C4F20001884209D0FFE70198CC
:1034F000006840F60041C4F20001884212D1FFE7A3
:1035000001980068806800F0070000900098062885
:1035100007D0FFE701980168086840F001000860E3
:10352000FFE706E001980168086840F001000860C4
:10353000FFE700208DF80B00FFE79DF80B0003B0BC
:103540007047000081B0009001B0704780B582B034
:10355000019001980068006900F002010020B0EBC2
:10356000510F28D0FFE701980068C06800F0020101
:103570000020B0EB510F1DD0FFE7019801686FF0FC
:1035800002000861019901200877019800688069AC
:10359000800720B1FFE70198FFF7D4FF06E001980C
:1035A00000F012F9019800F013F9FFE701990020EB
:1035B0000877FFE7FFE701980068006900F0040161
:1035C0000020B0EB910F29D0FFE701980068C06898
:1035D00000F004010020B0EB910F1ED0FFE701982E
:1035E00001686FF0040008610199022008770198D2
:1035F0000068806910F4407F04D0FFE70198FFF76E
:10360000A1FF06E0019800F0DFF8019800F0E0F873
:10361000FFE7019900200877FFE7FFE701980068BE
:10362000006900F008010020B0EBD10F28D0FFE7BF
:1036300001980068C06800F008010020B0EBD10FCD
:103640001DD0FFE7019801686FF00800086101993B
:103650000420087701980068C069800720B1FFE75F
:103660000198FFF76FFF06E0019800F0ADF80198B0
:1036700000F0AEF8FFE7019900200877FFE7FFE7C9
:1036800001980068006900F010010020B0EB111FE4
:1036900029D0FFE701980068C06800F01001002001
:1036A000B0EB111F1ED0FFE7019801686FF010000A
:1036B000086101990820087701980068C06910F432
:1036C000407F04D0FFE70198FFF73CFF06E0019838
:1036D00000F07AF8019800F07BF8FFE701990020EC
:1036E0000877FFE7FFE7019800680069C00780B12D
:1036F000FFE701980068C068C00748B1FFE701987C
:1037000001686FF001000861019800F065F8FFE7BB
:10371000FFE7019800680069C1B20020B0EBD11F3B
:1037200013D0FFE701980068C068C1B20020B0EB79
:10373000D11F09D0FFE7019801686FF08000086190
:103740000198FFF743FEFFE7FFE701980068006973
:1037500000F040010020B0EB911F14D0FFE701986A
:103760000068C06800F040010020B0EB911F09D054
:10377000FFE7019801686FF040000861019800F0D0
:103780003DF8FFE7FFE701980068006900F02001BD
:103790000020B0EB511F14D0FFE701980068C0680B
:1037A00000F020010020B0EB511F09D0FFE7019885
:1037B00001686FF0200008610198FFF70BFEFFE73A
:1037C000FFE702B080BD000081B0009001B07047FB
:1037D00081B0009001B0704780B582B0019001982F
:1037E000006840F60001C4F20001884203D1FFE7FF
:1037F000FEF7D4FEFFE702B080BD000081B000906C
:1038000001B0704780B586B004900391ADF80A20EE
:10381000049890F8420020284DD1FFE7039820B18A
:10382000FFE7BDF80A0020B9FFE701208DF8170077
:1038300045E0049901200863049900204863049836
:103840000399BDF80A2001F0D3FA8DF809009DF81C
:10385000090058BBFFE70498006B012821D1FFE75E
:10386000FFE7002001900498006800680190049828
:103870000068406801900198FFE7FFE7FFE70498C0
:10388000006850E8030F40F010000090FFE7009937
:103890000498026842E803100028F0D1FFE7FFE730
:1038A00003E001208DF80900FFE7FFE79DF809001C
:1038B0008DF8170003E002208DF81700FFE79DF850
:1038C000170006B080BD000080B58CB00B90ADF83D
:1038D0002A100B98006843F60001C4F201018842E7
:1038E00015D1FFE740F62810C2F200000890D0F88A
:1038F0000822BDF82A1000F5827009909047089AB6
:1039000009990B98B2F80422FFF77CFF7BE00B9833
:10391000006844F20041C4F20001884215D1FFE77B
:1039200040F63430C2F200000690D0F80822BDF80C
:103930002A1000F5827007909047069A07990B9815
:10394000B2F80422FFF75EFF5CE00B98006844F6D3
:103950000001C4F20001884215D1FFE740F6405053
:10396000C2F200000490D0F80822BDF82A1000F539
:10397000827005909047049A05990B98B2F804223A
:10398000FFF740FF3DE00B98006844F60041C4F2A9
:103990000001884215D1FFE740F64C70C2F20000EA
:1039A0000290D0F80822BDF82A1000F5827003902A
:1039B0009047029A03990B98B2F80422FFF722FF6E
:1039C0001EE00B98006845F20001C4F20001884235
:1039D00015D1FFE741F25810C2F200000090D0F874
:1039E0000822BDF82A1000F5827001909047009AD5
:1039F00001990B98B2F80422FFF704FFFFE7FFE7F5
:103A0000FFE7FFE7FFE70CB080BD000081B000904A
:103A100001B0704780B592B01190119800680068AD
:103A2000109011980068C0680F9011980068406964
:103A30000E9000200D900C90109800F00F000D904B
:103A40000D9888B9FFE79DF84000800600280AD548
:103A5000FFE79DF83C008006002804D5FFE7119899
:103A600001F0B2F8E9E1FFE70D98002800F0C2800C
:103A7000FFE79DF83800C00738B9FFE7BDF83C0004
:103A800010F4907F00F0B680FFE79DF84000C0077B
:103A900058B1FFE79DF83D00C00730B1FFE711992D
:103AA000486C40F001004864FFE79DF84000400783
:103AB00000280BD5FFE79DF83800C00730B1FFE7BD
:103AC0001199486C40F002004864FFE79DF84000FF
:103AD000800700280BD5FFE79DF83800C00730B1FC
:103AE000FFE71199486C40F004004864FFE79DF837
:103AF00040000007002811D5FFE79DF83C00800634
:103B0000002805D4FFE79DF83800C00730B1FFE773
:103B10001199486C40F008004864FFE71198406C28
:103B2000002866D0FFE79DF84000800600280AD5EF
:103B3000FFE79DF83C008006002804D5FFE71198B8
:103B400001F042F8FFE7119800684069C0F3801067
:103B50000C901198406C0007002804D4FFE70C98E3
:103B600000283ED0FFE7119800F012FF119800687E
:103B70004069400600282FD5FFE7FFE7FFE71198CF
:103B8000006850E8050F20F040000B90FFE70B990C
:103B90001198026842E805100028F0D1FFE7FFE71E
:103BA0001198C06B98B1FFE71198C16B44F239705E
:103BB000C0F6000048631198C06BFDF7ABFD28B15B
:103BC000FFE71198C06B416B8847FFE703E011984E
:103BD000FFF71CFFFFE703E01198FFF717FFFFE770
:103BE00006E01198FFF712FF119900204864FFE7E3
:103BF000FFE722E11198006B012840F0FE80FFE70B
:103C00009DF84000C006002840F1F780FFE79DF8CE
:103C10003C00C006002840F1F080FFE7FFE70020ED
:103C20000A901198006800680A901198006840682E
:103C30000A900A98FFE7119800684069400600283A
:103C400040F18180FFE71198C06B00684068ADF8D3
:103C50002600BDF82600002874D0FFE7BDF8260036
:103C60001199898D88426DDAFFE7BDF82600119918
:103C7000C8851198C06B8069202858D0FFE7FFE7FE
:103C8000FFE71198006850E8030F20F48070089057
:103C9000FFE708991198026842E803100028F0D164
:103CA000FFE7FFE7FFE7FFE71198006850E8050F1F
:103CB00020F001000790FFE707991198026842E899
:103CC00005100028F0D1FFE7FFE7FFE7FFE71198B5
:103CD000006850E8050F20F040000690FFE70699C5
:103CE0001198026842E805100028F0D1FFE7FFE7CD
:103CF0001199202081F84200119900200863FFE704
:103D0000FFE71198006850E8030F20F010000590BD
:103D1000FFE705991198026842E803100028F0D1E6
:103D2000FFE7FFE71198C06BFDF7B6FCFFE71199BD
:103D3000022048631198818DC28D891A89B2FFF7DC
:103D4000C3FDFFE779E01199888DC98D401AADF860
:103D500012001198C08D00284ED0FFE7BDF8120068
:103D6000002849D0FFE7FFE7FFE71198006850E817
:103D7000030F20F490700390FFE7039911980268F5
:103D800042E803100028F0D1FFE7FFE7FFE7FFE775
:103D90001198006850E8050F20F001000290FFE73D
:103DA00002991198026842E805100028F0D1FFE757
:103DB000FFE71199202081F8420011990020086343
:103DC000FFE7FFE71198006850E8030F20F01000AC
:103DD0000190FFE701991198026842E8031000285A
:103DE000F0D1FFE7FFE71199022048631198BDF871
:103DF0001210FFF769FDFFE71FE09DF84000000685
:103E000000280AD5FFE79DF83C000006002804D5ED
:103E1000FFE7119801F072F80FE09DF840004006AE
:103E200000280AD5FFE79DF83C004006002804D58D
:103E3000FFE7119800F0F6FDFFE712B080BD00002B
:103E400080B582B00090009820B9FFE701208DF87E
:103E5000070040E00098806908B1FFE700E0FFE755
:103E6000009890F8410040B9FFE70099002081F8E0
:103E70004000009800F034F8FFE70099242081F812
:103E8000410000980168C86820F40050C86000989C
:103E900000F050FF00980168086920F49040086124
:103EA00000980168486920F02A004861009801687C
:103EB000C86840F40050C860009900204864009A27
:103EC000202182F84110009A82F84210009948633C
:103ED0008DF80700FFE79DF8070002B080BD0000E5
:103EE00080B58EB00D9000200C900B900A90099038
:103EF0000D98006843F60001C4F20101884240F0C9
:103F00009D80FFE7FFE741F21800C4F2020001685C
:103F100041F480410160006800F4804008900898F6
:103F2000FFE7FFE741F21800C4F20200016841F028
:103F300008010160006800F0080007900798FFE79B
:103F40004020099002200A9003200C9040F6004087
:103F5000C4F20100049009A90591FEF789F90498BB
:103F600005998022099200220A920B92FEF780F9AD
:103F7000FFE70421C4F2010108680690069840F0AA
:103F8000E0600690069840F00400069006980860ED
:103F9000FFE741F2C830C2F2000003905821C4F29A
:103FA000020101600021416081608022C2600161E4
:103FB000416181614FF48051C161FEF779F818B118
:103FC000FFE7FCF79DFBFFE7FFE70D9841F2C831E3
:103FD000C2F20001C1630D984862FFE741F20C4054
:103FE000C2F2000002904421C4F2020101601021DB
:103FF0004160002181608022C26001614161816174
:104000004FF48051C161FEF753F818B1FFE7FCF798
:1040100077FBFFE7FFE70D9841F20C41C2F2000188
:1040200081630D984862FFE7252001900521002259
:10403000FEF792FB0198FEF785FBFFE70EB080BD0F
:1040400081B0009001B0704781B0009001B070471E
:1040500080B586B004900391ADF80A20049890F8DA
:10406000410020285DD1FFE7039820B1FFE7BDF8AC
:104070000A0020B9FFE701208DF8170055E00398EA
:1040800004990862BDF80A0004998884BDF80A0002
:104090000499C884049900204864049A212182F874
:1040A000411004998A6B44F6FD01C0F6000191624B
:1040B00004998A6B44F67911C0F60001D162049923
:1040C0008A6B44F25971C0F6000111630499896B3F
:1040D000486303A8019004980268806B01990968FD
:1040E0000432BDF80A30FEF75DF8049801686FF0FD
:1040F00040000860FFE7FFE70498006850E8050FFC
:1041000040F080000090FFE700990498026842E8C0
:1041100005100028F0D1FFE7FFE700208DF8170019
:1041200003E002208DF81700FFE79DF8170006B0A6
:1041300080BD000081B0009001B0704781B0009058
:1041400001B07047FFE7FEE780B582B041F27830FA
:10415000C2F20000019046F20041C4F20001016089
:104160000421416000218160C1604FF4003202618E
:104170004FF4800242610176012242768176C17657
:1041800001774177FCF79EFF18B1FFE7FCF7B8FA1B
:10419000FFE702B080BD000080B582B041F2A030E0
:1041A000C2F20000019046F60001C4F20001016075
:1041B0000421416000218160C1604FF4003202613E
:1041C0004FF4800242610176012242768176C17607
:1041D00001774177FCF776FF18B1FFE7FCF790FA1B
:1041E000FFE702B080BD000080B586B0FFE741F276
:1041F0001400C4F20200016841F00101016000688E
:1042000000F0010005900598FFE70E2001900521C0
:10421000029100220392FEF79FFA0198FEF792FAAC
:104220000299039A0F200490FEF796FA0498FEF77D
:1042300089FA06B080BD0000B0B596B049F22030D2
:10424000C0F60000016842688368D0F80CC0D0F85E
:1042500010E044691494CDF84CE0CDF848C01193B7
:1042600010920F91806915900FA80021009103F022
:1042700035F9009941F27432C2F20002106049F23D
:10428000E820C0F6000002684368D0F808C0D0F803
:104290000CE0046945690D950C94CDF82CE0CDF83F
:1042A00028C00993089280690E9008A803F016F9B7
:1042B000009940F61C12C2F20002106049F204306C
:1042C000C0F6000002684368D0F808C0D0F80CE0DF
:1042D0000469456906950594CDF810E0CDF80CC049
:1042E000029301928069079001A803F0F7F840F665
:1042F0002411C2F20001086016B0B0BD83B0FFE720
:1043000041F21800C4F20200016841F0200101608E
:10431000006800F0200002900298FFE7FFE741F2FA
:104320001800C4F20200016841F008010160006851
:1043300000F0080001900198FFE7FFE741F2180044
:10434000C4F20200016841F004010160006800F05D
:10435000040000900098FFE703B0704780B582B07A
:1043600041F29840C2F20000019043F60001C4F20D
:10437000010101604FF4E131416000218160C160C1
:1043800001610C2242618161C161FFF759FD18B1E1
:10439000FFE7FCF7B5F9FFE702B080BDFFE7FEE7F6
:1043A000FFE7FEE788B0079006910592079800F0B6
:1043B000070004900498C0F10700052803D3FFE725
:1043C0000420019004E00498C0F107000190FFE789
:1043D0000198039004980430062803D8FFE70020D2
:1043E000009003E0049803380090FFE700980290E3
:1043F00006980399012202FA01F101390840029B53
:10440000984005999A40013A1140084308B0704716
:10441000EFF30980BFF36F8F0D4B1A6820E9F00F9F
:1044200010602DE908404FF0500080F3118803F030
:104430004FFF4FF0000080F31188BDE80840196875
:104440000868B0E8F00F80F30988BFF36F8F7047FA
:10445000E014002082B00190019840F20001C2F205
:1044600000010968C90844F6D352C1F26202A1FBF7
:104470000221890948430090FFE700BFFFE7009849
:10448000411E00910028F8D1FFE702B070470000FC
:1044900080B582B00190FFE741F26830C2F20000BF
:1044A000016801310160006864280ED1FFE741F224
:1044B0006831C2F200010020086040F20010C2F230
:1044C00000003C3002F088F9FFE740F20010C2F231
:1044D000000001F0E9FC4FF4967002F0E5FFDBE725
:1044E000074B19680868B0E8F00F80F30988BFF33C
:1044F0006F8F4FF0000080F311884EF00D0E704763
:10450000E014002080B582B00190FFE7012002F0A6
:10451000CBFFFBE780B582B04FF0500080F31188ED
:10452000BFF36F8FBFF34F8F009004F05BF840B183
:10453000FFE74EF60451CEF200014FF080500860C4
:10454000FFE700200190019880F3118802B080BD40
:1045500080B596B008A801903821FBF726FF019896
:104560000021029107910691059104910391012385
:1045700008934FF480320A920B910D930991022314
:10458000109311924FF4E01212921391FEF720FB58
:1045900018B1FFE7FCF7B4F8FFE70F200390022102
:1045A0000491002005904FF480620692079003A8C2
:1045B000FEF7F4F818B1FFE7FCF7A2F8FFE7702167
:1045C000C4F242210120086016B080BD704700008F
:1045D00080B541F25040C2F20000FEF7B7FF80BD47
:1045E00083B002900191029800680090029842F610
:1045F0000041C4F2010188421DD0FFE70298B0F1EA
:10460000804F18D0FFE7029840F20041C4F2000149
:10461000884210D0FFE7029840F60001C4F2000182
:10462000884208D0FFE7029840F60041C4F200013A
:1046300088420AD1FFE7009820F0700000900198AE
:104640004168009808430090FFE7029842F6004155
:10465000C4F2010188421DD0FFE70298B0F1804FFB
:1046600018D0FFE7029840F20041C4F200018842EE
:1046700010D0FFE7029840F60001C4F20001884222
:1046800008D0FFE7029840F60041C4F200018842DA
:104690000AD1FFE7009820F4407000900198C168AB
:1046A000009808430090FFE7009820F080000199EF
:1046B0004969084300900098029908600198806851
:1046C0000299C8620198006802998862029842F6CD
:1046D0000041C4F20101884205D1FFE70198006959
:1046E00002990863FFE702990120486103B070470F
:1046F00080B584B0694600200190086041F27830AE
:10470000C2F20000039040F27802C2F2000240F2CE
:10471000FF1108230293FBF763FF0199029B0398A3
:104720006A46116040F28002C2F200024FF400714A
:10473000FBF756FF04B080BD80B582B001900198B0
:10474000406A009000990020C8850099C8840098AC
:10475000FFF75CF902B080BD80B584B00390002003
:1047600002900398406A0190019800684069C0B2C5
:10477000C0090290019890F8410021280AD1FFE772
:10478000029838B1FFE701990020C884019800F031
:104790005DF9FFE7019800684069C0F3801002905E
:1047A000019890F8420022280AD1FFE7029838B118
:1047B000FFE701990020C885019800F0E9F8FFE7BC
:1047C0000199486C40F0100048640198FFF71EF909
:1047D00004B080BD80B586B005900598406A04900D
:1047E000059800680068800600285AD4FFE70499FD
:1047F0000020C885FFE7FFE70498006850E8030F32
:1048000020F480700390FFE703990498026842E85F
:1048100003100028F0D1FFE7FFE7FFE7FFE7049868
:10482000006850E8050F20F001000290FFE70299B0
:104830000498026842E805100028F0D1FFE7FFE77E
:10484000FFE7FFE70498006850E8050F20F04000FC
:104850000190FFE701990498026842E805100028DA
:10486000F0D1FFE7FFE70499202081F84200049887
:10487000006B012814D1FFE7FFE7FFE70498006809
:1048800050E8030F20F010000090FFE70099049813
:10489000026842E803100028F0D1FFE7FFE7FFE7D6
:1048A000FFE70499002048630498006B012805D1B4
:1048B000FFE70498818DFFF707F803E00498FFF7FE
:1048C000BFFBFFE706B080BD80B582B001900198C4
:1048D000406A00900099012048630098006B01280D
:1048E00006D1FFE70098818D4908FEF7EDFF03E050
:1048F0000098FFF7A9FBFFE702B080BD80B584B048
:1049000003900398406A029003980068006880064C
:1049100000282AD4FFE702990020C884FFE7FFE7B8
:104920000298006850E8050F20F080000190FFE732
:1049300001990298026842E805100028F0D1FFE7CB
:10494000FFE7FFE7FFE70298006850E8030F40F039
:1049500040000090FFE700990298026842E80310C7
:104960000028F0D1FFE7FFE703E00298FFF7E2FB42
:10497000FFE704B080BD000080B582B001900198CF
:10498000406A00900098FFF7D9FB02B080BD00009C
:1049900084B00390FFE7FFE70398006850E8030F37
:1049A00020F490700290FFE702990398026842E8B1
:1049B00003100028F0D1FFE7FFE7FFE7FFE70398C8
:1049C000006850E8050F20F001000190FFE7019911
:1049D0000398026842E805100028F0D1FFE7FFE7DE
:1049E0000398006B012814D1FFE7FFE7FFE7039866
:1049F000006850E8030F20F010000090FFE70099D6
:104A00000398026842E803100028F0D1FFE7FFE7AF
:104A1000FFE70399202081F84200039900200863F2
:104A200004B0704780B582B0019001980168C868F1
:104A300020F04000C8600199202081F841000198D1
:104A4000FFF778FB002002B080BD000082B001902B
:104A5000FFE7FFE70198006850E8030F20F0C0006F
:104A60000090FFE700990198026842E803100028CF
:104A7000F0D1FFE7FFE70199202081F8410002B063
:104A80007047000080B584B003900291ADF8062015
:104A90000398006843F60001C4F20101884215D171
:104AA000FFE7039840F62811C2F20001086002985F
:104AB000C1F80802BDF80600A1F804020398B1F895
:104AC000042201F58271FEF79DFE7BE003980068E9
:104AD00044F20041C4F20001884215D1FFE7039877
:104AE00040F63431C2F2000108600298C1F80802B1
:104AF000BDF80600A1F804020398B1F8042201F5FC
:104B00008271FEF77FFE5CE00398006844F60001C6
:104B1000C4F20001884215D1FFE7039840F64051E6
:104B2000C2F2000108600298C1F80802BDF8060050
:104B3000A1F804020398B1F8042201F58271FEF78E
:104B400061FE3DE00398006844F60041C4F20001B4
:104B5000884215D1FFE7039840F64C71C2F200017C
:104B600008600298C1F80802BDF80600A1F8040226
:104B70000398B1F8042201F58271FEF743FE1EE0AE
:104B80000398006845F20001C4F20001884215D183
:104B9000FFE7039841F25811C2F200010860029841
:104BA000C1F80802BDF80600A1F804020398B1F8A4
:104BB000042201F58271FEF725FEFFE7FFE7FFE71C
:104BC000FFE7FFE704B080BD80B586B0049004988D
:104BD00090F84200222840F0A480FFE70498806803
:104BE000B0F5805F15D1FFE70498006988B9FFE749
:104BF000002003900498806A02900498006840683E
:104C00006FF35F20029908800499886A02308862F5
:104C100025E00498806A0390002002900498806840
:104C2000B0F5805F08D0FFE70498806850B9FFE7CF
:104C30000498006930B9FFE7049800684068039958
:104C4000087007E004980068406800F07F0003994E
:104C50000870FFE70499886A01308862FFE70499C9
:104C6000C88D0138C8850004002856D1FFE7049894
:104C70000168C86820F02000C86004980168C8680E
:104C800020F48070C86004980168486920F0010031
:104C900048610499202081F842000499002048636B
:104CA0000498006B012830D1FFE7049900200863C5
:104CB000FFE7FFE70498006850E8030F20F01000BA
:104CC0000190FFE701990498026842E80310002868
:104CD000F0D1FFE7FFE7049800680068C0060028ED
:104CE0000ED5FFE7FFE700200090049800680068F9
:104CF000009004980068406800900098FFE7FFE784
:104D00000498818DFEF7E0FD03E00498FFF798F921
:104D1000FFE700208DF8170007E000208DF817004E
:104D200003E002208DF81700FFE79DF8170006B09A
:104D300080BD000080B584B00390039800680069CE
:104D400020F44050039A1168D26810430861039917
:104D500088680A694969104308430290039800680B
:104D6000C06841F20C6188430299084303990968BD
:104D7000C86003980068406920F44070039A116885
:104D80009269104348610398006843F60001C4F239
:104D90000101884204D1FFE7FDF76EFE019003E0B8
:104DA000FDF758FE0190FFE7019819214843039A47
:104DB000116852689200B0FBF2FC48F21F52C5F233
:104DC000EB12ACFB02304309642003FB10CC322011
:104DD00000EB0C10A0FB0202F02000EA521000EBE6
:104DE0000310C2F343121044886004B080BD000079
:104DF00080B588B007900691ADF8162006980799FF
:104E00008862BDF8160007998885079900204864D4
:104E1000079A222182F842100799CA6B44F2D57191
:104E2000C0F6000191620799CA6B44F6C901C0F649
:104E30000001D1620799CA6B44F25971C0F60001B2
:104E400011630799C96B486306A804900798016825
:104E5000C06B0431049A1268BDF81630FDF7A2F950
:104E6000FFE7002003900798006800680390079808
:104E70000068406803900398FFE707980069A0B1B5
:104E8000FFE7FFE7FFE70798006850E8030F40F4EB
:104E900080700290FFE702990798026842E80310C9
:104EA0000028F0D1FFE7FFE7FFE7FFE7FFE70798FC
:104EB000006850E8050F40F001000190FFE70199FC
:104EC0000798026842E805100028F0D1FFE7FFE7E5
:104ED000FFE7FFE70798006850E8050F40F0400043
:104EE0000090FFE700990798026842E80510002843
:104EF000F0D1FFE7FFE7002008B080BD83B001904C
:104F0000019890F8410021283AD1FFE70198806884
:104F1000B0F5805F13D1FFE70198006978B9FFE72A
:104F20000198006A0090009800886FF35F20019953
:104F3000096848600199086A0230086208E0019A2D
:104F4000106A411C11620078019909684860FFE706
:104F50000199C88C0138C884000468B9FFE701983A
:104F60000168C86820F08000C86001980168C868BE
:104F700040F04000C860FFE700208DF80B0003E020
:104F800002208DF80B00FFE79DF80B0003B070477F
:104F900080B541F29840C2F20000FEF73BFD80BDB3
:104FA000FFE7FEE780B502F0CFF980BD80B584B0A1
:104FB000039002910192039800680299096803F036
:104FC0008AFE28B9FFE702980068039908600DE09F
:104FD000039800680199096803F084FE28B9FFE787
:104FE0000198006803990860FFE7FFE704B080BDFF
:104FF00085B004908DF80F10049841F27831C2F218
:10500000000188425CD1FFE79DF80F00013801469E
:1050100001910A2852D80199DFE801F0060C131A11
:1050200021272E353C42490040F28000C2F20000A8
:10503000029044E040F28000C2F200000230029090
:105040003DE040F28000C2F200000430029036E001
:1050500040F28000C2F20000063002902FE040F2E1
:105060007800C2F20000029029E040F27800C2F21B
:1050700000000230029022E040F27800C2F200000C
:10508000043002901BE040F27800C2F200000630CB
:10509000029014E040F28800C2F2000002900EE09C
:1050A00040F28800C2F200000230029007E040F2B5
:1050B0008800C2F200000430029000E0FFE764E0E4
:1050C000049841F2A031C2F2000188425CD1FFE7AE
:1050D0009DF80F000138014600910A2852D8009926
:1050E000DFE801F0060C131A21272E353C42490057
:1050F00040F2C400C2F20000029044E040F2C4005A
:10510000C2F20000023002903DE040F2C400C2F260
:1051100000000430029036E040F2C400C2F2000009
:10512000063002902FE040F2BC00C2F20000029074
:1051300029E040F2BC00C2F200000230029022E0FE
:1051400040F2BC00C2F20000043002901BE040F2CA
:10515000BC00C2F200000630029014E040F2CC0025
:10516000C2F2000002900EE040F2CC00C2F2000059
:105170000230029007E040F2CC00C2F2000004309E
:10518000029000E0FFE7FFE7FFE7029805B07047F5
:1051900080B58AB0DDF830C0099008910792069377
:1051A00009980068089909680091401A03F0C6FE42
:1051B0000099019007980068401A03F0BFFE01466D
:1051C000019803F0A9FD0590059802900C980068DD
:1051D00006990968039104F011F80146029803F05A
:1051E00041FF039903F0D6FC049004980AB080BDF7
:1051F00080B584B003900398806820B9FFE70398D6
:105200000068029009E003988068042804D1FFE751
:10521000039800790290FFE7FFE70298A0F20120CF
:1052200001460191062844D80199DFE801F00410F5
:105230001C2834404100039800F11C0140F200108A
:10524000C2F2000000F5417001F06EFC31E00398FD
:1052500000F11C0140F20010C2F2000000F57F7066
:1052600001F062FC25E0039800F11C0140F20010FF
:10527000C2F2000000F2F44001F056FC19E003987D
:1052800000F11C0140F20010C2F2000000F2EC50EC
:1052900001F04AFC0DE0039800F11C0140F20010FF
:1052A000C2F2000000F2E46001F03EFC01E000E028
:1052B000FFE704B080BD000080B584B00390039880
:1052C000806820B9FFE703980068029009E003981E
:1052D0008068042804D1FFE7039800790290FFE773
:1052E000FFE702980190112812D0FFE7019840F2E1
:1052F0000121884218D0FFE7019840F2022188423C
:1053000013D0FFE7019840F2032188420ED00EE04F
:10531000039800F11C0140F20010C2F2000000F5F9
:10532000387001F095FD02E001E000E0FFE704B015
:1053300080BD000084B00390029103980190029810
:1053400000900198407800990870019800780099C1
:10535000487004B07047000080B582B00190ADF88D
:105360000210019940F20010C2F200003C3001F03E
:10537000D5F902B080BD000080B582B001900198DF
:10538000002103F0AFFC18B9FFE70198009004E09A
:10539000019880F000400090FFE7009802B080BDC7
:1053A00082B00190009101990098086102B07047A5
:1053B00080B582B00190019800908068002103F0D0
:1053C00091FC002844D1FFE700988168006903F050
:1053D00089FCD0B9FFE700998868096903F00EFFDE
:1053E000FFF7CAFF0099096803F07CFC40B9FFE7AA
:1053F00000980168C06803F0CDFB0099C86003E025
:1054000000990869C860FFE721E000988168006999
:1054100003F061FCD0B9FFE700998868096903F0DF
:10542000EDFEFFF7A9FF0099496803F05BFC40B966
:10543000FFE700984168C06803F0E0FE0099C8608B
:1054400003E000990869C860FFE7FFE7FFE790E025
:1054500000988068002103F03EFC002844D1FFE75B
:1054600000988168006903F036FCD0B9FFE7009925
:105470008868096903F0C2FEFFF77EFF009909689A
:1054800003F030FC40B9FFE700980168C06803F002
:10549000B5FE0099C86003E000990869C860FFE79D
:1054A00021E000988168006903F01CFCD0B9FFE797
:1054B00000998868096903F0A1FEFFF75DFF009974
:1054C000496803F00FFC40B9FFE700984168C068E5
:1054D00003F060FB0099C86003E000990869C860A8
:1054E000FFE7FFE7FFE743E000988168006903F00A
:1054F000F9FBD0B9FFE700998868096903F07EFEDF
:10550000FFF73AFF0099096803F0ECFB40B9FFE7A9
:1055100000980168C06803F03DFB0099C86003E093
:1055200000990869C860FFE721E000988168006978
:1055300003F0D1FBD0B9FFE700998868096903F04F
:105540005DFEFFF719FF0099096803F0CBFB40B936
:10555000FFE700980168C06803F050FE0099C8603A
:1055600003E000990869C860FFE7FFE7FFE7FFE78E
:10557000FFE70099C868886002B080BD83B00290E0
:10558000019100920299019808600098486003B068
:105590007047000081B000900098C06801B070476B
:1055A00081B00090009800218160C160016101B06C
:1055B0007047000080B582B001900198009041F2E0
:1055C0006C30C2F200000078C007B8B9FFE700985D
:1055D0004DF67C11CBF620710022C4F27A520023E2
:1055E000C4F2A01300F02EF838B1FFE741F26C319D
:1055F000C2F2000101200870FFE70CE0009890F86B
:10560000F90738B9FFE741F26C31C2F2000100201E
:105610000870FFE7FFE702B080BD000080B584B0EE
:1056200003900291039802990191D0F8FC17D0F8E9
:10563000180803F0AFFA0146019801F057FA04B0D8
:1056400080BD000080B58AB0069005910492039356
:105650000698019000F2E4600290022101F082FAC3
:105660000298059901F04CFA019800F234700499FF
:1056700001F06EFC029801F029FA0990099820F0D7
:1056800000400021C4F2FA4103F033FB002844D16A
:10569000FFE7019800F2E46001F010FA0890089822
:1056A00020F0004003F04AFA49F69A12C9F699121E
:1056B00041F2BF53C3F6A07303F0E3FA68BBFFE700
:1056C00041F26E30C2F20000018801310180008891
:1056D000C82821DBFFE7019800F2E4600090032175
:1056E00001F040FA019800F234704FF08D4101F062
:1056F0002FFC009801F0DAF90199C1F8FC07039832
:10570000C1F8180841F26E31C2F200010020088091
:1057100001208DF81F0004E0FFE700208DF81F0036
:10572000FFE79DF81F000AB080BD000080B59AB069
:10573000199019980F90FFF72DFF01460F980091CF
:1057400014300C90FFF726FF0146009803F056FD39
:1057500001460F98029128300E90FFF71BFF0F9A19
:105760000190D2F8EC07D2F8F017D2F8F4270392A0
:1057700003F010FA0146019803F074FC0146029808
:1057800003F03CFD039903F0C7FA4CF6EB11C4F2A9
:105790001811139103F066FC01460F981591FFF75D
:1057A000F9FE01460C980491FFF7F4FE01460498B7
:1057B00003F0F0F901460E980691FFF7EBFE0F9A01
:1057C0000590D2F8EC07D2F8F017D2F8F427079238
:1057D00003F0E0F90146059803F044FC0146069801
:1057E00003F00CFD079903F097FA139903F03AFCC4
:1057F00001460F981691FFF7CDFE01460C980891CF
:10580000FFF7C8FE089903F0F9FC01460E980A91CB
:10581000FFF7C0FE0F9A0990D2F8EC07D2F8F01704
:10582000D2F8F4270B9203F0B5F90146099803F07A
:1058300019FC01460A9803F0E1FC0B9903F06CFA9D
:10584000139903F00FFC01460F981791FFF7A2FE82
:1058500001460C980D91FFF79DFE01460D9803F04F
:1058600099F901460E981191FFF794FE0F9A109046
:10587000D2F8EC07D2F8F017D2F8F427129203F01E
:1058800089F90146109803F0EDFB119903F082F9B4
:10589000129903F041FA139903F0E4FB80F0004001
:1058A000189000208DF85300FFE79DF8530003285F
:1058B00015DCFFE70F989DF85320C2EB421100EB77
:1058C000C10000F5417015A951F8221001F018F936
:1058D000FFE79DF8530001308DF85300E5E71AB05B
:1058E00080BD000080B5A0B01F901F98079000F504
:1058F00038711DA801F0A0FABDF874001C900020BA
:1059000005901B904FF6FF7004901A900020CBF684
:105910008070029019904FF07E5003901890694665
:1059200018A808601CA81BA91AAA19ABFFF730FC1D
:105930000299049A059BDDF81CE084460398CEF892
:1059400000C8BDF876C0CDF85CC0169315921491CE
:105950001390694613A8086017A816A915AA14ABD6
:10596000FFF716FC0299049A059BDDF81CE08446BB
:105970000398CEF804C8BDF878C0CDF848C011939C
:1059800010920F910E9069460EA8086012A811A9F6
:1059900010AA0FABFFF7FCFB0499079B0246059882
:1059A00082F00042C3F80828BDF87A200D920C90CE
:1059B0000B910A900020C4F291400990694609A811
:1059C00008600DA80CA90BAA0AABFFF7E1FB014682
:1059D0000798C0F81818D0F80018FFF7E1FC0798EE
:1059E000FFF7E6FC079901F114000690D1F80418BE
:1059F000FFF7D6FC0698FFF7DBFC079901F12800BA
:105A00000890D1F80818FFF7CBFC0898FFF7D0FCF6
:105A100020B080BD80B588B007900798029000F54F
:105A20004170069006980590069800F578700490ED
:105A3000FFE70598049988420AD0FFE7059803908C
:105A4000039801F023F9FFE70598F8300590F0E797
:105A5000029800F5417001F07DF801281DD1FFE7A3
:105A6000029800F57F7001F075F8012815D1FFE765
:105A7000029800F2F44001F06DF801280DD1FFE723
:105A8000029800F2EC5001F065F8012805D1FFE71B
:105A90000299012081F8F80704E00299002081F8BA
:105AA000F807FFE7029800F2E460019001F0EEF8D9
:105AB000019801F04FF8012805D1FFE70299012074
:105AC00081F8F90704E00299002081F8F907FFE75F
:105AD00008B080BD80B586B0059005980090FFF7AE
