:020000040800F2
:10000000D8FF00202D020008D956000849510008E9
:100010008D560008F90A0008C964000800000000B5
:10002000000000000000000000000000015800086F
:10003000411600080000000051570008355800081C
:10004000470200084702000847020008470200086C
:10005000470200084702000847020008470200085C
:10006000470200084702000847020008470200084C
:10007000810C0008470200084702000847020008F8
:10008000470200084702000847020008470200082C
:10009000FD0A00080D0B000847020008470200088F
:1000A000470200084702000847020008470200080C
:1000B000470200084159000851590008470200084A
:1000C00047020008470200084702000847020008EC
:1000D000470200089964000847020008A964000864
:1000E00047020008470200084702000847020008CC
:1000F00047020008470200084702000847020008BC
:1001000047020008470200084702000847020008AB
:10011000470200084702000847020008470200089B
:1001200047020008910C0008A10C000847020008D3
:10013000470200084702000847020008470200087B
:100140001D0B00082D0B000847020008470200089D
:1001500047020008B10C0008C10C0008B96400088F
:10016000470200084702000847020008470200084B
:10017000470200084702000847020008000000008C
:10018000470200084702000800F002F800F03EF8BD
:100190000AA090E8000C82448344AAF10107DA45E2
:1001A00001D100F033F8AFF2090EBAE80F0013F0F6
:1001B000010F18BFFB1A43F001031847A008010004
:1001C000C0080100103A24BF78C878C1FAD8520795
:1001D00024BF30C830C144BF04680C6070470000C1
:1001E0000023002400250026103A28BF78C1FBD840
:1001F000520728BF30C148BF0B6070471FB50FF0D2
:100200008FFF00F04DF91FBD10B510BD00F06EF965
:100210001146FFF7F3FF0CF007FB00F08CF903B475
:10022000FFF7F2FF03BC00F08FF900000948804798
:1002300009480047FEE7FEE7FEE7FEE7FEE7FEE7C8
:10024000FEE7FEE7FEE7FEE704480549054A064BE0
:10025000704700002D59000889010008D88C002043
:10026000D8FF0020D8CC0020D8CC002053EA020CC4
:1002700000F069802DE9F04B4FF00006002B1FBF06
:10028000B3FA83F503FA05F424FA05F65E4012BFCB
:100290001643B2FA82F502FA05F4C5F120051EBF35
:1002A00022FA05FC44EA0C04203556EA044C4FEAD5
:1002B000144418BF641C4FF000084FF0000990422E
:1002C00071EB030C39D3002919BFB1FA81F701FA98
:1002D00007F6B0FA80F700FA07F6C7F120071EBF4D
:1002E00020FA07FC46EA0C062037B6FBF4FCA7EB25
:1002F0000507103F07F01F0BCBF120062CFA06F67E
:100300000CFA0BFB44BFB3460026202FA4BF5E4669
:100310004FF0000B5BEA060C08BF4FF0010B19EB26
:100320000B0948EB0608ABFB027C06FB02CC0BFB7F
:1003300003CCC01B71EB0C01C1E70B4602464146E2
:100340004846BDE8F08B13B5084318BF4FF0FF30A7
:100350000146AFF30080BDE81C407047032A40F21D
:10036000308010F0030C00F0158011F8013BBCF157
:10037000020F624498BF11F801CB00F8013B38BF6F
:1003800011F8013BA2F1040298BF00F801CB38BF7D
:1003900000F8013B11F0030300F02580083AC0F09B
:1003A000088051F8043B083A51F804CBA0E8081043
:1003B000F5E7121D5CBF51F8043B40F8043BAFF376
:1003C0000080D20724BF11F8013B11F801CB48BFD0
:1003D00011F8012B24BF00F8013B00F801CB48BF06
:1003E00000F8012B704710B5203AC0F00B80B1E83F
:1003F0001850A0E81850B1E81850A0E81850203A5A
:10040000BFF4F5AF5FEA027C24BFB1E81850A0E862
:10041000185044BF18C918C0BDE810405FEA827C7C
:1004200024BF51F8043B40F8043B08BF7047D20793
:1004300028BF31F8023B48BF11F8012B28BF20F834
:10044000023B48BF00F8012B70474FF0000200B597
:10045000134694469646203922BFA0E80C50A0E8E7
:100460000C50B1F12001BFF4F7AF090728BFA0E895
:100470000C5048BF0CC05DF804EB890028BF40F861
:10048000042B08BF704748BF20F8022B11F0804FA3
:1004900018BF00F8012B7047704770477047000085
:1004A00070B5064C7C44064D7D4404E0204601684E
:1004B00008448047241DAC42F8D170BDD40501002A
:1004C000D805010010B500F009F8006810BD10B59E
:1004D000044600F003F8046010BD000000487047B7
:1004E0002800002000487047280000207546FFF7CC
:1004F000F9FFAE4605006946534620F007008546E1
:1005000018B020B5FFF7A0FEBDE820404FF0000670
:100510004FF000074FF000084FF0000BAC46ACE87E
:10052000C009ACE8C009ACE8C009ACE8C00921F0DA
:1005300007018D46704710B50446AFF30080204692
:10054000BDE81040FFF76BBE01491820ABBEFEE7C7
:10055000260002007047000080B584B0039002912D
:10056000019201980178407840EA012003990886B9
:1005700001988178C07840EA012000EB80004000BB
:100580000399488601980179407940EA012003994E
:10059000888601988079039981F836000198C0799E
:1005A000039981F83700039991F8360081F84C00DF
:1005B0000398B0F9340000F03BF8039880ED120A7C
:1005C000039AB2F93200117992ED020A00F050F864
:1005D000039880ED100A039890ED100A9FED111A10
:1005E00080EE010A30EE000A9FED0F1A20EE010A9C
:1005F00080ED110A0398B0F9300000F055F8039827
:1006000080ED0E0A039890ED0E0A9FED081A20EE79
:10061000010A80ED0F0A0399086D0130086500207A
:1006200004B080BD00007042D00F49402A568D3C76
:1006300080B582B0ADF80600BDF906000FF062FC8F
:1006400041EC100B9FED081B53EC112B51EC100BE0
:100650000FF0C2FA41EC100B51EC100B0FF07EFAC8
:1006600000EE100A02B080BD0000000000005940FA
:1006700082B0ADF806008DF805108DED000ABDF9C9
:10068000060000EE100AB8EEC00A9DF8050001EE63
:10069000100AB8EEC11A80EE010A9DED001A80EE34
:1006A000010A02B07047000080B582B0ADF80600C4
:1006B000BDF906000FF026FC41EC100B9FED081B66
:1006C00053EC112B51EC100B0FF086FA41EC100B90
:1006D00051EC100B0FF042FA00EE100A02B080BD90
:1006E000000000000000244070B588B00F9D0E9CF3
:1006F000DDF834E0DDF830C007950694CDF814E05D
:10070000CDF810C0039302920191009000990198D6
:10071000029A039BDDF810C0DDF814E0069C4C61E2
:10072000C1F810E0C1F80CC08B604A6008600798FF
:100730008861009800F002F808B070BD83B00190A5
:1007400000200090FFE7009809282EDCFFE70098C2
:1007500000EB400140F2A800C2F2000050F8210076
:10076000F0B9FFE70198009901EB410240F2A801BE
:10077000C2F2000141F822000198007B009A02EBCE
:10078000420201EB8202107201980068009A02EBAB
:10079000420201EB8201486000208DF80B0008E066
:1007A000FFE7009801300090CDE701208DF80B00A5
:1007B000FFE79DF80B0003B070470000B0B58CB0A8
:1007C00040F2A800C2F200007821FFF73EFE0020B0
:1007D000C4F2C000079015208DF818001420ADF861
:1007E000200045F63560C3F6BA50099040F6947083
:1007F000C2F200000590002004908DF828000A2025
:100800000B900599069A079B0898DDF824E00A9C4E
:100810000B9DEC46CCF80C50CCF80840CCF804E02A
:10082000CCF8000040F65C60C2F20000FFF75CFF0D
:100830001220ADF820000599069A079B0898DDF86C
:1008400024E00A9C0B9DEC46CCF80C50CCF80840F8
:10085000CCF804E0CCF8000040F6B060C2F2000032
:10086000FFF742FF049840F2A002C2F2000240F6F5
:100870005121C0F60001116040F28801C2F200016E
:10088000486008220A6104228A60C86008750CB0BA
:10089000B0BD000080B586B002A900910146009865
:1008A000059180ED020AC0ED010A80ED001A059A5B
:1008B0000621117790ED020A9FED1D1A20EE010A24
:1008C0000599BDEEC00A81ED090A90ED010A059A6D
:1008D000117901EE101AB8EEC11A20EE010A92ED5C
:1008E000021A20EE010ABDEEC00A10EE101A1185A0
:1008F00090ED000A0599087901EE100AB8EEC11AC8
:1009000020EE010A91ED021A20EE010ABDEEC00AA6
:1009100010EE100A48850598016840F2A000C2F266
:1009200000004160059900F005F806B080BD00BFE9
:1009300000401C4680B588B00690059100200490C8
:10094000039002900598007B8DF810000598007FB9
:100950008DF811000598007F0146019106285AD8AC
:100960000199DFE801F0040518191A2D330056E04B
:10097000059890F823008DF808000598408C8DF8B4
:1009800009000598006A000A8DF80A000598006AB7
:100990008DF80B0043E042E041E0059890F8270015
:1009A0008DF808000598C08C8DF809000598406AFC
:1009B000000A8DF80A000598406A8DF80B002EE0B9
:1009C000059890F82C008DF8080028E0059890F81C
:1009D00027008DF808000598C08C8DF8090005984F
:1009E000406A000A8DF80A000598406A8DF80B00ED
:1009F000059890F829008DF80C000598008D8DF869
:100A00000D00059890F82B008DF80E000598408D8C
:100A10008DF80F0003E002208DF81F0008E0069813
:100A200003684068049902AA98478DF81F00FFE701
:100A30009DF81F0008B080BD80B584B0039002917E
:100A4000019203980299019AFFF786FD04B080BDD8
:100A500080B586B004900391029240F60470C2F211
:100A6000000000684FF0FF310BF0BAFF039840F22E
:100A70008801C2F200014860FFE7049801F0DEF847
:100A800008B9FFE7F9E70498029A40F28801C2F238
:100A9000000140F22013C2F2000300F019FE0190A1
:100AA00040F60470C2F2000000680BF061FF9DF890
:100AB000170006B080BD000081B00090009890ED56
:100AC0000F0A01B07047000081B00090009890EDCF
:100AD000021A90ED042A90ED120A20EE020A20EE8E
:100AE000010A01B07047000081B00090009890EDBD
:100AF000110A01B070470000FFE7FEE780B540F63D
:100B00009470C2F2000001F0D1F880BD80B540F6CB
:100B10009470C2F2000001F0C9F880BD80B540F6C3
:100B2000BC70C2F2000001F0C1F880BD80B540F693
:100B3000BC70C2F2000001F0B9F880BD80B584B08D
:100B400003900291039801F015FD0398006846F2A6
:100B50000041C4F20001884216D1FFE7039840F239
:100B60003C11C2F2000108600298886203980023D9
:100B7000019319461A460BF0C5FD019B03980C2101
:100B80001A460BF0BFFD1FE00398006846F600010F
:100B9000C4F20001884216D1FFE7039840F28011A9
:100BA000C2F2000108600298886203987021002355
:100BB00000931A460BF0A6FD009B03987C211A4671
:100BC0000BF0A0FDFFE7FFE70398022100F056FDC0
:100BD0000398102100F052FD04B080BD80B58CB0A8
:100BE000DDF838C00B90ADF82A100992ADF822302C
:100BF0000E98009020B1FFE70098042806D00BE083
:100C0000BDF82A0002900020039005E00020029029
:100C1000BDF82A000390FFE70E980490002005908D
:100C2000BDF8220006900B98099A02A901AB00F0CA
:100C30004FFD0CB080BD000080B582B00190FFE791
:100C400040F65A60C2F2000001880131018000883C
:100C5000B0F5FA7F07D1FFE740F65A61C2F2000112
:100C600000200880FFE702200BF012FEE8E70000FA
:100C700080B582B00190FFE702200BF009FEFBE790
:100C800080B541F2A400C2F2000001F06DFD80BD0C
:100C900080B541F20410C2F2000001F065FD80BD94
:100CA00080B540F6E470C2F2000001F05DFD80BD49
:100CB00080B541F26410C2F2000001F055FD80BD24
:100CC00080B541F24400C2F2000001F04DFD80BD4C
:100CD00082B001900198007810384AF6AB21CAF62C
:100CE000AA21A0FB011000090090009940F2082001
:100CF000C0F60100405C0199C8650098042807D33C
:100D0000FFE701990868042262F30900886506E09C
:100D10000199086840F2FF3290438865FFE7019827
:100D2000806D02B07047000086B0059000208DF8FD
:100D300013000598806A03900598806910BBFFE74F
:100D40000398029003281BD80299DFE801F0020DF6
:100D50000218059890F82F00C00720B1FFE7012086
:100D60008DF81300FFE70CE00598C06AB0F1C07F72
:100D700004D1FFE701208DF81300FFE701E000E058
:100D8000FFE745E005988069B0F5005F25D1FFE7F2
:100D90000398019003281ED80199DFE801F00206AC
:100DA000021101208DF8130016E0059890F82F002D
:100DB000C00720B1FFE701208DF81300FFE70BE02B
:100DC0000598C06AB0F1C07F04D1FFE701208DF81B
:100DD0001300FFE700E0FFE719E003980090032805
:100DE00004D3FFE70098032804D00EE001208DF81B
:100DF00013000BE0059890F82F00C00720B1FFE723
:100E000001208DF81300FFE700E0FFE7FFE7FFE7B1
:100E10009DF8130006B0704784B0039002910192D0
:100E2000009303980168086820F480200860009807
:100E300003990968486003988068402809D1FFE752
:100E40000198039909688860029803990968C86045
:100E500008E0029803990968886001980399096875
:100E6000C860FFE704B0704780B584B0039002917A
:100E700001920198007800F00F00039981F8640056
:100E8000019800780009039981F86500019841787C
:100E9000807840EA01200399A1F866000199C8789A
:100EA0000979000140EA11100399A1F8680001983E
:100EB0000179407901F00F0140EA01200399A1F87E
:100EC0006A0001988079039981F86C000198C079D3
:100ED000039981F86D00039991F8650081F870001D
:100EE0000399B1F8660091ED040AD1ED050A1021CD
:100EF00000F062F8039880ED1D0A0399B1F86800CC
:100F000091ED060AD1ED070A0C21009100F054F88A
:100F10000099039880ED1E0A039AB2F86A0092EDD8
:100F20000C0AD2ED0D0A00F047F8039880ED1F0A75
:100F3000039991F86C0081F88000039991F86D0095
:100F400081F881000399D1F884000130C1F8840050
:100F5000002004B080BD000086B08DED050ACDED07
:100F6000040A8DED031A8DF80B009DED030A9DED2B
:100F7000041A30EE410A8DED010A049800909DEDAF
:100F8000050A9DED001A30EE410A9DF80B10012074
:100F90008840013801EE100AB8EEC11A20EE010AAD
:100FA0009DED011A80EE010ABDEEC00A10EE100A96
:100FB00000B206B07047000086B0ADF816008DEDA7
:100FC000040ACDED030A8DF80B109DED030A9DED8B
:100FD000041A30EE410A8DED010A04980090BDF824
:100FE000160000EE100AB8EE400A9DED011A20EE40
:100FF000010A9DF80B1001208840013801EE100A0B
:10100000B8EEC11A80EE010A9DED001A30EE010A19
:1010100006B070472DE9F04FA1B040F2D010C2F2F7
:1010200000003021FFF711FA11A84021FFF70DFA57
:1010300001201090ADF852000520ADF8500040F6A8
:101040009470C2F2000011904FF48070ADF87C00F3
:101050000020CCF220101D900020C4F220101E9021
:101060000020CCF2481015900020C4F248101690D1
:101070000020CCF2F01017900020C4F2F01018906D
:101080001199129A139B14980F90DDF854E0169C56
:10109000179D189E199FDDF86880DDF86C90DDF8CB
:1010A00070A0DDF874B01E980E901F980D902098D7
:1010B000EC46CCF830000D98CCF82C000E98CCF80B
:1010C00028000F98CCF824B0CCF820A0CCF81C90C5
:1010D000CCF81880CCF81470CCF81060CCF80C5018
:1010E000CCF80840CCF804E0CCF8000040F60C70D6
:1010F000C2F2000000F0E6F8109840F2B812C2F216
:10110000000200211160082313619160D160117504
:1011100001F0D4FD21B0BDE8F08F000080B582B0B1
:1011200001900199FB2081F840000199081D00F011
:10113000CDF900909DF8000002B080BD80B58CB064
:101140000A9009910020079006900999C889098F93
:10115000084405900998008F0146019158B1FFE7B6
:101160000198B0F5807F79D0FFE70198B0F5007F56
:1011700000F082808EE00998D0ED040A90ED051A07
:1011800090ED110A1020FFF7E7FEADF81200099864
:10119000D0ED060A90ED071A90ED120A0C2000908F
:1011A000FFF7DAFE01460098ADF810100999D1ED6D
:1011B000080A91ED091A91ED130AFFF7CDFE0146D9
:1011C0000098ADF80E100999D1ED0A0A91ED0B1AAD
:1011D00091ED140AFFF7C0FE01460098ADF80C101F
:1011E0000999D1ED0C0A91ED0D1A91ED150AFFF751
:1011F000B3FEADF80A009DF813008DF818009DF8B5
:1012000012008DF81900BDF8100000098DF81A00C1
:10121000BDF810109DF80F0040EA01108DF81B007A
:101220009DF80E008DF81C00BDF80C0000098DF82B
:101230001D00BDF80C109DF80B0040EA01108DF860
:101240001E009DF80A008DF81F000A980368406888
:101250000999C98906AA984708901FE00998806DE6
:1012600006900998C06D07900A9803684068059930
:1012700006AA9847089011E00998006E06900A980F
:10128000036840680999C98901F5007106AA984761
:10129000089003E002208DF82F0003E008988DF8F5
:1012A0002F00FFE79DF82F000CB080BD80B584B003
:1012B00003900291019203980299019AFFF7D4FDDD
:1012C00004B080BD2DE9F04F95B0009103902A98AD
:1012D0002999019128990291DDF89CB0DDF898A038
:1012E000DDF89490DDF89080239F229E219D209C24
:1012F000DDF87CE0DDF878C0009900991490019841
:101300001390029812900398CDF844B0CDF840A005
:10131000CDF83C90CDF838800D970C960B950A943B
:10132000CDF824E0CDF820C00793069205910490F3
:1013300004990598069A079BDDF820C0DDF824E0A3
:101340000A9C4C61C1F810E0C1F80CC08B604A6087
:1013500008600B980C9A0D9BDDF838C0DDF83CE076
:10136000109CCC62C1F828E0C1F824C00B62CA61AD
:1013700088611198129A139BDDF850C0C1F83CC0E7
:101380008B634A630863059804998860049941F265
:101390005D50C0F600004860049800F003F815B0F6
:1013A000BDE8F08F83B0019000200090FFE7009827
:1013B00003282EDCFFE7009800EB400140F2D0103C
:1013C000C2F2000050F82100F0B9FFE7019800993F
:1013D00001EB410240F2D011C2F2000141F82200BB
:1013E0000198807B009A02EB420201EB82021072AC
:1013F00001980068009A02EB420201EB820148600A
:1014000000208DF80B0008E0FFE700980130009005
:10141000CDE701208DF80B00FFE79DF80B0003B02E
:101420007047000080B584B00390039890F8700076
:10143000014601910D2840D80199DFE801F00A0723
:101440003E3E3E3E3E3E3E3E3E29140F0020029070
:1014500036E0039800F0B8F8029031E00398FFF707
:101460005DFE02902CE0039890F8810000EE100AD7
:10147000B8EEC00A9FED141AB4EE410AF1EE10FA6C
:1014800005DAFFE70398FFF749FE0290FFE717E050
:10149000039890F8800000EE100AB8EEC00A9FEDA5
:1014A0000A1AB4EE410AF1EE10FA05DAFFE70398E2
:1014B000FFF734FE0290FFE702E001200290FFE711
:1014C0009DF8080004B080BD0000704280B588B06F
:1014D000069005914FF0FF3003900290059890F828
:1014E00040008DF80F000598008F0146019150B122
:1014F000FFE70198B0F5807F0ED0FFE70198B0F5C7
:10150000007F14D01EE00698036840680599C989D9
:1015100002AA9847049019E0069803684068059964
:10152000C98901F5807102AA984704900EE00698D7
:10153000036840680599C98901F5007102AA9847B6
:10154000049003E002208DF81F0003E004988DF85A
:101550001F00FFE79DF81F0008B080BD80B584B074
:10156000039002910192029840F2B811C2F2000178
:101570000860FFE7039800F061FB8DF80200FFE7C9
:101580009DF802000328F5D1FFE70398019A40F285
:10159000B811C2F2000140F20023C2F2000300F0D1
:1015A00097F88DF80300FFE7039800F047FB8DF8EC
:1015B0000200FFE79DF802000328F5D1FFE79DF840
:1015C000030004B080BD000080B582B00190019995
:1015D000FC2081F840000199081DFFF777FF00907B
:1015E0009DF8000002B080BD80B586B0CDED040A44
:1015F0008DED030A02900298008FB0F5807F04D031
:10160000FFE701208DF8170015E00298FFF70AFFA9
:1016100068B9FFE702990398049ACA658865029938
:10162000081DFFF78BFD01908DF8170003E00120E6
:101630008DF81700FFE79DF8170006B080BD000089
:101640007047000081B00090009890ED1D0A01B035
:101650007047000081B00090009890ED1E0A01B024
:101660007047000081B00090009890ED1F0A01B013
:101670007047000072B6FFE7FEE7000084B00290FA
:101680000191029890F820008DF803009DF8030066
:10169000012805D0FFE79DF8030002280AD1FFE7E3
:1016A000019A0298016848691043486100208DF84A
:1016B0000F0008E00299486A40F480204862012047
:1016C0008DF80F00FFE79DF80F0004B07047000091
:1016D00088B00690059104920393069890F8200034
:1016E0008DF807000698006880680090059880686B
:1016F00008B9FFE700E0FFE79DF80700012806D0E2
:10170000FFE79DF80700022840F08080FFE79DF882
:101710000300400700280CD4FFE79DF803000007F2
:10172000002806D4FFE79DF80300C006002864D512
:10173000FFE70098C0F30160029002990120884001
:10174000039908600598806868B9FFE70598016803
:10175000C06840EA415006990968029A01EB0211FB
:10176000C1F880010EE005994A688868C96840EAB6
:10177000C200084306990968029A01EB0211C1F8F8
:101780008001FFE70598006906990968029A01EB54
:101790000211C1F884010598007D01280CD1FFE7F2
:1017A00006980068029900EB0111D1F8840140F419
:1017B0008070C1F88401FFE70498406806990968C1
:1017C000029A01EB0211C1F88C0104980068069995
:1017D0000968029A01EB0211C1F8880106980068B5
:1017E000029900EB0111D1F8800140F00100C1F82D
:1017F000800100208DF81F0011E00699486A40F42E
:101800000010486201208DF81F0008E00699486A20
:1018100040F48020486201208DF81F00FFE79DF80A
:101820001F0008B07047000086B004900391049830
:1018300000680190049890F820008DF803009DF84E
:101840000300012806D0FFE79DF80300022840F0BE
:10185000B080FFE746F20040C4F200000190019919
:10186000D1F8000240F00100C1F800020199D1F85E
:10187000000220F47C50C1F800020398426A0199EA
:10188000D1F8000240EA0220C1F800020398406942
:1018900000F01F01012088400290029A0199D1F8BE
:1018A0001C029043C1F81C020398C069F0B9FFE71D
:1018B000029A0199D1F80C029043C1F80C02039AE4
:1018C0009088D168526940EA0140019901EBC20158
:1018D000C1F84002039A10889168526940EA0140B9
:1018E000019901EBC201C1F84402FFE70398C06906
:1018F00001281ED1FFE7029A0199D1F80C0210438A
:10190000C1F80C02039A90881168526940EA0140BC
:10191000019901EBC201C1F84002039A90899168D4
:10192000526940EA0140019901EBC201C1F8440249
:10193000FFE70398806940B9FFE7029A0199D1F85F
:1019400004029043C1F8040207E0029A0199D1F819
:1019500004021043C1F80402FFE70398006940B98C
:10196000FFE7029A0199D1F814029043C1F81402DA
:1019700007E0029A0199D1F814021043C1F8140249
:10198000FFE70398006A012808D1FFE7029A01994E
:10199000D1F81C021043C1F81C02FFE70199D1F8ED
:1019A000000220F00100C1F8000200208DF81700AD
:1019B00008E00499486A40F48020486201208DF8CC
:1019C0001700FFE79DF8170006B0704781B0009040
:1019D00001B0704784B003900291002001900398F9
:1019E00090F820008DF803009DF80300012805D031
:1019F000FFE79DF80300022812D1FFE7029838B9EB
:101A0000FFE703980068C06800F00300019006E05B
:101A100003980068006900F003000190FFE7FFE70A
:101A2000019804B07047000086B0049003910292C0
:101A30000193049890F820008DF803009DF80300AE
:101A4000012806D0FFE79DF80300022840F0E88057
:101A5000FFE7039880B9FFE704980068C068800733
:101A600048B9FFE70499486A40F400104862012031
:101A70008DF81700DDE00FE004980068006980072A
:101A800048B9FFE70499486A40F400104862012011
:101A90008DF81700CDE0FFE704980068039900EB8C
:101AA0000110D0F8B00100F004000299886002989B
:101AB000806858B9FFE704980068039900EB0110AB
:101AC000D0F8B001400D029908600AE0049800685F
:101AD000039900EB0110D0F8B001C00802994860EA
:101AE000FFE704980068039900EB0110D0F8B001FB
:101AF00000F002000299C86004980068039900EBA6
:101B00000110D0F8B40100F00F00082804D3FFE75B
:101B10000299082008610BE004980068039900EB23
:101B20000110D0F8B40100F00F0002990861FFE73E
:101B300004980068039900EB0110D0F8B40180B25A
:101B4000000A0299886104980068039900EB01106B
:101B5000D0F8B401000C0299486104980068039918
:101B600000EB0110D0F8B8010199087004980068E2
:101B7000039900EB0110D0F8B801000A01994870F0
:101B800004980068039900EB0110D0F8B801000C2C
:101B90000199887004980068039900EB0110D0F84F
:101BA000B801000E0199C87004980068039900EB11
:101BB0000110D0F8BC0101990871049800680399DC
:101BC00000EB0110D0F8BC01000A0199487104989B
:101BD0000068039900EB0110D0F8BC01000C0199DA
:101BE000887104980068039900EB0110D0F8BC01DB
:101BF000000E0199C871039838B9FFE7049801688D
:101C0000C86840F02000C86006E0049801680869D0
:101C100040F020000861FFE700208DF8170008E081
:101C20000499486A40F48020486201208DF817002A
:101C3000FFE79DF8170006B07047000083B00290E0
:101C400000200190029890F820008DF803009DF884
:101C50000300012805D0FFE79DF80300022822D1E8
:101C6000FFE70298006880684001002804D5FFE77C
:101C7000019801300190FFE7029800688068000138
:101C8000002804D5FFE7019801300190FFE7029892
:101C900000688068C000002804D5FFE70198013083
:101CA0000190FFE7FFE7019803B0704780B58AB065
:101CB00009900020089009980068406907900998E9
:101CC0000068406806900998006880680590099847
:101CD0000068C0680490099800680069039009983A
:101CE0000068806902909DF81C00C007002800F081
:101CF0009480FFE79DF81400C00758B3FFE70998E8
:101D00000168012088609DF814008007002804D530
:101D1000FFE7099800F078FC1BE09DF814004007ED
:101D2000002805D5FFE7089840F4006008900FE010
:101D30009DF814000007002805D5FFE7089840F437
:101D40008050089003E0099800F05AFCFFE7FFE795
:101D5000FFE7FFE79DF81500C00760B3FFE70998AC
:101D600001684FF4807088609DF815008007002896
:101D700004D5FFE7099800F04FFC1BE09DF8150023
:101D80004007002805D5FFE7089840F40050089068
:101D90000FE09DF815000007002805D5FFE708981B
:101DA00040F48040089003E0099800F031FCFFE720
:101DB000FFE7FFE7FFE79DF81600C00760B3FFE706
:101DC000099801684FF4803088609DF816008007FC
:101DD000002804D5FFE7099800F026FC1BE09DF8D9
:101DE00016004007002805D5FFE7089840F400409A
:101DF00008900FE09DF816000007002805D5FFE7C2
:101E0000089840F48030089003E0099800F008FC3E
:101E1000FFE7FFE7FFE7FFE7FFE79DF81C0000078C
:101E2000002810D5FFE79DF81000C006002809D54E
:101E3000FFE7089840F400700890099801681020A6
:101E4000C860FFE7FFE79DF81C00400700280FD59A
:101E5000FFE79DF810000007002808D5FFE7099864
:101E600001680820C860099800F0E0FAFFE7FFE782
:101E70009DF81C00800700280BD5FFE70998006833
:101E8000C068800720B1FFE7099800F0D3FAFFE7A8
:101E9000FFE79DF81C004006002810D5FFE79DF8DD
:101EA0000C00C006002809D5FFE7089840F48060C0
:101EB00008900998016810200861FFE7FFE79DF886
:101EC0001C00800600280FD5FFE79DF80C000007D6
:101ED000002808D5FFE709980168082008610998DB
:101EE00000F0F4FAFFE7FFE79DF81C00C0060028A9
:101EF0000BD5FFE7099800680069800720B1FFE76C
:101F0000099800F0E7FAFFE7FFE79DF81E00800759
:101F100000280FD5FFE79DF81800C006002808D557
:101F2000FFE70998016810204860099800F01EFB3F
:101F3000FFE7FFE79DF81E00C00778B1FFE79DF8B7
:101F400018000007002808D5FFE709980168082055
:101F50004860099800F06CFBFFE7FFE79DF81D0063
:101F60000006002840F18D80FFE79DF8180040072B
:101F7000002840F18180FFE79DF81D00C00750B1A7
:101F8000FFE79DF80800C00728B1FFE7089840F078
:101F900001000890FFE79DF81D00800700280BD581
:101FA000FFE79DF808008007002805D5FFE708989F
:101FB00040F002000890FFE79DF81D004007002850
:101FC0000BD5FFE79DF808004007002805D5FFE77F
:101FD000089840F004000890FFE79DF81D000007F6
:101FE000002848D5FFE79DF8080010F0700F42D098
:101FF000FFE7029800F0700001460191102814D00C
:10200000FFE70198202815D0FFE70198302816D067
:10201000FFE70198402817D0FFE70198502818D013
:10202000FFE70198602819D01DE0089840F00800EB
:10203000089019E0089840F01000089014E0089803
:1020400040F0200008900FE0089840F04000089011
:102050000AE0089840F08000089005E0089840F4F5
:102060008070089000E0FFE709980168886920F017
:1020700070008861FFE7FFE7099801680420486065
:10208000FFE7089848B1FFE7089A0999486A1043A2
:1020900048620998FFF79AFCFFE70AB080BD00008C
:1020A00080B584B00290029820B9FFE701208DF836
:1020B0000F00E0E0029890F8200020B9FFE70298B6
:1020C00000F0DEF8FFE702980168086840F00100C0
:1020D000086001F009F80190FFE702980068406885
:1020E000C007A8B9FFE700F0FFFF0199401A0B28CD
:1020F0000DD3FFE70299486A40F400304862029924
:10210000052081F8200001208DF80F00B3E0E4E7FE
:1021100002980168086820F00200086000F0E4FFFF
:102120000190FFE70298006840688007002815D5F5
:10213000FFE700F0D9FF0199401A0B280DD3FFE704
:102140000299486A40F4003048620299052081F8FB
:10215000200001208DF80F008DE0E3E70298007E5B
:10216000012807D1FFE702980168086840F0800065
:10217000086006E002980168086820F080000860A6
:10218000FFE70298407E012807D1FFE70298016827
:10219000086840F04000086006E00298016808689E
:1021A00020F040000860FFE70298807E012807D1F8
:1021B000FFE702980168086840F02000086006E028
:1021C00002980168086820F020000860FFE7029884
:1021D000C07E012807D1FFE702980168086820F057
:1021E0001000086006E002980168086840F01000DE
:1021F0000860FFE70298007F012807D1FFE70298F7
:102200000168086840F00800086006E0029801686C
:10221000086820F008000860FFE70298407F012866
:1022200007D1FFE702980168086840F004000860E1
:1022300006E002980168086820F004000860FFE7E3
:10224000029B19685A689868D3F80CC040EA0C00E1
:10225000D3F810C040EA0C005B691843013A104300
:10226000C861029900204862029A012182F8201078
:102270008DF80F00FFE79DF80F0004B080BD00004F
:1022800080B594B0139000201290119010900F9090
:102290000E901398006846F20041C4F20001884293
:1022A00053D1FFE740F20420C2F20000016801317F
:1022B00001600068012812D1FFE7FFE700200D90C0
:1022C00043F64000C4F20200016841F00071016071
:1022D000006800F000700D900D98FFE7FFE7FFE742
:1022E00000200C9043F63000C4F20200016841F077
:1022F00008010160006800F008000C900C98FFE7EE
:1023000003200E9002210F9100210791109111904E
:102310000920129040F60040C4F202000EA900F01D
:10232000EFFC079A142005900521069100F0BAFFF2
:10233000059800F0ADFF0699079A1520089000F067
:10234000B1FF089800F0A4FF6EE01398006846F60D
:102350000001C4F20001884265D1FFE7FFE70020D9
:102360000B9043F64000C4F20200016841F0806126
:102370000160006800F080600B900B98FFE740F26E
:102380000420C2F2000001680131016000680128E8
:1023900012D1FFE7FFE700200A9043F64000C4F2A5
:1023A0000200016841F000710160006800F00070F7
:1023B0000A900A98FFE7FFE7FFE70020099043F63D
:1023C0003000C4F20200016841F0020101600068BF
:1023D00000F0020009900998FFE760200E900220AB
:1023E0000F9000200390109003201190092012906C
:1023F00040F20040C4F202000EA900F081FC039AF2
:10240000402001900521029100F04CFF019800F05E
:102410003FFF0299039A4120049000F043FF049883
:1024200000F036FFFFE7FFE714B080BD81B00090F9
:1024300001B0704780B586B005900598006846F2F7
:102440000041C4F2000188421AD1FFE7FFE7059876
:102450000021FFF7BFFA90B1FFE7059840F23C1169
:10246000C2F2000103910A1D049201F12003002130
:10247000FFF7DAFA03990498896A8847E7E723E0C7
:102480000598006846F60001C4F2000188421AD19E
:10249000FFE7FFE705980021FFF79CFA90B1FFE7FF
:1024A000059840F28011C2F2000101910A1D0292CA
:1024B00001F120030021FFF7B7FA01990298896A18
:1024C0008847E7E7FFE7FFE706B080BD81B00090EF
:1024D00001B0704780B586B005900598006846F257
:1024E0000041C4F2000188421AD1FFE7FFE70598D6
:1024F0000121FFF76FFA90B1FFE7059840F23C1118
:10250000C2F2000103910A1D049201F1200301218E
:10251000FFF78AFA03990498896A8847E7E723E076
:102520000598006846F60001C4F2000188421AD1FD
:10253000FFE7FFE705980121FFF74CFA90B1FFE7AD
:10254000059840F28011C2F2000101910A1D029229
:1025500001F120030121FFF767FA01990298896AC6
:102560008847E7E7FFE7FFE706B080BD81B000904E
:1025700001B0704780B584B00290029890F82000B6
:1025800001282FD1FFE70299022081F8200002984C
:102590000168086820F00100086000F0A5FD0190C6
:1025A000FFE7029800684068C007A8B1FFE700F0A5
:1025B0009BFD0199401A0B280DD3FFE70299486A49
:1025C00040F4003048620299052081F82000012083
:1025D0008DF80F000FE0E4E70299002048628DF8C3
:1025E0000F0008E00299486A40F400204862012088
:1025F0008DF80F00FFE79DF80F0004B080BD0000CC
:1026000081B0009001B0704781B0009001B0704778
:1026100081B0009001B0704781B0009001B0704768
:1026200081B0009001B0704781B0009001B0704758
:1026300081B0009001B0704780B584B002900298DC
:10264000806D019000F050FD0090029890F83500E8
:1026500002280DD0FFE7029980204865FFE7029924
:10266000002081F83400FFE701208DF80F0055E0CD
:1026700002980168086820F0160008600298016856
:10268000486920F0800048610298006C20B9FFE79B
:102690000298806C38B1FFE702980168086820F062
:1026A00008000860FFE702980168086820F0010050
:1026B0000860FFE7029800680068C007C8B1FFE73C
:1026C00000F012FD0099401A062811D3FFE7029985
:1026D000202048650299032081F83500FFE7029920
:1026E000002081F83400FFE703208DF80F0015E08B
:1026F000E0E70298C16D3F20884001998860029907
:10270000012081F83500FFE70299002081F83400AC
:10271000FFE7FFE700208DF80F00FFE79DF80F00AF
:1027200004B080BD82B00090009890F83500022877
:1027300007D0FFE700998020486501208DF8070049
:102740000EE00099052081F83500009801680868BE
:1027500020F001000860FFE700208DF80700FFE788
:102760009DF8070002B0704780B586B00590002044
:10277000039040F20000C2F20000006848F2B51178
:10278000C1F64E31A0FB0110800A02900598806DC1
:10279000019001980068049004980599C96DC8409B
:1027A000000700281AD5FFE7059800680068400771
:1027B000002812D5FFE705980168086820F004009A
:1027C00008600598C16D08208840019988600599C6
:1027D000486D40F001004865FFE7FFE70498059960
:1027E000C96DC840C007A0B1FFE7059800684069FF
:1027F000000600280CD5FFE70598C16D0120884030
:10280000019988600599486D40F002004865FFE72E
:10281000FFE704980599C96DC8404007002814D502
:10282000FFE7059800680068800700280CD5FFE7DF
:102830000598C16D04208840019988600599486D0C
:1028400040F004004865FFE7FFE704980599C96D6B
:10285000C840C006002847D5FFE705980068006813
:10286000000700283FD5FFE70598C16D102088407C
:1028700001998860059800680068400300281AD50F
:10288000FFE70598006800680003002809D4FFE707
:102890000598006C20B1FFE70598016C8847FFE7B9
:1028A00008E00598806C20B1FFE70598816C8847A7
:1028B000FFE7FFE716E0059800680068C0050028FC
:1028C00007D4FFE705980168086820F00800086051
:1028D000FFE70598006C20B1FFE70598016C884779
:1028E000FFE7FFE7FFE7FFE704980599C96DC840D8
:1028F0008006002840F18D80FFE705980068006899
:10290000C006002840F18480FFE70598C16D2020B3
:10291000884001998860059890F83500052834D1E1
:10292000FFE705980168086820F016000860059820
:102930000168486920F0800048610598006C20B962
:10294000FFE70598806C38B1FFE7059801680868D3
:1029500020F008000860FFE70598C16D3F2088401F
:10296000019988600599012081F83500FFE70599F4
:10297000002081F83400FFE70598006D20B1FFE7E3
:102980000598016D8847FFE77BE0059800680068BF
:10299000400300281AD5FFE7059800680068000387
:1029A000002809D4FFE70598406C20B1FFE705989F
:1029B000416C8847FFE708E00598C06B20B1FFE74E
:1029C0000598C16B8847FFE7FFE720E0059800689E
:1029D0000068C005002811D4FFE705980168086861
:1029E00020F0100008600599012081F83500FFE70C
:1029F0000599002081F83400FFE7FFE70598C06BD8
:102A000020B1FFE70598C16B8847FFE7FFE7FFE7C5
:102A1000FFE70598406DA0B3FFE70598406DC0073C
:102A200030B3FFE70599052081F835000598016866
:102A3000086820F001000860FFE703980130039068
:102A40000299884201D9FFE707E0FFE7059800688F
:102A50000068C0070028F0D1FFE70599012081F840
:102A60003500FFE70599002081F83400FFE7FFE714
:102A70000598C06C20B1FFE70598C16C8847FFE757
:102A8000FFE706B080BD000080B586B0049000204E
:102A9000039000F029FB0290049820B9FFE7012081
:102AA0008DF81700A3E00498406A08B1FFE7FFE73C
:102AB0000499022081F83500FFE70499002081F88D
:102AC0003400FFE704980168086820F001000860FE
:102AD000FFE7049800680068C00790B1FFE700F0C6
:102AE00003FB0299401A06280AD3FFE70499202025
:102AF00048650499032081F835008DF8170076E0C9
:102B0000E7E70498006800680390039848F23F01E3
:102B1000CFF2100108400390049900914868D1F861
:102B200008C0CB680A6940EA0C00184310434A69A0
:102B300010438A691043CA691043096A0143039824
:102B4000084303900498406A042808D1FFE70499D9
:102B5000C86A096B0143039808430390FFE7039891
:102B60000499096808600498006840690390039814
:102B700020F0070003900498416A039808430390EB
:102B80000498406A04281AD1FFE70498816A0398E0
:102B9000084303900498C06A80B1FFE70498FEF7E9
:102BA000C3F850B1FFE7049940204865049901201B
:102BB00081F835008DF8170019E0FFE7FFE703986B
:102BC0000499096848610498FEF782F80190049816
:102BD000C16D3F20884001998860049900204865B4
:102BE000049A012182F835108DF81700FFE79DF84F
:102BF000170006B080BD000080B588B00690059132
:102C00000492039300208DF80B000698806D0190CC
:102C1000FFE7069890F83400012804D1FFE702206E
:102C20008DF81F0045E00699012081F83400FFE788
:102C3000FFE7069890F8350001282BD1FFE70699A9
:102C4000022081F83500069900204865069805990C
:102C5000049A039BFEF7E0F80698C16D3F20884078
:102C60000199886006980168086840F016000860BD
:102C70000698006C38B1FFE706980168086840F0D4
:102C800008000860FFE706980168086840F0010046
:102C9000086009E0FFE70699002081F83400FFE7AB
:102CA00002208DF80B00FFE79DF80B008DF81F0048
:102CB000FFE79DF81F0008B080BD000080B584B01C
:102CC000039000F011FA02900398019001980130EE
:102CD00048B1FFE740F21C00C2F200000178019801
:102CE00008440190FFE7FFE700F0FEF90299401A5F
:102CF0000199884201D2FFE7F6E704B080BD0000E9
:102D00008EB00D900C9100200A90099008900B90C5
:102D1000FFE70B980F2800F2CC81FFE70B99012009
:102D200088400A900C9800680A9908400990099810
:102D30000A99884240F0B881FFE70C98406800F09B
:102D40000300012807D0FFE70C98406800F003005B
:102D500002282FD1FFE70D98806808900B9841005A
:102D6000032000FA01F10898884308900C98C06885
:102D70000B99490000FA01F1089808430890089857
:102D80000D9988600D98406808900B99012000FA11
:102D900001F10898884308900C984068C0F300102F
:102DA0000B9900FA01F108980843089008980D99CA
:102DB0004860FFE70C98406800F00300032818D033
:102DC000FFE70D98C06808900B984100032000FAB7
:102DD00001F10898884308900C9880680B99490085
:102DE00000FA01F108980843089008980D99C86006
:102DF000FFE70C98406800F00300022826D1FFE7A7
:102E00000D980B996FF0030202EA51010844006A21
:102E100008900B9800F0070081000F2000FA01F1E4
:102E20000898884308900C9800690B9901F00701F5
:102E3000890000FA01F108980843089008980D9954
:102E40000B9B02EA530211440862FFE70D980068E9
:102E500008900B984100032000FA01F1089888437C
:102E600008900C98406800F003000B99490000FAA4
:102E700001F108980843089008980D9908600C988B
:102E800080798007002800F00E81FFE7FFE700202F
:102E9000079043F64400C4F20200016841F4804107
:102EA0000160006800F4804007900798FFE70B98E6
:102EB00020F0030043F60801C4F2010140580890D5
:102EC0000B9800F0030081000F2000FA01F1089830
:102ED000884308900D980021C4F20201884203D172
:102EE000FFE7002006905EE00D9840F20041C4F23A
:102EF0000201884203D1FFE70120059050E00D98C0
:102F000040F60001C4F20201884203D1FFE702202B
:102F1000049042E00D9840F60041C4F2020188425C
:102F200003D1FFE70320039034E00D9841F2000144
:102F3000C4F20201884203D1FFE70420029026E098
:102F40000D9841F20041C4F20201884203D1FFE72B
:102F50000520019018E00D9841F60001C4F202012D
:102F6000884203D1FFE7062000900AE00D9941F660
:102F70000042C4F202020820914208BF07200090DC
:102F8000FFE700980190FFE701980290FFE70298A1
:102F90000390FFE703980490FFE704980590FFE78C
:102FA00005980690FFE70698C0B20B9901F003015F
:102FB000890000FA01F108980843089008980B99D5
:102FC00021F0030143F60802C4F20102885043F6DF
:102FD0000840C4F2010000680890099908988843E5
:102FE00008900C988079C006002805D5FFE709995C
:102FF000089808430890FFE7089843F60841C4F290
:103000000101086043F60C40C4F20100006808901A
:1030100009990898884308900C98807980060028C0
:1030200005D5FFE70999089808430890FFE7089835
:1030300043F60C41C4F20101086043F60440C4F2B7
:1030400001000068089009990898884308900C9836
:1030500080798007002805D5FFE70999089808437B
:103060000890FFE7089843F60441C4F201010860A4
:1030700043F60040C4F201000068089009990898DE
:10308000884308900C988079C00728B1FFE7099918
:10309000089808430890FFE7089843F60041C4F2F7
:1030A00001010860FFE7FFE7FFE70B9801300B9095
:1030B0002FE60EB07047000082B00190ADF802100C
:1030C0008DF801209DF8010028B1FFE7BDF802004E
:1030D0000199886105E0BDF802000004019988614A
:1030E000FFE702B07047000048F6C010C2F20000CF
:1030F0000068704740F21C00C2F20000027848F6F7
:10310000C011C2F200010868104408607047000056
:1031100080B543F60041C4F20201086840F4007033
:103120000860086840F480600860086840F48070B7
:103130000860032000F0D0F80F2000F005F800F040
:103140007BF8002080BD000080B58CB00B90002083
:1031500004900390FFE70020009043F64000C4F283
:103160000200016841F004010160006800F0040001
:1031700000900098FFE706A802A900F0E7F9099877
:103180000490049820B9FFE700F010FA059004E0DD
:1031900000F00CFA40000590FFE705984DF68361BA
:1031A000C4F21B31A0FB01014FF0FF3000EB914056
:1031B000039041F20C20C2F2000040F60001C4F27C
:1031C0000001016040F2E731C160039941600021D4
:1031D00001618160816100F07BFE8DF807009DF840
:1031E000070028BBFFE741F20C20C2F2000000F00C
:1031F000E7FE8DF807009DF80700C0B9FFE71E2025
:1032000000F046F80B980F280CD8FFE70B991E200A
:10321000002200F047F80B9840F22001C2F20001B2
:10322000086003E001208DF80700FFE7FFE7FFE7F4
:103230009DF807000CB080BD80B582B0FFE700208C
:10324000019043F64400C4F20200016841F4804159
:103250000160006800F4804001900198FFE7FFE7FB
:103260000020009043F64000C4F20200016841F0E3
:1032700080510160006800F0805000900098FFE7E6
:103280006FF001000F21002200F00CF802B080BDA9
:1032900080B582B08DF807009DF9070008F012FF95
:1032A00002B080BD80B586B08DF8170004910392FE
:1032B0000020029008F01EFF02909DF91700019077
:1032C00002980499039A02F009FA0146019808F05D
:1032D00019FF06B080BD000080B582B00190019852
:1032E00008F032FF02B080BD80B584B00290019139
:1032F000029820B9FFE701208DF80F0021E1019825
:1033000043F60041C4F20201096801F00701884256
:1033100012D9FFE7019943F60040C4F202000170A0
:10332000006800F007000199884204D0FFE70120FF
:103330008DF80F0005E1FFE702980078800700286C
:103340002AD5FFE7029800784007002809D5FFE753
:1033500043F60801C4F20201086840F4E050086036
:10336000FFE7029800780007002809D5FFE743F639
:103370000801C4F20201086840F460400860FFE7F9
:1033800043F60801C4F20201086820F0F000029A36
:10339000926810430860FFE702980078C007002891
:1033A0006ED0FFE702984068012811D1FFE743F68D
:1033B0000000C4F20200006800F400310020B0EB0D
:1033C000514F04D1FFE701208DF80F00B9E02CE048
:1033D00002984068022805D0FFE702984068032859
:1033E00011D1FFE743F60000C4F20200006800F0CC
:1033F00000710020B0EB516F04D1FFE701208DF880
:103400000F009EE010E043F60000C4F202000068E6
:1034100000F002010020B0EB510F04D1FFE70120C2
:103420008DF80F008DE0FFE7FFE743F60801C4F2D7
:103430000201086820F00300029A526810430860F5
:10344000FFF752FE0090FFE743F60800C4F20200C7
:10345000006800F00C0002994968B0EB810F0ED0B3
:10346000FFE7FFF741FE0099401A41F28931884297
:1034700004D3FFE703208DF80F0062E0E4E7FFE7E5
:10348000019843F60041C4F20201096801F0070106
:10349000884212D2FFE7019943F60040C4F20200CD
:1034A0000170006800F007000199884204D0FFE72E
:1034B00001208DF80F0044E0FFE7029800784007F4
:1034C00000280CD5FFE743F60801C4F202010868A2
:1034D00020F4E050029AD26810430860FFE7029897
:1034E0000078000700280DD5FFE743F60801C4F275
:1034F0000201086820F46040029A126940EAC200A2
:103500000860FFE700F076F843F60801C4F2020114
:103510000968C9B20A0940F2F011C0F60101895CDC
:10352000C84040F20001C2F20001086040F22000F1
:10353000C2F200000068FFF707FE00208DF80F00C0
:10354000FFE79DF80F0004B080BD000082B001903D
:10355000009101990F20086043F60800C4F20200B0
:10356000016801F00301019A5160016801F0F00166
:10357000019A9160016801F4E051019AD1600068FC
:1035800000F46040C0080199086143F60040C4F2AD
:103590000200006800F007000099086002B0704760
:1035A00040F20000C2F200000068704780B5FFF7EB
:1035B000F7FF43F60801C4F202010968C1F3822251
:1035C00040F20021C0F60101895CC84080BD0000C6
:1035D00080B5FFF7E5FF43F60801C4F20201096870
:1035E00089B24A0B40F20021C0F60101895CC84053
:1035F00080BD000080B586B0002005900490039047
:10360000029043F60800C4F20200006800F00C00CB
:103610000146019140B1FFE7019804280AD0FFE775
:10362000019808280CD04FE042F20040C0F2F400AC
:1036300002904FE041F60030C0F2B700029049E03E
:1036400043F60400C4F20200016801F03F01059155
:1036500000684002002813D5FFE743F60400C4F2D7
:1036600002000068C0F3881041F60031C0F2B701D3
:10367000A0FB0101059A0023FCF7F8FD049012E07D
:1036800043F60400C4F202000068C0F3881042F25E
:103690000041C0F2F401A0FB0101059A0023FCF7F0
:1036A000E5FD0490FFE743F60400C4F20200006861
:1036B00000F44031022000EBD130039004980399CC
:1036C000B0FBF1F0029005E042F20040C0F2F400DD
:1036D0000290FFE7029806B080BD000080B586B07A
:1036E0000490049820B9FFE701208DF8170050E3FB
:1036F00004980078C007002800F0A580FFE743F693
:103700000800C4F20200006800F00C00042813D086
:10371000FFE743F60800C4F20200006800F00C0066
:1037200008281ED1FFE743F60400C4F20200006837
:103730004002002815D5FFE743F60000C4F202005E
:10374000006800F400310020B0EB514F08D0FFE7D3
:103750000498406820B9FFE701208DF8170018E3AE
:1037600070E0FFE704984068B0F5803F09D1FFE7BB
:1037700043F60001C4F20201086840F4803008609A
:1037800020E004984068B0F5A02F0DD1FFE743F684
:103790000001C4F20201086840F480200860086853
:1037A00040F4803008600CE043F60001C4F20201EE
:1037B000086820F480300860086820F480200860E1
:1037C000FFE7FFE7FFE704984068E8B1FFE7FFF78E
:1037D0008BFC0390FFE743F60000C4F20200006890
:1037E00000F400310020B0EB514F0CD1FFE7FFF7A0
:1037F0007BFC0399401A652804D3FFE703208DF86A
:103800001700C6E2E7E71CE0FFF76EFC0390FFE756
:1038100043F60000C4F20200006800F4003100200A
:10382000B0EB514F0CD0FFE7FFF75EFC0399401A55
:10383000652804D3FFE703208DF81700A9E2E7E726
:10384000FFE7FFE7FFE7049800788007002840F1D2
:103850009680FFE743F60800C4F20200006810F00B
:103860000C0F13D0FFE743F60800C4F20200006813
:1038700000F00C0008282CD1FFE743F60400C4F246
:10388000020000684002002823D4FFE743F600004E
:10389000C4F20200006800F002010020B0EB510FFA
:1038A00009D0FFE70498C068012804D0FFE7012091
:1038B0008DF817006DE243F60001C4F202010868BA
:1038C00020F0F800049A126940EAC2000860FFE79D
:1038D00054E00498C06870B3FFE70021C4F24721A8
:1038E00001200860FFF700FC0390FFE743F60000AB
:1038F000C4F20200006800F002010020B0EB510F9A
:103900000CD1FFE7FFF7F0FB0399401A032804D31B
:10391000FFE703208DF817003BE2E7E743F60001DD
:10392000C4F20201086820F0F800049A126940EA23
:10393000C200086021E00021C4F247210020086095
:10394000FFF7D2FB0390FFE743F60000C4F202004A
:10395000006800F002010020B0EB510F0CD0FFE72F
:10396000FFF7C2FB0399401A032804D3FFE70320A3
:103970008DF817000DE2E7E7FFE7FFE7FFE70498A0
:103980000078000700284BD5FFE70498406918B37A
:10399000FFE740F68061C4F2472101200860FFF78D
:1039A000A3FB0390FFE743F67400C4F20200006833
:1039B00000F002010020B0EB510F0CD1FFE7FFF740
:1039C00093FB0399401A032804D3FFE703208DF8E3
:1039D0001700DEE1E7E722E040F68061C4F247210C
:1039E00000200860FFF780FB0390FFE743F67400B8
:1039F000C4F20200006800F002010020B0EB510F99
:103A00000CD0FFE7FFF770FB0399401A032804D39B
:103A1000FFE703208DF81700BBE1E7E7FFE7FFE7CB
:103A2000049800784007002840F1CE80FFE700208E
:103A30008DF8070043F64000C4F202000068C000A1
:103A4000002815D4FFE7FFE70020009043F6400070
:103A5000C4F20200016841F080510160006800F08A
:103A6000805000900098FFE701208DF80700FFE7E5
:103A700047F20000C4F200000068C005002822D40C
:103A8000FFE747F20001C4F20001086840F48070CB
:103A90000860FFF729FB0390FFE747F20000C4F23C
:103AA00000000068C00500280CD4FFE7FFF71CFBEE
:103AB0000399401A032804D3FFE703208DF8170069
:103AC00067E1EAE7FFE7FFE704988068012809D18A
:103AD000FFE743F67001C4F20201086840F00100FC
:103AE00008601FE00498806805280DD1FFE743F6C1
:103AF0007001C4F20201086840F004000860086820
:103B000040F0010008600CE043F67001C4F20201CD
:103B1000086820F001000860086820F004000860D0
:103B2000FFE7FFE7FFE704988068F8B1FFE7FFF7DA
:103B3000DBFA0390FFE743F67000C4F2020000686E
:103B400000F002010020B0EB510F0ED1FFE7FFF7AC
:103B5000CBFA0399401A41F28931884204D3FFE736
:103B600003208DF8170014E1E5E71EE0FFF7BCFA2B
:103B70000390FFE743F67000C4F20200006800F013
:103B800002010020B0EB510F0ED0FFE7FFF7ACFAB7
:103B90000399401A41F28931884204D3FFE7032098
:103BA0008DF81700F5E0E5E7FFE79DF8070001282D
:103BB00009D1FFE743F64001C4F20201086820F092
:103BC00080500860FFE7FFE704988069002800F054
:103BD000DC80FFE743F60800C4F20200006800F052
:103BE0000C00082800F08580FFE70498806902280F
:103BF0005CD1FFE76021C4F2472100200860FFF795
:103C000073FA0390FFE743F60000C4F20200006875
:103C100000F000710020B0EB516F0CD0FFE7FFF710
:103C200063FA0399401A032804D3FFE703208DF8B1
:103C30001700AEE0E7E70499C869D1F820C04B6AE5
:103C40008A6A40EA0C0040EA8310D2034FF6FF7301
:103C50009A43A2F580321043C96A40EA016043F6F4
:103C60000401C4F2020108606021C4F2472101206E
:103C70000860FFF739FA0390FFE743F60000C4F24B
:103C80000200006800F000710020B0EB516F0CD111
:103C9000FFE7FFF729FA0399401A032804D3FFE747
:103CA00003208DF8170074E0E7E721E06021C4F2FB
:103CB000472100200860FFF717FA0390FFE743F65B
:103CC0000000C4F20200006800F000710020B0EBB8
:103CD000516F0CD0FFE7FFF707FA0399401A03284A
:103CE00004D3FFE703208DF8170052E0E7E7FFE772
:103CF0004AE004988069012804D1FFE701208DF88B
:103D0000170046E043F60400C4F202000068029087
:103D100004988069012831D0FFE7029800F4800000
:103D20000499C969884229D1FFE7029800F03F0051
:103D30000499096A884221D1FFE7029847F6C071C9
:103D400008400499496AB0EB811F17D1FFE7029838
:103D500000F440300499896AC9034FF6FF72914319
:103D6000A1F58031884209D1FFE7029800F0706028
:103D70000499C96AB0EB016F04D0FFE701208DF808
:103D8000170006E0FFE7FFE7FFE700208DF81700C8
:103D9000FFE79DF8170006B080BD000081B00090DD
:103DA00001B0704781B0009001B0704785B00390BA
:103DB0000291FFE7039890F83C00012804D1FFE747
:103DC00002208DF813007EE00399012081F83C0069
:103DD000FFE7FFE70399022081F83D0003980068A0
:103DE000406801900398006880680090019820F076
:103DF00070000190029801680198084301900198B1
:103E0000039909684860039800680021C4F2010121
:103E100088423CD0FFE703980068B0F1804F36D06D
:103E2000FFE70398006840F20041C4F200018842B5
:103E30002DD0FFE70398006840F60001C4F20001AE
:103E4000884224D0FFE70398006840F60041C4F29E
:103E5000000188421BD0FFE70398006840F2004150
:103E6000C4F20101884212D0FFE70398006844F2CF
:103E70000001C4F20101884209D0FFE703980068FD
:103E800041F60001C4F2000188420ED1FFE700981C
:103E900020F080000090029841680098084300904C
:103EA0000098039909688860FFE70399012081F869
:103EB0003D00FFE70399002081F83C00FFE7002068
:103EC0008DF81300FFE79DF8130005B07047000060
:103ED00080B582B00090009820B9FFE701208DF8EE
:103EE00007003FE0009890F83D0040B9FFE70099D7
:103EF000002081F83C00009800F038F8FFE70099B6
:103F0000022081F83D00009951F8040B01F028FDD2
:103F10000099012081F84600FFE70099012081F80F
:103F20003E00009981F83F00009981F84000009917
:103F300081F84100FFE7FFE70099012081F8420086
:103F4000009981F84300009981F84400009981F8B4
:103F50004500FFE70099012081F83D0000208DF821
:103F60000700FFE79DF8070002B080BD80B584B070
:103F700003900398006840F20041C4F200018842B7
:103F80001BD1FFE7FFE70020029043F64000C4F298
:103F90000200016841F002010160006800F00200C7
:103FA00002900298FFE71D20019005210022FFF7F3
:103FB00079F90198FFF76CF9FFE704B080BD0000C4
:103FC00083B00190019890F83D00012804D0FFE7EC
:103FD00001208DF80B006AE00199022081F83D0074
:103FE00001980168C86840F00100C8600198006845
:103FF0000021C4F2010188423CD0FFE7019800682B
:10400000B0F1804F36D0FFE70198006840F20041E0
:10401000C4F2000188422DD0FFE70198006840F605
:104020000001C4F20001884224D0FFE70198006833
:1040300040F60041C4F2000188421BD0FFE701981E
:10404000006840F20041C4F20101884212D0FFE74B
:104050000198006844F20001C4F20101884209D0CD
:10406000FFE70198006841F60001C4F200018842B0
:1040700012D1FFE701980068806800F00700009007
:104080000098062807D0FFE701980168086840F00B
:1040900001000860FFE706E001980168086840F049
:1040A00001000860FFE700208DF80B00FFE79DF896
:1040B0000B0003B07047000080B586B004900391F8
:1040C00000208DF80B00FFE7049890F83C000128D1
:1040D00004D1FFE702208DF81700ABE0049901201E
:1040E00081F83C00FFE7FFE70499022081F83D00DA
:1040F0000498006880680190019820F07700019092
:10410000019820F47F400190019804990968886023
:10411000039800680090002872D0FFE700981028EC
:104120006ED0FFE7009820286AD0FFE7009830287B
:1041300066D0FFE70098402855D0FFE70098502848
:1041400037D0FFE70098602840D0FFE7009870283C
:104150000BD0FFE70098B0F5805F05D0FFE700982F
:10416000B0F5005F16D052E055E004980068039B5C
:104170005A689968DB6801F0CBFC04980068806895
:104180000190019840F07700019001980499096826
:10419000886040E004980068039B5A689968DB686F
:1041A00001F0B6FC04980168886840F4804088609B
:1041B00031E004980068039A5168D26801F0D8FC95
:1041C00004980068502101F0BDFC24E004980068C8
:1041D000039A5168D26801F0F3FC049800686021EA
:1041E00001F0B0FC17E004980068039A5168D268A7
:1041F00001F0BEFC04980068402101F0A3FC0AE035
:10420000049800680399096801F09CFC03E0012010
:104210008DF80B00FFE70499012081F83D00FFE7CE
:104220000499002081F83C00FFE79DF80B008DF811
:104230001700FFE79DF8170006B080BD81B0009021
:1042400001B0704780B584B0039003980068C068DF
:10425000029003980068006901909DF804008007AF
:10426000002824D5FFE79DF80800800700281DD509
:10427000FFE7039801686FF00200086103990120CD
:104280000877039800688069800720B1FFE70398EA
:10429000FFF7D4FF06E0039800F0E2F8039800F07F
:1042A000E3F8FFE7039900200877FFE7FFE79DF8B1
:1042B00004004007002825D5FFE79DF808004007C7
:1042C00000281ED5FFE7039801686FF0040008611D
:1042D00003990220087703980068806910F4407FF2
:1042E00004D0FFE70398FFF7A9FF06E0039800F06A
:1042F000B7F8039800F0B8F8FFE7039900200877B3
:10430000FFE7FFE79DF804000007002824D5FFE73A
:104310009DF80800000700281DD5FFE703980168F5
:104320006FF008000861039904200877039800687B
:10433000C069800720B1FFE70398FFF77FFF06E021
:10434000039800F08DF8039800F08EF8FFE70399CA
:1043500000200877FFE7FFE79DF80400C00600286B
:1043600025D5FFE79DF80800C00600281ED5FFE709
:10437000039801686FF0100008610399082008771E
:1043800003980068C06910F4407F04D0FFE70398E9
:10439000FFF754FF06E0039800F062F8039800F07E
:1043A00063F8FFE7039900200877FFE7FFE79DF830
:1043B0000400C00778B1FFE79DF80800C00748B1C6
:1043C000FFE7039801686FF001000861039800F0AF
:1043D0004FF8FFE7FFE79DF804000006002810D51E
:1043E000FFE79DF808000006002809D5FFE70398BD
:1043F00001686FF0800008610398FFF7CFFCFFE7CA
:10440000FFE79DF804004006002810D5FFE79DF85F
:1044100008004006002809D5FFE7039801686FF0FF
:1044200040000861039800F035F8FFE7FFE79DF8CA
:1044300004008006002810D5FFE79DF808008006DC
:10444000002809D5FFE7039801686FF02000086194
:104450000398FFF7A7FCFFE7FFE704B080BD00006B
:1044600081B0009001B0704781B0009001B07047FA
:1044700080B582B001900198006840F60001C4F256
:104480000001884203D1FFE7FEF734FEFFE702B0E8
:1044900080BD000081B0009001B0704780B586B04B
:1044A00004900391ADF80A20049890F84200202867
:1044B0004DD1FFE7039820B1FFE7BDF80A0020B90E
:1044C000FFE701208DF8170045E0049901200863FB
:1044D00004990020486304980399BDF80A2001F06C
:1044E0000BFF8DF809009DF8090058BBFFE7049801
:1044F000006B012821D1FFE7FFE70020019004981D
:104500000068006801900498006840680190019874
:10451000FFE7FFE7FFE70498006850E8030F40F06B
:1045200010000090FFE700990498026842E8031029
:104530000028F0D1FFE7FFE703E001208DF8090034
:10454000FFE7FFE79DF809008DF8170003E0022060
:104550008DF81700FFE79DF8170006B080BD00003A
:1045600080B58EB00D90ADF832100D98006841F214
:104570000001C4F20101884215D1FFE740F210208A
:10458000C2F200000A90D0F80822BDF8321000F5FF
:1045900082700B9090470A9A0B990D98B2F80422FA
:1045A000FFF77CFF9AE00D98006844F20041C4F2E6
:1045B0000001884215D1FFE740F21C40C2F2000022
:1045C0000890D0F80822BDF8321000F582700990EA
:1045D0009047089A09990D98B2F80422FFF75EFFF8
:1045E0007BE00D98006844F60001C4F200018842A7
:1045F00015D1FFE740F22860C2F200000690D0F823
:104600000822BDF8321000F5827007909047069A94
:1046100007990D98B2F80422FFF740FF5CE00D986F
:10462000006844F60041C4F20001884215D1FFE75A
:1046300040F63400C2F200000490D0F80822BDF821
:10464000321000F5827005909047049A05990D98F4
:10465000B2F80422FFF722FF3DE00D98006845F212
:104660000001C4F20001884215D1FFE740F6402066
:10467000C2F200000290D0F80822BDF8321000F516
:10468000827003909047029A03990D98B2F8042221
:10469000FFF704FF1EE00D98006841F20041C4F2EC
:1046A0000101884215D1FFE740F64C40C2F20000FC
:1046B0000090D0F80822BDF8321000F58270019009
:1046C0009047009A01990D98B2F80422FFF7E6FE90
:1046D000FFE7FFE7FFE7FFE7FFE7FFE70EB080BD7B
:1046E00080B586B00590FFE70599002081F840006D
:1046F000FFE7059800680068C00770B1FFE7FFE7B3
:1047000000200490059800680068049005980068EF
:10471000406804900498FFE7FFE705980068006888
:1047200000F002010020B0EB510F39D0FFE7FFE7A6
:1047300000200390059800680068039005980068C1
:10474000406803900398FFE70598006844F600016D
:10475000C4F2000188420CD1FFE741F29C20C2F272
:10476000000046F64511C0F60001122201F0AEFB32
:1047700015E00598006841F20041C4F20101884249
:104780000CD1FFE741F2E420C2F2000046F60D3101
:10479000C0F60001802201F099FBFFE7FFE7FFE789
:1047A00005980068006800F004010020B0EB910F4C
:1047B00039D0FFE7FFE70020029005980068006805
:1047C000029005980068406802900298FFE70598FB
:1047D000006844F60001C4F2000188420CD1FFE7F2
:1047E00041F29C20C2F2000046F64511C0F60001DD
:1047F000122201F06BFB15E00598006841F20041C0
:10480000C4F2010188420CD1FFE741F2E420C2F278
:10481000000046F60D31C0F60001802201F056FB83
:10482000FFE7FFE7FFE705980068006800F0080170
:104830000020B0EBD10F0ED0FFE7FFE70020019082
:10484000059800680068019005980068406801902C
:104850000198FFE7FFE706B080BD000080B592B089
:104860001190119800680068109011980068C06855
:104870000F901198006840690E9000200D900C90E8
:10488000109800F00F000D900D9888B9FFE79DF883
:104890004000800600280AD5FFE79DF83C0080060E
:1048A000002804D5FFE7119801F0D2FBEAE1FFE709
:1048B0000D98002800F0C280FFE79DF83800C0077F
:1048C00038B9FFE7BDF83C0010F4907F00F0B680E7
:1048D000FFE79DF84000C00758B1FFE79DF83D0095
:1048E000C00730B1FFE71199486C40F001004864FF
:1048F000FFE79DF84000400700280BD5FFE79DF833
:104900003800C00730B1FFE71199486C40F0020051
:104910004864FFE79DF84000800700280BD5FFE7BB
:104920009DF83800C00730B1FFE71199486C40F09E
:1049300004004864FFE79DF840000007002811D5F7
:10494000FFE79DF83C008006002805D4FFE79DF8AE
:104950003800C00730B1FFE71199486C40F00800FB
:104960004864FFE71198406C002866D0FFE79DF887
:104970004000800600280AD5FFE79DF83C0080062D
:10498000002804D5FFE7119801F062FBFFE71198BA
:1049900000684069C0F380100C901198406C0007CB
:1049A000002804D4FFE70C9800283ED0FFE71198B8
:1049B00001F012FA119800684069400600282FD5CE
:1049C000FFE7FFE7FFE71198006850E8050F20F0C8
:1049D00040000B90FFE70B991198026842E8051020
:1049E0000028F0D1FFE7FFE71198C06B98B1FFE70F
:1049F0001198C16B45F61540C0F600000865119886
:104A0000C06BFDF78FFE28B1FFE71198C06B016DF9
:104A10008847FFE703E01198FFF762FEFFE703E036
:104A20001198FFF75DFEFFE706E01198FFF758FECB
:104A3000119900204864FFE7FFE723E11198006B1C
:104A4000012840F0FF80FFE79DF84000C0060028E5
:104A500040F1F880FFE79DF83C00C006002840F1D7
:104A6000F180FFE7FFE700200A90119800680068D6
:104A70000A901198006840680A900A98FFE7119818
:104A8000006840694006002840F18280FFE71198E5
:104A9000C06B00684068ADF82600BDF8260000280D
:104AA00075D0FFE7BDF826001199898D88426EDA2E
:104AB000FFE7BDF826001199C8851198C06BC06941
:104AC000B0F5807F58D0FFE7FFE7FFE71198006857
:104AD00050E8030F20F480700890FFE708991198C0
:104AE000026842E803100028F0D1FFE7FFE7FFE784
:104AF000FFE71198006850E8050F20F001000790CB
:104B0000FFE707991198026842E805100028F0D1E4
:104B1000FFE7FFE7FFE7FFE71198006850E8050FA0
:104B200020F040000690FFE706991198026842E8DD
:104B300005100028F0D1FFE7FFE71199202081F848
:104B40004200119900200863FFE7FFE71198006811
:104B500050E8030F20F010000590FFE70599119829
:104B6000026842E803100028F0D1FFE7FFE7119840
:104B7000C06BFDF761FDFFE71199022048631198B2
:104B8000818DC28D891A89B2FFF7EAFCFFE779E0CF
:104B90001199888DC98D401AADF812001198C08DF9
:104BA00000284ED0FFE7BDF81200002849D0FFE7EB
:104BB000FFE7FFE71198006850E8030F20F49070BA
:104BC0000390FFE703991198026842E80310002858
:104BD000F0D1FFE7FFE7FFE7FFE71198006850E833
:104BE000050F20F001000290FFE70299119802687A
:104BF00042E805100028F0D1FFE7FFE711992020D7
:104C000081F84200119900200863FFE7FFE711983F
:104C1000006850E8030F20F010000190FFE70199B1
:104C20001198026842E803100028F0D1FFE7FFE77F
:104C30001199022048631198BDF81210FFF790FCFB
:104C4000FFE71FE09DF84000000600280AD5FFE7B7
:104C50009DF83C000006002804D5FFE7119801F0FC
:104C6000D1FB0FE09DF84000400600280AD5FFE781
:104C70009DF83C004006002804D5FFE7119801F09C
:104C8000F5F8FFE712B080BD80B582B000900098C3
:104C900020B9FFE701208DF8070040E00098806907
:104CA00008B1FFE700E0FFE7009890F8410040B945
:104CB000FFE70099002081F84000009800F034F8E8
:104CC000FFE70099242081F8410000980168C86836
:104CD00020F40050C860009801F070FA0098016854
:104CE000086920F49040086100980168486920F044
:104CF0002A00486100980168C86840F40050C86004
:104D0000009900204864009A202182F84110009AFE
:104D100082F84210009948638DF80700FFE79DF87C
:104D2000070002B080BD000080B59EB01D9000203D
:104D30001C901B901A90199018901D98006841F2D1
:104D40000001C4F20101884240F0C980FFE7FFE79B
:104D50000020179043F64400C4F20200016841F0BD
:104D600010010160006800F0100017901798FFE72D
:104D7000FFE70020169043F63000C4F202000168FD
:104D800041F002010160006800F0020016901698E0
:104D9000FFE7FFE70020159043F63000C4F2020061
:104DA000016841F001010160006800F00100159008
:104DB0001598FFE78020189002200B901990002092
:104DC0000F901A9003200E901B9007200C901C90BF
:104DD00040F20040C4F2020018A90D91FDF790FFC7
:104DE000DDF82CC00C980D990E9A0F9B4FF4007EA5
:104DF000CDF860E0CDF864C01A931B921C9000209F
:104E0000C4F20200FDF77CFF0E9A0F9940F6E470A1
:104E1000C2F20000109046F24043C4F20203036065
:104E20004FF0006343608160C1604FF480630361B1
:104E300041618161C1614FF48033036204234362A5
:104E40008262C1620163FDF71FFE18B1FFE7FCF744
:104E500011FCFFE7FFE71D9840F6E471C2F2000184
:104E6000C1631D988863FFE741F24400C2F200006D
:104E70000A9046F2B841C4F2020101604FF00061AD
:104E80004160402181600021C1604FF48062026175
:104E900041618161C1614FF4803202620422426249
:104EA00003228262C1620163FDF7EEFD18B1FFE7E4
:104EB000FCF7E0FBFFE7FFE71D9841F24401C2F277
:104EC000000181631D988863FFE725200990052173
:104ED0000022FEF7E7F90998FEF7DAF925E11D98B7
:104EE000006844F60001C4F20001884270D1FFE777
:104EF000FFE70020149043F64000C4F2020001686E
:104F000041F480210160006800F48020149014981E
:104F1000FFE7FFE70020139043F63000C4F20200E1
:104F2000016841F004010160006800F00400139082
:104F30001398FFE74FF4406018900220199000206A
:104F400007901A90032006901B9007201C9040F6B3
:104F50000000C4F2020018A9FDF7D2FE069A0799D4
:104F600041F2A400C2F20000089046F22803C4F205
:104F7000020303604FF0006343608160C1604FF43F
:104F80008063036141618161C1614FF480330362D9
:104F9000042343628262C1620163FDF775FD18B1AB
:104FA000FFE7FCF767FBFFE7FFE71D9841F2A4016D
:104FB000C2F20001C1631D988863FFE727200590B6
:104FC00005210022FEF76EF90598FEF761F9ABE0C6
:104FD0001D98006841F20041C4F20101884240F08E
:104FE000A280FFE7FFE70020129043F64400C4F2DE
:104FF0000200016841F020010160006800F020001B
:1050000012901298FFE7FFE70020119043F630005E
:10501000C4F20200016841F040010160006800F044
:10502000400011901198FFE74FF48440189002203F
:105030001990002003901A90032002901B900820E2
:105040001C9041F60000C4F2020018A9FDF758FEBA
:10505000029A039941F20410C2F20000049046F251
:105060002843C4F2020303604FF020634360816071
:10507000C1604FF48063036141618161C1614FF49C
:1050800080330362042343628262C1620163FDF7DD
:10509000FBFC18B1FFE7FCF7EDFAFFE7FFE71D980F
:1050A00041F20411C2F20001C1631D988863FFE759
:1050B00041F26410C2F20000019046F2A041C4F235
:1050C000020101604FF020614160402181600021B8
:1050D000C1604FF48062026141618161C1614FF43E
:1050E000803202620422426203228262C162016350
:1050F000FDF7CAFC18B1FFE7FCF7BCFAFFE7FFE7D2
:105100001D9841F26411C2F2000181631D98886309
:10511000FFE74720009005210022FEF7C3F8009822
:10512000FEF7B6F8FFE7FFE7FFE71EB080BD00001F
:1051300081B0009001B0704781B0009001B070471D
:1051400081B0009001B07047FFE7FEE780B582B004
:1051500040F69470C2F20000019046F20041C4F2A1
:10516000000101600321416000218160C1604FF4B2
:10517000802202614FF4E002426101760122427610
:105180008176C17601774177FCF78AFF18B1FFE796
:10519000FCF770FAFFE702B080BD000080B582B076
:1051A00040F6BC70C2F20000019046F60001C4F265
:1051B000000101600321416000218160C1604FF462
:1051C000802202614FF4E0024261017601224276C0
:1051D0008176C17601774177FCF762FF18B1FFE76E
:1051E000FCF748FAFFE702B080BD000080B58AB046
:1051F000FFE70020099043F63000C4F20200016886
:1052000041F480010160006800F480000990099871
:10521000FFE7FFE70020089043F63000C4F20200E9
:10522000016841F400110160006800F4001008906A
:105230000898FFE70C2001900521059100220692B5
:10524000FEF730F80198FEF723F80599069A392001
:105250000290FEF727F80298FEF71AF80599069AC9
:105260003A200390FEF71EF80398FEF711F805990F
:10527000069A45200490FEF715F80498FEF708F802
:105280000599069A46200790FEF70CF80798FDF757
:10529000FFFF0AB080BD0000B0B5A8B000200090AC
:1052A0002790269026A807F00DFB0146009840F6AF
:1052B0000472C2F2000211602590249024A80A21F1
:1052C00007F016FB009940F2B412C2F2000210601F
:1052D00040F2D410C0F6010002684368D0F808C05C
:1052E000D0F80CE00469456922952194CDF880E05E
:1052F000CDF87CC01E931D92806923901DA807F0F5
:10530000C3FB009940F60872C2F20002106040F23E
:105310009C10C0F6010002684368D0F808C0D0F8BD
:105320000CE0046945691B951A94CDF864E0CDF84A
:1053300060C01793169280691C9016A807F0A4FB12
:10534000009940F20822C2F20002106040F2B81048
:10535000C0F6010002684368D0F808C0D0F80CE03D
:105360000469456914951394CDF848E0CDF844C01C
:1053700010930F92806915900FA807F085FB009994
:1053800040F20C22C2F20002106040F26410C0F63B
:10539000010002684368D0F808C0D0F80CE0046946
:1053A00045690D950C94CDF82CE0CDF828C00993F3
:1053B000089280690E9008A807F066FB009940F2F9
:1053C000AC12C2F20002106040F28010C0F6010080
:1053D00002684368D0F808C0D0F80CE00469456959
:1053E00006950594CDF810E0CDF80CC0029301921B
:1053F0008069079001A807F047FB40F2B011C2F2A4
:105400000001086028B0B0BD80B590B000200F90BA
:105410000E900D900C900B90FFE700200A9043F641
:105420003000C4F20200016841F00201016000682E
:1054300000F002000A900A98FFE7FFE700200990B9
:1054400043F63000C4F20200016841F040010160FF
:10545000006800F0400009900998FFE7FFE700208E
:10546000089043F63000C4F20200016841F00101E7
:105470000160006800F0010008900898FFE7FFE76E
:105480000020079043F63000C4F20200016841F0AA
:1054900008010160006800F0080007900798FFE726
:1054A000FFE70020069043F63000C4F202000168D6
:1054B00041F004010160006800F0040006900698C5
:1054C000FFE7FFE70020059043F63000C4F202003A
:1054D000016841F480710160006800F480700590FB
:1054E0000598FFE7FFE70020049043F63000C4F280
:1054F0000200016841F080010160006800F0800056
:1055000004900498FFE742F20000C4F20200039006
:105510008021019100220292FDF7CEFD019A0299AD
:1055200003980B9201220C920D910E910BA9FDF79D
:10553000E7FB10B080BD000080B588B0002101916C
:1055400007910691059104910391029141F2C410D3
:10555000C2F2000040F20042C4F200020260532294
:105560004260816040F2E732C26001618021816166
:10557000FEF7AEFC18B1FFE7FCF77CF8FFE74FF44D
:105580008050049041F2C410C2F2000004A9FEF75A
:1055900093FD18B1FFE7FCF76DF8FFE700200290DC
:1055A000039041F2C410C2F2000002A9FEF7FEFB14
:1055B00018B1FFE7FCF75EF8FFE708B080BD000018
:1055C00080B582B041F25420C2F20000019041F255
:1055D0000001C4F2010101604FF4E131416000219A
:1055E0008160C16001610C2242618161C161FFF78C
:1055F0004BFB18B1FFE7FCF73DF8FFE702B080BDB9
:1056000080B582B041F29C20C2F20000019044F6C5
:105610000001C4F20001016048F2A061C0F2010182
:1056200041604FF4805181600021C1604FF480627D
:105630000261042242618161C161FFF725FB18B15B
:10564000FFE7FCF717F8FFE702B080BD80B582B036
:1056500041F2E420C2F20000019041F20041C4F2A4
:10566000010101604FF4E131416000218160C160BE
:1056700001610C2242618161C161FFF705FB18B134
:10568000FFE7FBF7F7FFFFE702B080BDFFE7FEE7AC
:1056900080B582B00190FFE741F26470C2F2000071
:1056A000009001F0F3FD009801F01EFD40F65860F7
:1056B000C2F200000188013101800088642807D10E
:1056C000FFE740F65861C2F2000100200880FFE7C2
:1056D000052007F0DDF8DFE7FFE7FEE788B0079079
:1056E00006910592079800F0070004900498C0F115
:1056F0000700052803D3FFE70420019004E0049885
:10570000C0F107000190FFE701980390049804306E
:10571000062803D8FFE70020009003E00498033830
:105720000090FFE70098029006980399012202FA80
:1057300001F101390840029B984005999A40013ACD
:105740001140084308B0704700000000000000004E
:10575000EFF30980BFF36F8F154B1A681EF0100F1F
:1057600008BF20ED108A20E9F04F10602DE90900F4
:105770004FF0500080F31188BFF34F8FBFF36F8F4E
:1057800008F032FB4FF0000080F31188BDE80900FB
:1057900019680868B0E8F04F1EF0100F08BFB0ECB1
:1057A000108A80F30988BFF36F8F704700BF00BF76
:1057B0002816002080B588B00790FFE741F264709A
:1057C000C2F20000009001A901F0D6FC009840F25E
:1057D0000401C2F2000140F21002C2F2000201F024
:1057E000B3FD009801F050FC009801F055FA192023
:1057F00007F04EF8E2E700000000000000000000A3
:10580000074B19680868B0E8F04F80F30988BFF3C8
:105810006F8F4FF0000080F31188704700BF00BF0A
:105820002816002080B582B00190FFE7012007F024
:105830002FF8FBE780B582B04FF0500080F311885D
:10584000BFF36F8FBFF34F8F009009F00FFA40B195
:10585000FFE74EF60451CEF200014FF08050086091
:10586000FFE700200190019880F3118802B080BD0D
:1058700080B594B008A83021FAF7E7FD0020079022
:105880000690059004900390FFE70020029043F6F5
:105890004000C4F20200016841F0805101600068DC
:1058A00000F0805002900298FFE7FFE7002001908F
:1058B00047F20000C4F20000016841F48041016039
:1058C000006800F4804001900198FFE701200890F3
:1058D0004FF48030099002200E904FF480010F9118
:1058E00006211091A821119112900720139008A869
:1058F000FDF7F4FE18B1FFE7FBF7BCFEFFE70F2052
:10590000039002200490002005904FF4A0500690D0
:105910004FF48050079003A80521FDF7E5FC18B16E
:10592000FFE7FBF7A7FEFFE714B080BD4EF68851F6
:10593000CEF20001086840F4700008607047000073
:1059400080B541F2C410C2F20000FEF77BFC80BDBE
:1059500080B541F20C20C2F20000FEF773FC80BD5E
:1059600083B0029001910298006800900298002193
:10597000C4F20101884225D0FFE70298B0F1804FC0
:1059800020D0FFE7029840F20041C4F200018842B3
:1059900018D0FFE7029840F60001C4F200018842E7
:1059A00010D0FFE7029840F60041C4F2000188429F
:1059B00008D0FFE7029840F20041C4F2010188429A
:1059C0000AD1FFE7009820F070000090019841682C
:1059D000009808430090FFE702980021C4F20101FB
:1059E000884255D0FFE70298B0F1804F50D0FFE7D2
:1059F000029840F20041C4F20001884248D0FFE71B
:105A0000029840F60001C4F20001884240D0FFE74E
:105A1000029840F60041C4F20001884238D0FFE706
:105A2000029840F20041C4F20101884230D0FFE701
:105A3000029844F20001C4F20101884228D0FFE735
:105A4000029844F20041C4F20101884220D0FFE7ED
:105A5000029844F60001C4F20101884218D0FFE721
:105A6000029841F60001C4F20001884210D0FFE71D
:105A7000029841F60041C4F20001884208D0FFE7D5
:105A8000029842F20001C4F2000188420AD1FFE705
:105A9000009820F4407000900198C1680098084375
:105AA0000090FFE7009820F08000019949690843C1
:105AB0000090009802990860019880680299C86275
:105AC000019800680299886202980021C4F20101DD
:105AD000884208D0FFE7029840F20041C4F2010179
