:020000040800F2
:10000000E0200020B90100085D2A0008A1280008AE
:10001000592A0008FD0300087D3500080000000093
:10002000000000000000000000000000512B00084C
:100030008D04000800000000D12A0008C12B000830
:10004000D3010008D3010008D3010008D301000840
:10005000D3010008D3010008D3010008D301000830
:10006000D3010008D3010008D3010008D301000820
:10007000D3010008D3010008D30100081D040008C3
:10008000D30100082D040008D3010008D3010008A3
:10009000D3010008D3010008D3010008D3010008F0
:1000A000D3010008D3010008D3010008D3010008E0
:1000B000D3010008D30100086D2C0008D30100080B
:1000C000D3010008D3010008D3010008D3010008C0
:1000D000D30100086D350008D3010008D3010008E2
:1000E000D3010008D3010008D301000800F002F892
:1000F00000F052F814A696E8000CB244B344DA4576
:1001000001D100F049F8BAE80F000FA696E83000D8
:10011000A5EB040504EB0607AAEB0704A7F101070A
:100120004FEA15154FEA3414A4F10104AC4201D38F
:1001300000F032F813F0010F18BFFB1A43F001036F
:1001400000F001F8DBE718470C8C00002C8C000055
:10015000103A24BF78C878C1FAD8520724BF30C8F3
:1001600030C144BF04680C60704700007047000055
:100170000023002400250026103A28BF78C1FBD8B0
:10018000520728BF30C148BF0B6070471FB500F051
:10019000A3F81FBD10B510BD00F0FAF81146FFF727
:1001A000F5FF04F0B5F900F018F903B4FFF7F2FF1A
:1001B00003BC00F01DF900000948804709480047CA
:1001C000FEE7FEE7FEE7FEE7FEE7FEE7FEE7FEE707
:1001D000FEE7FEE704480549054A064B7047000064
:1001E000692C0008ED000008E01A0020E020002043
:1001F000E01C0020E01C0020032A40F2308010F0B8
:10020000030C00F0158011F8013BBCF1020F6244B1
:1002100098BF11F801CB00F8013B38BF11F8013B42
:10022000A2F1040298BF00F801CB38BF00F8013BEF
:1002300011F0030300F07180083AC0F0088051F813
:10024000043B083A51F804CBA0E80810F5E7121D6A
:100250005CBF51F8043B40F8043BAFF30080D20789
:1002600024BF11F8013B11F801CB48BF11F8012B55
:1002700024BF00F8013B00F801CB48BF00F8012B78
:1002800070474FF0000200B5134694469646203959
:1002900022BFA0E80C50A0E80C50B1F12001BFF43F
:1002A000F7AF090728BFA0E80C5048BF0CC05DF8A5
:1002B00004EB890028BF40F8042B08BF704748BFF3
:1002C00020F8022B11F0804F18BF00F8012B704767
:1002D000704770477047000008487CB5784400902C
:1002E00007487844009C0546019004E020460168D8
:1002F00008448047241DAC42F8D17CBD948A00009C
:10030000928A000010B500F03BF8006810BD10B5EF
:10031000044600F035F8046010BD10B5203AC0F076
:100320000B80B1E81850A0E81850B1E81850A0E8C8
:100330001850203ABFF4F5AF5FEA027C24BFB1E861
:100340001850A0E8185044BF18C918C0BDE81040A4
:100350005FEA827C24BF51F8043B40F8043B08BFAD
:100360007047D20728BF31F8023B48BF11F8012B74
:1003700028BF20F8023B48BF00F8012B704700005F
:10038000004870471000002000487047100000200F
:100390007546FFF7F9FFAE4605006946534620F063
:1003A0000700854618B020B5FFF714FFBDE82040D0
:1003B0004FF000064FF000074FF000084FF0000B21
:1003C000AC46ACE8C009ACE8C009ACE8C009ACE890
:1003D000C00921F007018D46704710B50446AFF300
:1003E00000802046BDE81040FFF7DFBE70470000E8
:1003F00001491820ABBEFEE726000200FFE7FEE73A
:1004000080B582B00190FFE740F2AC60C2F200001C
:1004100003F020FD212004F0A7F8F5E780B540F6B1
:10042000D810C2F2000000F007F980BD80B540F698
:100430001C20C2F2000000F0FFF880BD84B00390E1
:100440000291019200930398C16B026C01209040CD
:10045000486000980399096848600398406810282C
:1004600009D1FFE701980399096888600298039908
:100470000968C86008E002980399096888600198D3
:1004800003990968C860FFE704B07047704700002F
:1004900081B0EFF3108072B60090FFE7FEE7000036
:1004A00083B0019000208DF80300019890F821009E
:1004B00002280DD0FFE7019904208863FFE7019926
:1004C000002081F82000FFE701208DF80B0021E0DB
:1004D00001980168086820F00E0008600198016822
:1004E000086820F0010008600198C16B026C0120CF
:1004F00090404860FFE70199012081F82100FFE763
:100500000199002081F82000FFE79DF803008DF895
:100510000B00FFE79DF80B0003B0704780B588B073
:10052000079000208DF81B00079890F82100022802
:1005300007D0FFE707990420886301208DF81B008E
:1005400076E007980168086820F00E0008600798B8
:100550000168086820F00100086007980068082119
:10056000C4F20201884203D1FFE70120059047E071
:10057000079800681C21C4F20201884203D1FFE7FA
:100580001020049039E0079800683021C4F202017D
:10059000884204D1FFE74FF4807003902AE0079867
:1005A00000684421C4F20201884204D1FFE74FF4FD
:1005B000805002901BE0079800685821C4F20201A5
:1005C000884204D1FFE74FF4803001900CE0079897
:1005D00001686C22C4F202024FF08070914208BFA1
:1005E0004FF480100190FFE701980290FFE7029816
:1005F0000390FFE703980490FFE704980590FFE756
:1006000005980421C4F2020108600799012081F8CD
:100610002100FFE70799002081F82000FFE70798F5
:10062000406B20B1FFE70798416B8847FFE7FFE782
:100630009DF81B0008B080BD80B58EB00D900D9860
:10064000C06B00680C900D98006800680B900C98C7
:100650000D99096CC8404007002875D5FFE79DF843
:100660002C00400700286FD5FFE70D980068006850
:100670008006002807D4FFE70D980168086820F07D
:1006800004000860FFE70D9800680821C4F2020129
:10069000884203D1FFE704200A9047E00D980068E4
:1006A0001C21C4F20201884203D1FFE740200990D7
:1006B00039E00D9800683021C4F20201884204D16B
:1006C000FFE74FF4806008902AE00D98006844210D
:1006D000C4F20201884204D1FFE74FF48040079042
:1006E0001BE00D9800685821C4F20201884204D131
:1006F000FFE74FF4802006900CE00D9801686C2213
:10070000C4F202024FF08060914208BF4FF48000B3
:100710000690FFE706980790FFE707980890FFE725
:1007200008980990FFE709980A90FFE70A980421C2
:10073000C4F2020108600D98C06A20B1FFE70D986D
:10074000C16A8847FFE7B8E00C980D99096CC8406A
:100750008007002840F18080FFE79DF82C0080078B
:10076000002879D5FFE70D9800680068800600280A
:100770000BD4FFE70D980168086820F00A000860B4
:100780000D99012081F82100FFE70D9800680821EC
:10079000C4F20201884203D1FFE70220059047E03E
:1007A0000D9800681C21C4F20201884203D1FFE7C2
:1007B0002020049039E00D9800683021C4F2020135
:1007C000884204D1FFE74FF4007003902AE00D98AF
:1007D00000684421C4F20201884204D1FFE74FF4CB
:1007E000005002901BE00D9800685821C4F20201ED
:1007F000884204D1FFE74FF4003001900CE00D98DF
:1008000001686C22C4F202024FF00070914208BFEE
:100810004FF400100190FFE701980290FFE7029863
:100820000390FFE703980490FFE704980590FFE723
:1008300005980421C4F202010860FFE70D99002029
:1008400081F82000FFE70D98806A20B1FFE70D983E
:10085000816A8847FFE72FE00C980D99096CC84022
:100860000007002827D5FFE79DF82C000007002887
:1008700021D5FFE70D980168086820F00E00086098
:100880000D98C26B016C012000FA01F151600D99C5
:1008900088630D9981F82100FFE70D99002081F808
:1008A0002000FFE70D98006B20B1FFE70D98016B6A
:1008B0008847FFE7FFE7FFE7FFE70EB080BD0000D6
:1008C00083B0019000200090019820B9FFE701203B
:1008D0008DF80B0047E0019908684FF6F872CBF6E7
:1008E000FD7210444CF6CD42CCF6CC42A0FB020285
:1008F0006FF0030000EA9200086401990020C4F23E
:100900000200C8630199022081F821000198006863
:1009100000680090009843F6F071884300900199B8
:100920004868D1F808C0CB680A6940EA0C0018434F
:1009300010434A6910438A691043C969014300980A
:100940000843009000980199096808600199002007
:100950008863019A012182F82110019981F8200011
:100960008DF80B00FFE79DF80B0003B07047000007
:1009700080B586B0049003910292019300208DF817
:100980000300FFE7049890F82000012804D1FFE756
:1009900002208DF817004CE00499012081F8200016
:1009A000FFE7FFE7049890F82100012832D1FFE724
:1009B0000499022081F8210004990020886304989A
:1009C0000168086820F00100086004980399029A01
:1009D000019BFFF733FD0498C06A38B1FFE7049824
:1009E0000168086840F00E0008600CE00498016897
:1009F000086820F00400086004980168086840F066
:100A00000A000860FFE704980168086840F00100E8
:100A1000086009E0FFE70499002081F82000FFE763
:100A200002208DF80300FFE79DF803008DF8170002
:100A3000FFE79DF8170006B080BD000090B00F9052
:100A40000E9100200D900990FFE70E9800680D9917
:100A5000C840002800F07F81FFE70D990120884001
:100A60000C900E9800680C9908400B900B980C990C
:100A7000884240F06C81FFE70E984068059000289E
:100A800051D0FFE7059801283AD0FFE705980228E2
:100A90003FD0FFE7059803285FD0FFE705981128AE
:100AA00032D0FFE70598122838D0FFE705980021DB
:100AB000C1F21101884236D0FFE705980021C1F24A
:100AC000120188422FD0FFE705980021C1F22101D1
:100AD000884228D0FFE705980021C1F22201884210
:100AE00021D0FFE705980021C1F2310188421AD0D8
:100AF000FFE705980021C1F23201884213D02FE0B0
:100B00000E98C06809902CE00E98C06804300990D7
:100B100027E00E98C0680830099022E00E98C0685F
:100B20000C3009901DE00E98806818B9FFE704208A
:100B3000099011E00E988068012806D1FFE708208F
:100B400009900C980F99086105E0082009900C980D
:100B50000F994861FFE7FFE703E00020099000E0FC
:100B6000FFE70B98FF2803D8FFE70F98049003E0F6
:100B70000F9804300490FFE7049808900B98FF2822
:100B800004D8FFE70D988000039006E00D996FF000
:100B90001F0000EB81000390FFE70398079008987F
:100BA0000068079A0F2191408843099991400843B2
:100BB000089908600E98C079C006002840F1C680E8
:100BC000FFE7FFE741F21800C4F20200016841F0BC
:100BD00001010160006800F0010006900698FFE73F
:100BE0000D9820F003000821C4F2010140580A903A
:100BF0000D9800F0030081000F2000FA01F10A981F
:100C000088430A900F9840F60001C4F2010188421F
:100C100003D1FFE70020029026E00F9840F6004144
:100C2000C4F20101884203D1FFE70120019018E0DE
:100C30000F9841F20001C4F20101884203D1FFE79D
:100C4000022000900AE00F9941F20042C4F2010232
:100C50000420914208BF03200090FFE70098019014
:100C6000FFE701980290FFE702980D9901F0030158
:100C7000890000FA01F10A9808430A900A980D9930
:100C800021F003010822C4F2010288500E988079F5
:100C9000C006002809D5FFE70B9A40F20841C4F2CC
:100CA000010108681043086008E00B9A40F208410F
:100CB000C4F20101086890430860FFE70E9880794C
:100CC0008006002809D5FFE70B9A40F20C41C4F2D8
:100CD000010108681043086008E00B9A40F20C41DB
:100CE000C4F20101086890430860FFE70E9880791C
:100CF0008007002809D5FFE70B9A40F20441C4F2AF
:100D0000010108681043086008E00B9A40F20441B2
:100D1000C4F20101086890430860FFE70E988079EB
:100D2000C00748B1FFE70B9A40F20041C4F201014D
:100D300008681043086008E00B9A40F20041C4F2D2
:100D40000101086890430860FFE7FFE7FFE70D989F
:100D500001300D9079E610B07047000041F2DC7070
:100D6000C2F200000068704740F20400C2F20000C6
:100D7000027841F2DC71C2F2000108681044086098
:100D80007047000080B542F20001C4F20201086819
:100D900040F010000860032000F0DEF80F2000F0A3
:100DA00005F800F07BF8002080BD000080B58CB015
:100DB0000B900020049003908DF80700FFE741F2AC
:100DC0001C00C4F20200016841F0040101600068E7
:100DD00000F0040000900098FFE706A802A900F0C8
:100DE000EFF909980490049820B9FFE700F018FA89
:100DF000059004E000F014FA40000590FFE7059824
:100E00004DF68361C4F21B31A0FB01014FF0FF30AE
:100E100000EB9140039040F66020C2F2000040F6E3
:100E20000001C4F20001016040F2E731C1600399A2
:100E30004160002101618160816100F0B9FD8DF8A0
:100E400007009DF8070028BBFFE740F66020C2F2CC
:100E5000000000F0FFFD8DF807009DF80700C0B905
:100E6000FFE71E2000F054F80B980F280CD8FFE77E
:100E70000B991E20002200F055F80B9840F2080153
:100E8000C2F20001086003E001208DF80700FFE7CF
:100E9000FFE7FFE79DF807000CB080BD80B584B088
:100EA000FFE741F21800C4F20200016841F00101BD
:100EB0000160006800F0010003900398FFE7FFE77E
:100EC00041F21C00C4F20200016841F0805101604F
:100ED000006800F0805002900298FFE76FF0010078
:100EE0000F21002200F01EF8FFE70421C4F20101E7
:100EF00008680190019820F0E0600190019840F0AE
:100F00000070019001980860FFE704B080BD000008
:100F100080B582B08DF807009DF9070003F068FAEC
:100F200002B080BD80B586B08DF8170004910392A1
:100F30000020029003F074FA02909DF917000190CE
:100F400002980499039A01F08BFD0146019803F081
:100F50006FFA06B080BD000080B582B001900198A4
:100F600003F088FA02B080BD80B584B00290019190
:100F7000029820B9FFE701208DF80F001BE10198CE
:100F800042F20001C4F20201096801F0070188423F
:100F900016D9FFE742F20000C4F20200016821F016
:100FA0000701019A11430160006800F007000199F0
:100FB000884204D0FFE701208DF80F00FBE0FFE737
:100FC00002980078800700282AD5FFE70298007869
:100FD0004007002809D5FFE741F20401C4F20201ED
:100FE000086840F4E0600860FFE7029800780007B6
:100FF000002809D5FFE741F20401C4F202010868A4
:1010000040F460500860FFE741F20401C4F20201BD
:10101000086820F0F000029A926810430860FFE729
:1010200002980078C007002860D0FFE70298406867
:1010300001280ED1FFE741F20000C4F2020000686F
:101040008003002804D4FFE701208DF80F00B2E0F0
:1010500021E00298406802280ED1FFE741F200002B
:10106000C4F2020000688001002804D4FFE70120D8
:101070008DF80F009FE00DE041F20000C4F2020085
:1010800000688007002804D4FFE701208DF80F00D6
:1010900091E0FFE7FFE741F20401C4F202010868B2
:1010A00020F00300029A526810430860FFF756FED2
:1010B0000090FFE741F20400C4F20200006800F073
:1010C0000C0002994968B0EB810F0ED0FFE7FFF7E3
:1010D00045FE0099401A41F28931884204D3FFE766
:1010E00003208DF80F0066E0E4E7FFE7019842F285
:1010F0000001C4F20201096801F00701884216D21A
:10110000FFE742F20000C4F20200016821F007018B
:10111000019A11430160006800F0070001998842BC
:1011200004D0FFE701208DF80F0044E0FFE70298AC
:101130000078400700280CD5FFE741F20401C4F213
:101140000201086820F4E060029AD2681043086047
:10115000FFE702980078000700280DD5FFE741F26D
:101160000401C4F20201086820F46050029A126976
:1011700040EAC2000860FFE700F076F841F204019F
:10118000C4F202010968C9B20A0948F60821C0F68A
:101190000001895CC84040F20001C2F20001086011
:1011A00040F20800C2F200000068FFF7FFFD0020D7
:1011B0008DF80F00FFE79DF80F0004B080BD000020
:1011C00082B00190009101990F20086041F2040063
:1011D000C4F20200016801F00301019A5160016844
:1011E00001F0F001019A9160016801F4E061019A57
:1011F000D160006800F46050C0080199086142F2B3
:101200000000C4F20200006800F0070000990860C6
:1012100002B0704740F20000C2F200000068704760
:1012200080B5FFF7F7FF41F20401C4F2020109683B
:10123000C1F3022248F61821C0F60001895CC840BB
:1012400080BD000080B5FFF7E5FF41F20401C4F264
:1012500002010968C1F3C22248F61821C0F6000154
:10126000895CC84080BD000086B0002005900490D5
:1012700003900290019041F20400C4F20200006861
:101280000590059800F00C000146009100283FD021
:10129000FFE70098042804D0FFE70098082806D04C
:1012A00037E041F20020C0F27A00019037E0059863
:1012B000C0F3834148F62020C0F60000405C029055
:1012C0009DF81600C007C0B1FFE741F20400C4F268
:1012D00002000068C0F3404148F63020C0F600002C
:1012E000405C0490029841F20021C0F27A01484328
:1012F0000499B0FBF1F0039007E0029840F600116A
:10130000C0F23D0148430390FFE70398019006E0D7
:10131000FFE741F20020C0F27A000190FFE7019858
:1013200006B0704780B586B00490049820B9FFE7F6
:1013300001208DF817002EE304980078C0070028DC
:1013400000F0AE80FFE741F20400C4F20200006842
:1013500000F00C00042813D0FFE741F20400C4F2AF
:101360000200006800F00C0008281BD1FFE741F2E2
:101370000400C4F202000068C003002812D5FFE791
:1013800041F20000C4F2020000688003002808D582
:10139000FFE70498406820B9FFE701208DF81700A7
:1013A000F9E27CE0FFE704984068B0F5803F09D19E
:1013B000FFE741F20001C4F20201086840F4803006
:1013C000086032E00498406868B9FFE741F2000124
:1013D000C4F20201086820F480300860086820F434
:1013E0008020086020E004984068B0F5A02F0DD15F
:1013F000FFE741F20001C4F20201086840F48020D6
:101400000860086840F4803008600CE041F2000198
:10141000C4F20201086820F480300860086820F4F3
:1014200080200860FFE7FFE7FFE7FFE704984068D8
:10143000D0B1FFE7FFF792FC0390FFE741F2000015
:10144000C4F202000068800300280CD4FFE7FFF715
:1014500085FC0399401A652804D3FFE703208DF823
:10146000170098E2EAE719E0FFF778FC0390FFE73E
:1014700041F20000C4F202000068800300280CD58D
:10148000FFE7FFF76BFC0399401A652804D3FFE7D9
:1014900003208DF817007EE2EAE7FFE7FFE7FFE7AA
:1014A000049800788007002840F18D80FFE741F222
:1014B0000400C4F20200006810F00C0F13D0FFE724
:1014C00041F20400C4F20200006800F00C00082899
:1014D00029D1FFE741F20400C4F202000068C00312
:1014E000002820D4FFE741F20000C4F202000068A7
:1014F0008007002809D5FFE704980069012804D077
:10150000FFE701208DF8170045E241F20001C4F227
:101510000201086820F0F800049A526940EAC2000B
:101520000860FFE74EE00498006958B3FFE7002128
:10153000C4F2422101200860FFF710FC0390FFE78E
:1015400041F20000C4F202000068800700280CD4B9
:10155000FFE7FFF703FC0399401A032804D3FFE7D2
:1015600003208DF8170016E2EAE741F20001C4F209
:101570000201086820F0F800049A526940EAC200AB
:1015800008601EE00021C4F2422100200860FFF73D
:10159000E5FB0390FFE741F20000C4F2020000689F
:1015A000800700280CD5FFE7FFF7D8FB0399401A06
:1015B000032804D3FFE703208DF81700EBE1EAE7E7
:1015C000FFE7FFE7FFE7049800780007002848D509
:1015D000FFE70498806918B3FFE740F28041C4F246
:1015E000422101200860FFF7B9FB0390FFE741F2B9
:1015F0002400C4F202000068800700280CD4FFE732
:10160000FFF7ACFB0399401A032804D3FFE703203C
:101610008DF81700BFE1EAE7012001F07BFA1FE037
:1016200040F28041C4F2422100200860FFF796FB9F
:101630000390FFE741F22400C4F202000068800733
:1016400000280CD5FFE7FFF789FB0399401A032810
:1016500004D3FFE703208DF817009CE1EAE7FFE7DA
:10166000FFE7049800784007002840F1D880FFE7A2
:1016700000208DF8070041F21C00C4F2020000684F
:10168000C000002813D4FFE7FFE741F21C00C4F2BA
:101690000200016841F080510160006800F0805054
:1016A00000900098FFE701208DF80700FFE747F260
:1016B0000000C4F200000068C005002822D4FFE743
:1016C00047F20001C4F20001086840F4807008602D
:1016D000FFF744FB0390FFE747F20000C4F200006D
:1016E0000068C00500280CD4FFE7FFF737FB03991B
:1016F000401A652804D3FFE703208DF817004AE15C
:10170000EAE7FFE7FFE70498C068012809D1FFE78F
:1017100041F22001C4F20201086840F001000860B3
:1017200031E00498C06868B9FFE741F22001C4F2D3
:101730000201086820F001000860086820F0040039
:1017400008601FE00498C06805280DD1FFE741F24A
:101750002001C4F20201086840F004000860086833
:1017600040F0010008600CE041F22001C4F20201E7
:10177000086820F001000860086820F00400086094
:10178000FFE7FFE7FFE7FFE70498C068E0B1FFE786
:10179000FFF7E4FA0390FFE741F22000C4F20200F1
:1017A0000068800700280ED4FFE7FFF7D7FA0399F7
:1017B000401A41F28931884204D3FFE703208DF8B3
:1017C0001700E8E0E8E71BE0FFF7C8FA0390FFE73F
:1017D00041F22000C4F202000068800700280ED504
:1017E000FFE7FFF7BBFA0399401A41F289318842BB
:1017F00004D3FFE703208DF81700CCE0E8E7FFE70C
:101800009DF80700012809D1FFE741F21C01C4F24D
:101810000201086820F080500860FFE7FFE70498A5
:10182000C069002800F0B380FFE741F20400C4F271
:101830000200006800F00C00082800F08280FFE73A
:101840000498C06902285CD1FFE76021C4F24221FC
:1018500000200860FFF782FA0390FFE741F20000E2
:10186000C4F202000068800100280CD5FFE7FFF7F2
:1018700075FA0399401A032804D3FFE703208DF873
:10188000170088E0EAE70498006AB0F5803F0CD1C1
:10189000FFE741F20401C4F20201086820F40030BD
:1018A000049A926810430860FFE741F20401C4F211
:1018B0000201086820F47410049B1A6A5B6A1A43D8
:1018C000104308606021C4F2422101200860FFF744
:1018D00045FA0390FFE741F20000C4F202000068FD
:1018E000800100280CD4FFE7FFF738FA0399401A6B
:1018F000032804D3FFE703208DF817004BE0EAE745
:101900001EE06021C4F2422100200860FFF726FAA1
:101910000390FFE741F20000C4F20200006880017A
:1019200000280CD5FFE7FFF719FA0399401A03289E
:1019300004D3FFE703208DF817002CE0EAE7FFE768
:1019400024E00498C069012804D1FFE701208DF844
:10195000170020E041F20400C4F202000068029087
:10196000029800F480300499096A884208D1FFE7A0
:10197000029800F470100499496A884204D0FFE785
:1019800001208DF8170006E0FFE7FFE7FFE70020E2
:101990008DF81700FFE79DF8170006B080BD000026
:1019A00081B0009001B0704781B0009001B07047E5
:1019B00080B582B00090009820B9FFE701208DF833
:1019C00007003FE0009890F83D0040B9FFE700991C
:1019D000002081F83C00009800F038F8FFE70099FB
:1019E000022081F83D00009951F8040B01F046F9FE
:1019F0000099012081F84600FFE70099012081F855
:101A00003E00009981F83F00009981F8400000995C
:101A100081F84100FFE7FFE70099012081F84200CB
:101A2000009981F84300009981F84400009981F8F9
:101A30004500FFE70099012081F83D0000208DF866
:101A40000700FFE79DF8070002B080BD81B000905D
:101A500001B0704783B00190019890F83D000128D3
:101A600004D0FFE701208DF80B0047E00199022028
:101A700081F83D0001980168C86840F00100C86025
:101A80000198006842F60041C4F20101884218D072
:101A9000FFE701980068B0F1804F12D0FFE701988E
:101AA000006840F20041C4F20001884209D0FFE71B
:101AB0000198006840F60001C4F20001884212D18A
:101AC000FFE701980068806800F007000090009828
:101AD000062807D0FFE701980168086840F0010078
:101AE0000860FFE706E001980168086840F001001F
:101AF0000860FFE700208DF80B00FFE79DF80B0062
:101B000003B0704781B0009001B0704780B582B0DB
:101B1000019001980068006900F002010020B0EB1C
:101B2000510F28D0FFE701980068C06800F002015B
:101B30000020B0EB510F1DD0FFE7019801686FF056
:101B40000200086101990120087701980068806906
:101B5000800720B1FFE70198FFF7D4FF06E0019866
:101B600000F012F9019800F013F9FFE70199002045
:101B70000877FFE7FFE701980068006900F00401BB
:101B80000020B0EB910F29D0FFE701980068C068F2
:101B900000F004010020B0EB910F1ED0FFE7019888
:101BA00001686FF00400086101990220087701982C
:101BB0000068806910F4407F04D0FFE70198FFF7C8
:101BC000A1FF06E0019800F0DFF8019800F0E0F8CE
:101BD000FFE7019900200877FFE7FFE70198006819
:101BE000006900F008010020B0EBD10F28D0FFE71A
:101BF00001980068C06800F008010020B0EBD10F28
:101C00001DD0FFE7019801686FF008000861019995
:101C10000420087701980068C069800720B1FFE7B9
:101C20000198FFF76FFF06E0019800F0ADF801980A
:101C300000F0AEF8FFE7019900200877FFE7FFE723
:101C400001980068006900F010010020B0EB111F3E
:101C500029D0FFE701980068C06800F0100100205B
:101C6000B0EB111F1ED0FFE7019801686FF0100064
:101C7000086101990820087701980068C06910F48C
:101C8000407F04D0FFE70198FFF73CFF06E0019892
:101C900000F07AF8019800F07BF8FFE70199002046
:101CA0000877FFE7FFE7019800680069C00780B187
:101CB000FFE701980068C068C00748B1FFE70198D6
:101CC00001686FF001000861019800F065F8FFE716
:101CD000FFE7019800680069C1B20020B0EBD11F96
:101CE00013D0FFE701980068C068C1B20020B0EBD4
:101CF000D11F09D0FFE7019801686FF080000861EB
:101D00000198FFF74DFEFFE7FFE7019800680069C3
:101D100000F040010020B0EB911F14D0FFE70198C4
:101D20000068C06800F040010020B0EB911F09D0AE
:101D3000FFE7019801686FF040000861019800F02A
:101D40003DF8FFE7FFE701980068006900F0200117
:101D50000020B0EB511F14D0FFE701980068C06865
:101D600000F020010020B0EB511F09D0FFE70198DF
:101D700001686FF0200008610198FFF715FEFFE78A
:101D8000FFE702B080BD000081B0009001B0704755
:101D900081B0009001B0704780B582B00190019889
:101DA000006840F60001C4F20001884203D1FFE759
:101DB000FEF7DAFFFFE702B080BD000081B00090BF
:101DC00001B0704780B586B004900391ADF80A2049
:101DD000049890F8420020284DD1FFE7039820B1E5
:101DE000FFE7BDF80A0020B9FFE701208DF81700D2
:101DF00045E0049901200863049900204863049891
:101E00000399BDF80A2001F077FA8DF809009DF8D2
:101E1000090058BBFFE70498006B012821D1FFE7B8
:101E2000FFE7002001900498006800680190049882
:101E30000068406801900198FFE7FFE7FFE704981A
:101E4000006850E8030F40F010000090FFE7009991
:101E50000498026842E803100028F0D1FFE7FFE78A
:101E600003E001208DF80900FFE7FFE79DF8090076
:101E70008DF8170003E002208DF81700FFE79DF8AA
:101E8000170006B080BD000080B588B00790ADF89F
:101E90001A100798006843F60001C4F20101884255
:101EA0001CD1FFE7BDF81A0040F6D431C2F20001A0
:101EB000088040F28000C2F200000490D0F80822AE
:101EC000BDF81A1000F5827005909047049A0599A4
:101ED0000798B2F80422FFF775FF3DE00798006805
:101EE00044F20041C4F20001884215D1FFE740F2FC
:101EF0008C20C2F200000290D0F80822BDF81A101F
:101F000000F5827003909047029A03990798B2F8FF
:101F10000422FFF757FF1EE00798006844F600010F
:101F2000C4F20001884215D1FFE740F29840C2F2A6
:101F300000000090D0F80822BDF81A1000F5827059
:101F400001909047009A01990798B2F80422FFF790
:101F500039FFFFE7FFE7FFE708B080BD80B586B037
:101F60000590FFE70599002081F84000FFE70598FC
:101F700000680068C00770B1FFE7FFE70020049029
:101F8000059800680068049005980068406804900F
:101F90000498FFE7FFE705980068006800F0020179
:101FA0000020B0EB510F39D0FFE7FFE7002003908E
:101FB00005980068006803900598006840680390E1
:101FC0000398FFE70598006843F60001C4F2010199
:101FD00088420CD1FFE740F6A820C2F2000043F28D
:101FE0006161C0F60001462201F01CF815E0059879
:101FF000006844F20041C4F2000188420CD1FFE7BE
:1020000040F6F020C2F2000043F24161C0F6000148
:10201000802201F007F8FFE7FFE7FFE70598006877
:10202000006800F004010020B0EB910F39D0FFE709
:10203000FFE700200290059800680068029005986C
:102040000068406802900298FFE70598006843F630
:102050000001C4F2010188420CD1FFE740F6A8203C
:10206000C2F2000043F26161C0F60001462200F0B6
:10207000D9FF15E00598006844F20041C4F2000160
:1020800088420CD1FFE740F6F020C2F2000043F294
:102090004161C0F60001802200F0C4FFFFE7FFE7C6
:1020A000FFE705980068006800F008010020B0EB29
:1020B000D10F0ED0FFE7FFE70020019005980068E0
:1020C0000068019005980068406801900198FFE75A
:1020D000FFE706B080BD000080B592B01190119866
:1020E00000680068109011980068C0680F901198FF
:1020F000006840690E9000200D900C90109800F040
:102100000F000D900D9888B9FFE79DF840008006FC
:1021100000280AD5FFE79DF83C008006002804D57A
:10212000FFE7119800F0D4FFE9E1FFE70D980028E0
:1021300000F0C280FFE79DF83800C00738B9FFE71C
:10214000BDF83C0010F4907F00F0B680FFE79DF8EA
:102150004000C00758B1FFE79DF83D00C00730B10F
:10216000FFE71199486C40F001004864FFE79DF8D3
:102170004000400700280BD5FFE79DF83800C00756
:1021800030B1FFE71199486C40F002004864FFE766
:102190009DF84000800700280BD5FFE79DF8380028
:1021A000C00730B1FFE71199486C40F00400486463
:1021B000FFE79DF840000007002811D5FFE79DF8D4
:1021C0003C008006002805D4FFE79DF83800C007D2
:1021D00030B1FFE71199486C40F008004864FFE710
:1021E0001198406C002866D0FFE79DF840008006FB
:1021F00000280AD5FFE79DF83C008006002804D59A
:10220000FFE7119800F064FFFFE71198006840694C
:10221000C0F380100C901198406C0007002804D483
:10222000FFE70C9800283ED0FFE7119800F080FEF1
:10223000119800684069400600282FD5FFE7FFE7A6
:10224000FFE71198006850E8050F20F040000B9060
:10225000FFE70B991198026842E805100028F0D1B9
:10226000FFE7FFE71198C06B98B1FFE71198C16BCA
:1022700042F66D50C0F6000048631198C06BFEF73F
:102280004DF928B1FFE71198C06B416B8847FFE714
:1022900003E01198FFF762FEFFE703E01198FFF7F4
:1022A0005DFEFFE706E01198FFF758FE1199002048
:1022B0004864FFE7FFE722E11198006B012840F036
:1022C000FE80FFE79DF84000C006002840F1F7803F
:1022D000FFE79DF83C00C006002840F1F080FFE7D2
:1022E000FFE700200A901198006800680A90119892
:1022F000006840680A900A98FFE7119800684069F2
:102300004006002840F18180FFE71198C06B00680B
:102310004068ADF82600BDF82600002874D0FFE71D
:10232000BDF826001199898D88426DDAFFE7BDF866
:1023300026001199C8851198C06B8069202858D053
:10234000FFE7FFE7FFE71198006850E8030F20F46C
:1023500080700890FFE708991198026842E803101E
:102360000028F0D1FFE7FFE7FFE7FFE711980068DB
:1023700050E8050F20F001000790FFE7079911983A
:10238000026842E805100028F0D1FFE7FFE7FFE709
:10239000FFE71198006850E8050F20F04000069014
:1023A000FFE706991198026842E805100028F0D16D
:1023B000FFE7FFE71199202081F8420011990020E2
:1023C0000863FFE7FFE71198006850E8030F20F06B
:1023D00010000590FFE705991198026842E8031084
:1023E0000028F0D1FFE7FFE71198C06BFEF758F81F
:1023F000FFE71199022048631198818DC28D891AD7
:1024000089B2FFF741FDFFE779E01199888DC98D09
:10241000401AADF812001198C08D00284ED0FFE789
:10242000BDF81200002849D0FFE7FFE7FFE7119849
:10243000006850E8030F20F490700390FFE70399C1
:102440001198026842E803100028F0D1FFE7FFE787
:10245000FFE7FFE71198006850E8050F20F0010042
:102460000290FFE702991198026842E805100028DF
:10247000F0D1FFE7FFE71199202081F84200119980
:1024800000200863FFE7FFE71198006850E8030F9A
:1024900020F010000190FFE701991198026842E8CE
:1024A00003100028F0D1FFE7FFE7119902204863ED
:1024B0001198BDF81210FFF7E7FCFFE71FE09DF849
:1024C0004000000600280AD5FFE79DF83C00000602
:1024D000002804D5FFE7119800F094FF0FE09DF865
:1024E0004000400600280AD5FFE79DF83C00400662
:1024F000002804D5FFE7119800F064FDFFE712B053
:1025000080BD000080B582B00090009820B9FFE740
:1025100001208DF8070040E00098806908B1FFE7CE
:1025200000E0FFE7009890F8410040B9FFE700990C
:10253000002081F84000009800F034F8FFE700998F
:10254000242081F8410000980168C86820F40050F8
:10255000C860009800F072FE00980168086920F4D5
:102560009040086100980168486920F02A0048619D
:1025700000980168C86840F40050C86000990020C5
:102580004864009A202182F84110009A82F8421093
:10259000009948638DF80700FFE79DF8070002B037
:1025A00080BD000080B592B01190002010900F9077
:1025B0000E900D901198006843F60001C4F20101DD
:1025C000884268D1FFE7FFE741F21800C4F2020039
:1025D000016841F480410160006800F480400C9083
:1025E0000C98FFE7FFE741F21800C4F2020001680F
:1025F00041F004010160006800F004000B900B98AA
:10260000FFE74FF400700D9002200E900320109011
:1026100040F60000C4F2010005900DA90691FEF7F6
:102620000DFA059806994FF480620D9200220792E8
:102630000E920F92FEF702FA079940F6D810C2F2F6
:10264000000008905822C4F20202026041608160DA
:102650008022C2600161416181614FF48051C1619A
:10266000FEF72EF918B1FFE7FDF712FFFFE7FFE7CE
:10267000119840F6D811C2F20001C1631198486266
:10268000FFE72520049005210022FEF74BFC04986B
:10269000FEF73EFC65E01198006844F20041C4F288
:1026A000000188425CD1FFE7FFE741F21C00C4F261
:1026B0000200016841F400310160006800F400305C
:1026C0000A900A98FFE7FFE741F21800C4F20200FF
:1026D000016841F004010160006800F00400099005
:1026E0000998FFE704200D9002200E90032010901F
:1026F00040F60000C4F2010000900DA90191FEF720
:102700009DF90098019908220D92002202920E92E2
:102710000F92FEF793F9029940F61C20C2F20000D6
:1027200003908022C4F202020260102242608160A3
:102730008022C260016141618161C161FEF7C0F820
:1027400018B1FFE7FDF7A4FEFFE7FFE7119840F699
:102750001C21C2F20001816311984862FFE7FFE784
:10276000FFE712B080BD000081B0009001B070475B
:1027700081B0009001B0704780B58AB00890079191
:10278000ADF81A20059300200290089890F84100B7
:10279000202878D1FFE7079820B1FFE7BDF81A009D
:1027A00020B9FFE701208DF8270070E0089900208C
:1027B00048640899212081F84100FEF7CFFA029081
:1027C000BDF81A0008998884BDF81A000899C884D1
:1027D00008988068B0F5805F09D1FFE70898006924
:1027E00028B9FFE7002004900798039004E00798B9
:1027F000049000200390FFE7FFE70898C08C58B3CF
:10280000FFE70898029B05996A4611608021002223
:1028100000F042FE20B1FFE703208DF8270036E0EC
:10282000049858B9FFE7039800886FF35F20089970
:102830000968486003980230039008E00498007823
:10284000089909684860049801300490FFE70899E6
:10285000C88C0138C884D0E70898029B05996A465D
:1028600011604021002200F017FE20B1FFE7032095
:102870008DF827000BE00899202081F84100002006
:102880008DF8270003E002208DF82700FFE79DF870
:1028900027000AB080BD000081B0009001B07047F1
:1028A000FFE7FEE780B586B0FFE741F21400C4F20F
:1028B0000200016841F001010160006800F00100C0
:1028C00005900598FFE70F20019005210291002255
:1028D0000392FEF727FB0198FEF71AFB0299039A71
:1028E00011200490FEF71EFB0498FEF711FB06B0C2
:1028F00080BD0000B0B592B0002001901190109002
:1029000010A8012101F04AFE019940F27002C2F2C2
:102910000002106048F6EC10C0F600000268436840
:10292000D0F808C0D0F80CE0046945690E950D9404
:10293000CDF830E0CDF82CC00A93099280690F9051
:1029400009A801F0EFFE019940F27C02C2F20002F8
:10295000106048F6D010C0F6000002684368D0F856
:1029600008C0D0F80CE00469456907950694CDF8D5
:1029700014E0CDF810C0039302928069089002A879
:1029800001F0D0FE40F27401C2F20001086012B002
:10299000B0BD000082B0FFE741F21800C4F20200AF
:1029A000016841F020010160006800F02000019002
:1029B0000198FFE7FFE741F21800C4F20200016846
:1029C00041F004010160006800F0040000900098EC
:1029D000FFE702B07047000080B582B040F6A82043
:1029E000C2F20000019043F60001C4F2010101604F
:1029F0004FF46121416000218160C16001610422C6
:102A000042618161C161FFF77DFD18B1FFE7FDF70C
:102A10003FFDFFE702B080BD80B582B040F6F020F8
:102A2000C2F20000019044F20041C4F200010160D2
:102A30004FF4E131416000218160C16001610822F1
:102A400042618161C161FFF75DFD18B1FFE7FDF7EC
:102A50001FFDFFE702B080BDFFE7FEE7FFE7FEE7EF
:102A600088B0079006910592079800F0070004903F
:102A70000498C0F10700052803D3FFE70420019064
:102A800004E00498C0F107000190FFE7019803906B
:102A900004980430062803D8FFE70020009003E0E4
:102AA000049803380090FFE7009802900698039975
:102AB000012202FA01F101390840029B9840059970
:102AC0009A40013A1140084308B0704700000000E6
:102AD000EFF30980BFF36F8F0D4B1A6820E9F00FF9
:102AE00010602DE908404FF0500080F3118802F08B
:102AF00095FF4FF0000080F31188BDE80840196889
:102B00000868B0E8F00F80F30988BFF36F8F704753
:102B1000380B002082B00190019840F20001C2F20F
:102B200000010968C90844F6D352C1F26202A1FB50
:102B30000221890948430090FFE700BFFFE70098A2
:102B4000411E00910028F8D1FFE702B07047000055
:102B5000074B19680868B0E8F00F80F30988BFF3E5
:102B60006F8F4FF0000080F311884EF00D0E70470C
:102B7000380B002080B582B00190FFE740F2A460DE
:102B8000C2F2000001880131018000880A280DD1BD
:102B9000FFE740F2A461C2F200010020088040F289
:102BA000AC60C2F2000001F071FBFFE740F2AC60E4
:102BB000C2F2000001F02EF80B2001F0D5FCDDE799
:102BC00080B582B04FF0500080F31188BFF36F8F53
:102BD000BFF34F8F009003F093FD40B1FFE74EF637
:102BE0000451CEF200014FF080500860FFE7002052
:102BF0000190019880F3118802B080BD80B590B03B
:102C000006A800902821FDF73CFB009800230593BF
:102C10000493039302930193012206924FF48031AF
:102C2000079108930A9202220D920E914FF4E0113F
:102C30000F91FEF777FB18B1FFE7FDF729FCFFE7DF
:102C40000F20019002210291002003904FF4806236
:102C50000492059001A8FEF787F918B1FFE7FDF788
:102C600017FCFFE710B080BD7047000080B540F64C
:102C70006020C2F20000FEF749FF80BD83B00290E1
:102C80000191029800680090029842F60041C4F257
:102C90000101884215D0FFE70298B0F1804F10D0B3
:102CA000FFE7029840F20041C4F20001884208D0D8
:102CB000FFE7029840F60001C4F2000188420AD101
:102CC000FFE7009820F0700000900198416800989C
:102CD00008430090FFE7029842F60041C4F2010168
:102CE000884215D0FFE70298B0F1804F10D0FFE77F
:102CF000029840F20041C4F20001884208D0FFE788
:102D0000029840F60001C4F2000188420AD1FFE7B0
:102D1000009820F4407000900198C1680098084322
:102D20000090FFE7009820F080000199496908436E
:102D30000090009802990860019880680299C86222
:102D40000198006802998862029842F60041C4F234
:102D50000101884205D1FFE70198006902990863E3
:102D6000FFE702990120486103B0704780B582B047
:102D700001900198406A009000990020C885009950
:102D8000C8840098FFF7EAF802B080BD80B584B02F
:102D90000390002002900398406A01900198006817
:102DA0004069C0B2C0090290019890F84100212802
:102DB0000AD1FFE7029838B1FFE701990020C884E3
:102DC000019800F013F9FFE7019800684069C0F32B
:102DD00080100290019890F8420022280AD1FFE763
:102DE000029838B1FFE701990020C885019800F0EA
:102DF0009FF8FFE70199486C40F010004864019883
:102E0000FFF7ACF804B080BD80B586B0059005989A
:102E1000406A0490059800680068800600285AD42B
:102E2000FFE704990020C885FFE7FFE704980068E2
:102E300050E8030F20F480700390FFE70399049893
:102E4000026842E803100028F0D1FFE7FFE7FFE740
:102E5000FFE70498006850E8050F20F00100029099
:102E6000FFE702990498026842E805100028F0D1B3
:102E7000FFE7FFE7FFE7FFE70498006850E8050F6A
:102E800020F040000190FFE701990498026842E8B1
:102E900005100028F0D1FFE7FFE70499202081F812
:102EA00042000498006B012814D1FFE7FFE7FFE719
:102EB0000498006850E8030F20F010000090FFE72E
:102EC00000990498026842E803100028F0D1FFE757
:102ED000FFE7FFE7FFE70499002048630498006BD1
:102EE000012805D1FFE70498818DFEF7CDFF03E0AF
:102EF0000498FFF739FCFFE706B080BD80B582B0CB
:102F000001900198406A0090009901204863009860
:102F1000006B012806D1FFE70098818D4908FEF774
:102F2000B3FF03E00098FFF723FCFFE702B080BD8A
:102F300084B00390FFE7FFE70398006850E8030FB1
:102F400020F490700290FFE702990398026842E82B
:102F500003100028F0D1FFE7FFE7FFE7FFE7039842
:102F6000006850E8050F20F001000190FFE701998B
:102F70000398026842E805100028F0D1FFE7FFE758
:102F80000398006B012814D1FFE7FFE7FFE70398E0
:102F9000006850E8030F20F010000090FFE7009950
:102FA0000398026842E803100028F0D1FFE7FFE72A
:102FB000FFE70399202081F842000399002008636D
:102FC00004B0704780B582B0019001980168C8686C
:102FD00020F04000C8600199202081F8410001984C
:102FE000FFF75AFC002002B080BD000082B00190C3
:102FF000FFE7FFE70198006850E8030F20F0C000EA
:103000000090FFE700990198026842E80310002849
:10301000F0D1FFE7FFE70199202081F8410002B0DD
:103020007047000080B584B003900291ADF806208F
:103030000398006843F60001C4F20101884215D1EB
:10304000FFE7039840F28001C2F200010860029895
:10305000C1F80802BDF80600A1F804020398B1F80F
:10306000042201F58271FEF7ADFE2FE0039800689F
:1030700044F20041C4F20001884207D1FFE70398FF
:1030800040F28C21C2F2000108601EE00398006843
:1030900044F60001C4F20001884215D1FFE703980D
:1030A00040F29841C2F2000108600298C1F808029B
:1030B000BDF80600A1F804020398B1F8042201F556
:1030C0008271FEF77FFEFFE7FFE7FFE704B080BDF8
:1030D00080B586B00490049890F84200222840F011
:1030E000A480FFE704988068B0F5805F15D1FFE702
:1030F0000498006988B9FFE7002003900498806A6B
:1031000002900498006840686FF35F20029908807D
:103110000499886A0230886225E00498806A0390E6
:103120000020029004988068B0F5805F08D0FFE727
:103130000498806850B9FFE70498006930B9FFE748
:103140000498006840680399087007E004980068D4
:10315000406800F07F0003990870FFE70499886ACF
:1031600001308862FFE70499C88D0138C8850004E2
:10317000002856D1FFE704980168C86820F02000B5
:10318000C86004980168C86820F48070C86004981A
:103190000168486920F0010048610499202081F805
:1031A00042000499002048630498006B012830D144
:1031B000FFE7049900200863FFE7FFE70498006831
:1031C00050E8030F20F010000190FFE701990498E8
:1031D000026842E803100028F0D1FFE7FFE70498F7
:1031E00000680068C00600280ED5FFE7FFE7002052
:1031F0000090049800680068009004980068406897
:1032000000900098FFE7FFE70498818DFEF73CFEF1
:1032100003E00498FFF7A8FAFFE700208DF81700F5
:1032200007E000208DF8170003E002208DF817005A
:10323000FFE79DF8170006B080BD000080B584B0A0
:10324000039003980068006920F44050039A1168C5
:10325000D26810430861039988680A694969104374
:103260000843029003980068C06841F20C618843EB
:103270000299084303990968C86003980068406987
:1032800020F44070039A11689269104348610398D2
:10329000006843F60001C4F20101884204D1FFE74F
:1032A000FDF7D0FF019003E0FDF7BAFF0190FFE7C3
:1032B000019819214843039A116852689200B0FBA3
:1032C000F2FC48F21F52C5F2EB12ACFB023043098C
:1032D000642003FB10CC322000EB0C10A0FB020298
:1032E000F02000EA521000EB0310C2F34312104426
:1032F000886004B080BD000080B588B0079006915A
:10330000ADF81620069807998862BDF8160007994F
:103310008885079900204864079A222182F8421084
:103320000799CA6B42F60961C0F6000191620799DC
:10333000CA6B42F6FD61C0F60001D1620799CA6B03
:1033400042F68D51C0F6000111630799C96B4863BD
:1033500006A8049007980168C06B0431049A1268AB
:10336000BDF81630FDF704FBFFE700200390079837
:10337000006800680390079800684068039003980D
:10338000FFE707980069A0B1FFE7FFE7FFE70798AD
:10339000006850E8030F40F480700290FFE7029944
:1033A0000798026842E803100028F0D1FFE7FFE722
:1033B000FFE7FFE7FFE70798006850E8050F40F0D8
:1033C00001000190FFE701990798026842E80510A3
:1033D0000028F0D1FFE7FFE7FFE7FFE70798006865
:1033E00050E8050F40F040000090FFE70099079873
:1033F000026842E805100028F0D1FFE7FFE700204F
:1034000008B080BD83B00190019890F84100212858
:103410003AD1FFE701988068B0F5805F13D1FFE7EC
:103420000198006978B9FFE70198006A0090009858
:1034300000886FF35F200199096848600199086A64
:103440000230086208E0019A106A411C116200789B
:10345000019909684860FFE70199C88C0138C88460
:10346000000468B9FFE701980168C86820F080008F
:10347000C86001980168C86840F04000C860FFE774
:1034800000208DF80B0003E002208DF80B00FFE711
:103490009DF80B0003B0704780B588B0DDF828C0F8
:1034A000069005918DF813200393FFE706980068B6
:1034B000006805990840401AB0FA80F040099DF86C
:1034C0001310884249D1FFE70A980130002843D001
:1034D000FFE70A9840B1FFE7FDF740FC0399401A67
:1034E0000A99884237D9FFE7FFE7FFE706980068A7
:1034F00050E8030F20F4D0700290FFE7029906987D
:10350000026842E803100028F0D1FFE7FFE7FFE779
:10351000FFE70698006850E8050F20F001000190D1
:10352000FFE701990698026842E805100028F0D1EB
:10353000FFE7FFE70699202081F84100069981F80E
:103540004200FFE70699002081F84000FFE70320D2
:103550008DF81F0005E0FFE7A8E700208DF81F00A9
:10356000FFE79DF81F0008B080BD000080B540F661
:10357000A820C2F20000FEF7AFFD80BDFFE7FEE726
:1035800080B500F095FF80BD83B00290019100925C
:103590000298B0F900000199B1F90010884205DAEB
:1035A000FFE701980088029908800EE00298B0F9C0
:1035B00000000099B1F90010884205DDFFE700988E
:1035C000008802990880FFE7FFE703B0704700001A
:1035D00080B58CB0DDF838C00B900A910992089341
:1035E0000B9800680A990968009105F089F800991C
:1035F00001900998006805F083F80146019804F0ED
:1036000021FE0790079804900E98006808990968B1
:103610000291401A04F028FF01460298039104F039
:1036200023FF039902460498059204F09DFF059933
:1036300004F046FD04F0FCFE069006980CB080BD38
:1036400080B582B00190ADF80210019940F2AC60F3
:10365000C2F200004C3000F0E7F902B080BD00007B
:1036600080B582B00190ADF80210019940F2AC60D3
:10367000C2F2000000F0E2FD02B080BD82B0019114
:1036800000900098019921F0004102B070470000BD
:1036900085B00390029101924FF6FF70ADF80000E3
:1036A000029828B9FFE7BDF80000ADF8120021E04C
:1036B000FFE70198411E0191B8B1FFE70298411C54
:1036C000029100788DF80300BDF800109DF803000A
:1036D0004840C2B248F63230C0F6000030F812005E
:1036E00080EA1120ADF80000E3E7BDF80000ADF876
:1036F0001200FFE7BDF8120005B0704780B584B036
:10370000039003990191D1F8640100F58270029051
:103710000298007891F86811884201D0FFE73CE1F7
:103720000298B0F805000146009101286ED0FFE72D
:10373000009802287CD0FFE70098032800F08280E0
:10374000FFE7009840F20111884200F08480FFE713
:103750000098B0F5817F00F08980FFE70098B0F510
:10376000827F00F08E80FFE7009840F205118842CA
:1037700000F08E80FFE7009840F20121884200F0BF
:103780009180FFE7009840F20221884200F0938088
:10379000FFE7009840F20321884200F09580FFE7A0
:1037A0000098B0F5017F00F09880FFE7009840F2A4
:1037B0000521884200F09B80FFE7009840F2062137
:1037C000884200F09E80FFE7009840F2072188427F
:1037D00000F0A180FFE70098B0F5027F00F0A9801B
:1037E000FFE7009840F20921884200F0AD80FFE732
:1037F000009840F20A21884200F0B180FFE700986B
:1038000040F20531884200F0B980C6E00199029B80
:10381000D87C81F88101D3F80700D3F80B20D3F8C6
:103820000F30C1F87D31C1F87921C1F87501B4E0DC
:1038300001990298427A81F88421B0F80700A1F832
:103840008201AAE0019800F2851002990731222234
:10385000FCF7D2FCA1E001990298B0F80B20A1F886
:10386000AB21D0F80700C1F8A70196E00199029AB0
:10387000D2F80700D2F80A20C1F8B021C1F8AD0192
:103880008BE001990298D0F80700C1F8B40184E0F8
:1038900001990298427A81F8BA21B0F80700A1F89C
:1038A000B8017AE0019800F2BB10029907311E229C
:1038B000FCF7A2FC71E0019800F2D91002990731DF
:1038C0001222FCF799FC68E0019800F2EB100299D3
:1038D00007311222FCF790FC5FE001990298427ACE
:1038E00081F8FF21B0F80700A1F8FD0155E001992A
:1038F0000298427A81F80222B0F80700A1F800028B
:103900004BE001990298427A81F80522B0F807004D
:10391000A1F8030241E00199029AD07B81F80E02DE
:10392000D2F80700D2F80B20C1F80A22C1F806022B
:1039300033E00199029AD2F80700D2F80B20C1F8BF
:103940001322C1F80F0228E001990298B0F80B2069
:10395000A1F81B22D0F80700C1F817021DE0019959
:10396000029AB2F80F00A1F82502D2F80700D2F8A7
:103970000B20C1F82122C1F81D020EE00199029B23
:10398000D3F80700D3F80B20D3F80F30C1F82F324B
:10399000C1F82B22C1F82702FFE704B080BD000068
:1039A00080B586B00590ADF812100392ADF80A30DC
:1039B0000598009000F243210191A52280F843224E
:1039C000BDF80A20A0F8442240F2A66CC2F2000C16
:1039D0009CF80020531C8CF8003080F84622052209
:1039E00000F030F80098BDF81210A0F8481200F26C
:1039F0004A200399BDF80A20FCF7FEFB01990098C4
:103A0000BDF80A20093200F041F800980199D0F879
:103A100064010068BDF80A20093292B21423FEF74F
:103A2000ABFE06B080BD000080B582B00190009171
:103A30000198D0F86C110131C0F86C11FFF75EFEEF
:103A400002B080BD80B586B00590049103920598C0
:103A5000019000208DF80B00049820B1FFE7039837
:103A6000022801D8FFE70FE001980499039A013A70
:103A700000F074F88DF80B009DF80B00049A039980
:103A8000114401F8010CFFE706B080BD80B586B097
:103A9000059004910392059801900020ADF80A006A
:103AA000049820B1FFE70398022801D8FFE716E049
:103AB00001980499039A023AFFF7EAFDADF80A006B
:103AC000BDF80A00049A0399114401F8020C9DF80C
:103AD0000B00049A0399114401F8010CFFE706B0AA
:103AE00080BD000083B0029001910298009001987F
:103AF000006843F60001C4F20101884208D1FFE7E3
:103B0000009940F28000C2F20000C1F8640123E095
:103B10000198006844F20041C4F20001884208D1D3
:103B2000FFE7009940F28C20C2F20000C1F8640166
:103B300011E00198006844F60001C4F200018842D7
:103B400008D1FFE7009940F29840C2F20000C1F8A6
:103B50006401FFE7FFE7FFE703B0704785B003901C
:103B600002910192FF208DF80200029828B9FFE728
:103B70009DF802008DF813001DE0FFE70198411E3B
:103B8000019198B1FFE70298411C029100788DF8ED
:103B900003009DF802009DF80310414048F63220D2
:103BA000C0F60000405C8DF80200E7E79DF80200D7
:103BB0008DF81300FFE79DF8130005B07047000073
:103BC00080B582B001900198009000F0DDFB009874
:103BD0000B3000F0B9FB0098223000F0BDFB0098DC
:103BE000483000F0C1FB00989B3000F0C5FB009806
:103BF00000F5867000F0D0FB0098A52180F86811D0
:103C00000021C0F86C11C0F8701180F8741102B076
:103C100080BD000080B5A2B0219021980E9040F2A6
:103C20007000C2F2000000684FF0FF3100F026FD86
:103C30000E9900200F9020901F901E901D900DF166
:103C40006B0000F0E9FA0F988DF86A00FFE79DF825
:103C50006A0003281ADCFFE79DF86A100D910DF148
:103C60006B0030F9110004F0FFFB44F20001C4F2D4
:103C70001C6104F0E7FA0D9A1DA941F82200FFE744
:103C80009DF86A0001308DF86A00E0E71D98069003
:103C90001E9805901F98209904F066FC059902462D
:103CA0000698079204F060FC079904F009FA0146AF
:103CB000084604F005FA19901E9808901F990846C6
:103CC00004F052FC08990990084604F04DFC09994B
:103CD00004F0F6F90146084604F0F2F901464FF007
:103CE0007E5004F00DFD04F0BFF917911690169A5E
:103CF000179B199800F060FB44F24462C1F66722FA
:103D00004AF2DC53C4F24C0303F0D0FE03F0D2FBC2
:103D10000E99C1F814031D980B901E991F980A90D4
:103D2000209804F021FC0A9902460B980C9204F0AA
:103D30001BFC0C9904F0E4FC0146084604F0C0F9B1
:103D400004F092F91591149014981599FFF796FCC8
:103D500000220023C3F6F07304F037FAD8B9FFE766
:103D6000159942F2FB10C3F6F97060F31E0141F29F
:103D70004470C5F2414044F24462C1F667224AF2FF
:103D8000DC53C4F24C0303F091FE03F093FB0E9955
:103D9000C1F8180313E01498159903F04FF844F292
:103DA0004462C1F667224AF2DC53C4F24C0303F0CA
:103DB0007DFE03F07FFB0E99C1F81803FFE71D9805
:103DC00001901E981F99209A009204F0CDFB009953
:103DD00002460198029204F0C7FB029904F070F9C0
:103DE0000146084604F06CF904F03EF91391129074
:103DF0001F9803902099084604F0B6FB039904909D
:103E0000084604F0B1FB049904F05AF9014608464B
:103E100004F056F901464FF07E5004F071FC04F0B6
:103E200023F911911090109A119B1298139903F095
:103E30004DFA44F24462C1F667224AF2DC53C4F2FE
:103E40004C0303F033FE03F035FB0E99C1F81C035D
:103E500022B080BD80B5ACB02B902B990B910DF1A9
:103E60009D0000F0FDF99DF8AB0096282BDBFFE7E5
:103E70009DF89E00012826D1FFE70B9800F0EAF993
:103E8000012820D1FFE70DF19D00089006304FF684
:103E9000D8710991ADF89A1028210A91ADF89810BF
:103EA0000DF19A0126AAFFF76FFB0898099A0A9963
:103EB0000830ADF89620ADF894100DF1960125AAC2
:103EC000FFF762FB05E00020ADF8A300ADF8A50008
:103ED000FFE70B98D0F81C0340F2A861C2F2000182
:103EE000096804F00DFC00F05FFA4CF6CD41C3F612
:103EF000CC5104F07FF9C0B9FFE740F2A760C2F2ED
:103F0000000001780131017000783C280CDBFFE7EC
:103F10000B99D1F81C03C1F8100340F2A761C2F25B
:103F2000000100200870FFE7FFE70B98D0F81C1392
:103F300040F2A862C2F200021160D0F81013D0F86B
:103F40001C0304F0DDFB40F27801C2F200010860BE
:103F5000BDF9A30004F088FA0021C4F220210291E7
:103F600004F070F924900020CBF680700490239028
:103F70004FF07E50059022900020069021904FF641
:103F8000FF7007902090694620A8086024A823A904
:103F900022AA21ABFFF71CFB0B99A1F82003BDF966
:103FA000A50004F061FA029904F04CF9049B059A0B
:103FB000069984460798CDF87CC01E931D921C91EB
:103FC0001B9069461BA808601FA81EA91DAA1CAB50
:103FD000FFF7FEFA01460B98A0F82213D0F8180359
:103FE0000021C4F2B421039104F02CF9049B059A3A
:103FF000069984460798CDF868C0199318921791CE
:104000001690694616A808601AA819A918AA17AB2D
:10401000FFF7DEFA039902460B98A0F82623D0F8A2
:10402000140304F00FF9049B059A06998446079837
:10403000CDF854C01493139212911190694611A8AF
:10404000086015A814A913AA12ABFFF7C1FA01461C
:104050000B98A0F82413D0F81C030021C4F23431CB
:1040600004F0F0F8049B059A069984460798CDF869
:1040700040C00F930E920D910C9069460CA80860F9
:1040800010A80FA90EAA0DABFFF7A2FA0B9BA3F87D
:10409000280303F14C0003F28D12B3F82813A3F8A0
:1040A0009511D3F82013D3F824C3C3F891C1C3F8F2
:1040B0008D1140F202311E23FFF772FC2CB080BD3F
:1040C00080B582B001900198009040F6A821C2F21C
:1040D000000100F0F1F800984C3040F6F021C2F2F7
:1040E0000001FFF7FFFC02B080BD000080B582B088
:1040F00001900198009000F019F900984C30FFF7FA
:104100005FFD009802B080BD80B586B0059005992E
:104110000391486800F58270049004980078097A49
:10412000884207D1FFE7039904984078497A88428A
:1041300001D0FFE76DE004988078014602910128E4
:104140000CD0FFE70298042814D0FFE70298342827
:1041500023D0FFE70298512827D05AE00399049B07
:10416000187C81F8200058689A68DB68CB618A6106
:1041700048614EE00399049A107B81F82900506849
:104180009268C1F82520C1F8210040F27000C2F207
:104190000000006800F03AFA3BE0039904980289B5
:1041A000CA854068C1F82A0033E0049800790146C6
:1041B000019140B1FFE7019801280CD0FFE7019879
:1041C000022811D024E003990498027A81F834205F
:1041D000406808631CE003990498027A81F839204A
:1041E0004068C1F8350013E00399DDF810C0DCF831
:1041F0000400DCF80820DCF80C30DCF80FC0C1F853
:1042000045C0C1F84230C1F83E20C1F83A00FFE78E
:10421000FFE706B080BD000082B000910146009823
:104220000190019A92F829000872D2F82100D2F880
:1042300025204A60086002B07047000080B582B057
:10424000019000910198C1680131C160FFF75CFFE6
:1042500002B080BD81B000900098007801B0704736
:1042600082B00091014600980190DDF804C0DCF8AE
:104270003A00DCF83E20DCF84230DCF845C0C1F8FA
:104280000BC08B604A60086002B0704782B001903A
:1042900001990091C8680969884204D1FFE7009933
:1042A0000020087003E0009901200870FFE70099E2
:1042B000C868086102B0704783B00290019102980B
:1042C00000900198006843F60001C4F201018842A1
:1042D00007D1FFE7009940F28000C2F20000486079
:1042E00021E00198006844F20041C4F200018842D4
:1042F00007D1FFE7009940F28C20C2F2000048602D
:1043000010E00198006844F60001C4F20001884200
:1043100007D1FFE7009940F29840C2F200004860E0
:10432000FFE7FFE7FFE703B07047000081B00090B0
:104330000098002101704170AA220272FF2242728D
:10434000C160016101B0704781B00090009840F2F7
:104350000111018001B0704781B0009000984FF4C6
:104360008171018001B0704781B00090009840F2E7
:104370000311018001B0704781B0009000984FF4A4
:104380008271018001B0704781B0009000984FF4B5
:104390008071018001B0704781B0009000984FF4A7
:1043A0008871018001B0704781B00090009820F0C2
:1043B000004001B07047000080B584B003900193C5
:1043C0000092039803F050FE009A019B00F002F85F
:1043D00004B080BD80B584B0039102900193009237
:1043E000009A019B0298039902F070FF04B080BD0F
:1043F00081B08DF803009DF9030000280ED4FFE77B
:104400009DF9031001F01F02012090404A094EF26D
:104410000011CEF2000141F82200FFE701B0704721
:104420004EF60C50CEF200000068C0F30220704738
:1044300082B08DF8070000919DF9070000280AD48A
:10444000FFE7009800019DF907104EF20042CEF2FE
:10445000000288540BE0009800019DF8071001F05D
:104460000F014EF61452CEF200028854FFE702B05C
:104470007047000083B00290029800F0070000909F
:104480004EF60C51CEF200010868019001984FF6EB
:10449000FF02104001900198009A40EA0220002299
:1044A000C0F2FA52104301900198086003B07047BF
:1044B00080B540F2AC60C2F20000FFF717FE80BD8D
:1044C00081B0EFF3058000900098002818BF01200C
:1044D00001B0704780B540F6A820C2F2000043F258
:1044E0006161C0F600014622FEF79CFD40F6F02017
:1044F000C2F2000043F24161C0F600018022FEF7E3
:1045000091FD40F2AC60C2F20000FFF7D9FD80BD22
:1045100080B582B000200190FCF734FCFEF76EFB02
:10452000FEF738FAFEF7BEF9FEF756FAFEF774FA10
:10453000FFF7D0FFFEF7DEF900F02AF8FFE7FEE70D
:1045400082B0ADF8060000200090BDF90600842876
:1045500007D0FFE7BDF9060000990844033000903A
:10456000FFE7009802B0704780B584B003900398CD
:104570000290029818B1FFE70298019002E0012032
:104580000190FFE7019801F0B7F8002004B080BD6A
:1045900080B501F0D3F9002080BD000080B586B061
:1045A000049003910498406898B1FFE703980128AC
:1045B0000CD1FFE704984368694603200860012096
:1045C0000022114601F03EFB05901CE00020059002
:1045D00019E00398012813D1FFE7012000210322ED
:1045E00001F0F0FA0290029838B1FFE70298002338
:1045F00019461A4601F00AFCFFE70298059002E00E
:1046000000200590FFE7059806B080BD80B584B016
:104610000290002001900090FFF752FFD0B1FFE719
:104620000298694601F008FD012803D0FFE7FF204A
:1046300003901FE0009860B1FFE74EF60451CEF200
:1046400000014FF080500860BFF34F8FBFF36F8FB2
:10465000FFE70CE00298002319461A4601F0D6FB4A
:10466000012803D0FFE7FF200190FFE7FFE7019853
:104670000390FFE7039804B080BD000080B586B0CA
:104680000490039100200190049818B9FFE780205E
:10469000059043E0002002900398013020B9FFE725
:1046A0004FF0FF3002900CE0039848B1FFE7039809
:1046B0000290029818B9FFE701200290FFE7FFE798
:1046C000FFE7FFF7FDFED8B1FFE70498002101AA3C
:1046D00001F044FD012803D0FFE7FF2005901DE015
:1046E000019860B1FFE74EF60451CEF200014FF0A1
:1046F00080500860BFF34F8FBFF36F8FFFE70AE072
:104700000498029901F0AEFD012803D0FFE7FF20D5
:10471000059003E0FFE700200590FFE7059806B04D
:1047200080BD0000B0B590B00E900D910E9840691C
:1047300038B3FFE70E98806918B3FFE70E98016859
:10474000089141680B91016909910D990A91B0F99D
:104750000800FFF7F5FE0899099A0A9B84460B9812
:10476000DDF838E0DEF81440DEF81850EE46CEF8FA
:104770000850CEF80440CEF800C001F03FFF0C9086
:1047800020E00E980168049141680791018A059123
:104790000D990691B0F90800FFF7D2FE0499059A29
:1047A000069B84460798EE460CACCEF80440CEF843
:1047B00000C001F0D3FE012803D0FFE700200F90D6
:1047C00003E0FFE70C980F90FFE70F9810B0B0BD23
:1047D00080B584B00390029141F6D420C2F200006B
:1047E0000068009040F63830C2F2000000680430E3
:1047F00000F0BEFD88B9FFE740F63830C2F2000095
:104800000068C16A012000FA01F241F2F471C2F2BB
:10481000000108689043086000E0FFE7039801305A
:1048200080B9FFE7029868B1FFE740F63830C2F27E
:1048300000000068011D41F6AC20C2F2000000F04B
:1048400027FE3DE00098039908440190019840F646
:104850003831C2F200010968486001980099884225
:104860000ED2FFE740F64430C2F20000006840F686
:104870003831C2F200010968043100F0D3FD1EE0B6
:1048800040F63C30C2F20000006840F63831C2F217
:1048900000010968043100F0C5FD019841F684214A
:1048A000C2F200010968884207D2FFE7019841F689
:1048B0008421C2F20001086000E0FFE7FFE7FFE7A4
:1048C00004B080BD80B582B0019000F0FFFD41F2E0
:1048D000E071C2F2000108680130086040F638302B
:1048E000C2F20000006898B9FFE7019840F638313D
:1048F000C2F20001086041F2E070C2F200000068FC
:10490000012803D1FFE700F07BFA00E0FFE71CE09D
:1049100041F6A020C2F200000068A0B9FFE740F60F
:104920003830C2F200000068C06A0199C96A884242
:1049300007D8FFE7019840F63831C2F2000108605D
:1049400000E0FFE700E0FFE7FFE741F2F071C2F2AD
:1049500000010868013008600198C16A012000FA6E
:1049600001F241F2F471C2F20001086810430860DC
:104970000199C86A00EB800240F64830C2F200009C
:1049800000EB8200043100F083FD00F0CBFD41F626
:10499000A020C2F200000068C8B1FFE740F638303E
:1049A000C2F200000068C06A0199C96A88420CD24C
:1049B000FFE74EF60451CEF200014FF08050086040
:1049C000BFF34F8FBFF36F8F00E0FFE700E0FFE71B
:1049D00002B080BD80B582B0FFE741F2E470C2F260
:1049E0000000006808B3FFE700F070FD41F6C0204A
:1049F000C2F20000C068C06801900198043000F065
:104A0000B7FC41F2E071C2F20001086801380860A9
:104A100041F2E471C2F2000108680138086000F058
:104A200081FD019800F08CF8D7E702B080BD00004E
:104A300080B582B0019000910198006CB8B1FFE799
:104A40000199C8680A6C1044C86001984168C06840
:104A5000884204D3FFE701990868C86000E0FFE7D7
:104A60000098019AD168126CFBF7C6FBFFE702B011
:104A700080BD000080B586B00590049103920020AF
:104A800002900598806B01900598006C78B9FFE75B
:104A90000598006848B9FFE70598406801F00CFFE9
:104AA000029005990020486000E0FFE741E003988C
:104AB000B8B9FFE7059A04999068126CFBF79CFB64
:104AC000059988680A6C1044886005984168806878
:104AD000884204D3FFE705990868886000E0FFE793
:104AE00026E0059A0499D068126CFBF785FB0599BE
:104AF000C8680A6C801AC86005980168C068884256
:104B000006D2FFE7059948680A6C801AC86000E081
:104B1000FFE70398022809D1FFE7019820B1FFE7DA
:104B200001980138019000E0FFE700E0FFE7FFE7B0
:104B3000FFE70198013005998863029806B080BDAF
:104B400080B582B00090009890F8510040B9FFE71E
:104B50000098006B00F00CFD009800F009FD1CE0CF
:104B6000009890F85100012804D1FFE7009800F068
:104B7000FFFC11E0009890F8510002280BD0FFE7ED
:104B80004FF0500080F31188BFF36F8FBFF34F8F4A
:104B90000190FFE7FEE7FFE7FFE702B080BD0000FE
:104BA00082B001900198406A38B1FFE70198006B2C
:104BB0000068C0F10700009002E000200090FFE7CD
:104BC000009802B07047000084B04FF4406000903D
:104BD00040F6D630C2F2000001909DF80400400774
:104BE00088B1FFE7019807300190019820F0070095
:104BF0000190019A40F6D631C2F200010098891A5C
:104C000008440090FFE701980290029941F6A42021
:104C1000C2F200000160002141600298009A104435
:104C20000190019808380190019820F00700019048
:104C3000019A40F64030C2F2000002600268516002
:104C400002681160029903910199039A891A5160CF
:104C50000068039908600398406841F68021C2F219
:104C6000000108600398406841F62401C2F2000187
:104C7000086041F2F871C2F200014FF00040086094
:104C800004B0704780B582B00190FFE7FFF7A2FE45
:104C900040F64830C2F20000006802280CD3FFE75B
:104CA0004EF60451CEF200014FF080500860BFF381
:104CB0004F8FBFF36F8F00E0FFE7E7E780B584B069
:104CC000DDF818C00390029101928DF8033002982C
:104CD00018B9FFE70698006003E00198069908609C
:104CE000FFE703980699C863029806990864069836
:104CF000012101F02DF804B080BD000080B588B01E
:104D0000DDF834C0DDF830C0DDF82CC0DDF828C097
:104D100006900591049203930C98006B049900EBA4
:104D2000810004380290029820F0070002909DF85C
:104D30000800400758B1FFE74FF0500080F311889A
:104D4000BFF36F8FBFF34F8F0790FFE7FEE70020A1
:104D50000190FFE701980F2813D8FFE70598019A03
:104D6000805C0C99114481F8340005980199405CED
:104D700008B9FFE705E0FFE7FFE701980130019080
:104D8000E8E70C99002081F843000A98072803D32C
:104D9000FFE706200A9000E0FFE70A980C99C86236
:104DA0000A980C9948640C990020009088640C982B
:104DB000043000F02FFB0C98183000F02BFB00980B
:104DC0000C9909610A99C1F107010C9A91610C993A
:104DD00049620C99C8640C9981F8500002980699B0
:104DE000039A00F09DFA0C9908600B9820B1FFE738
:104DF0000C980B99086000E0FFE708B080BD000048
:104E000080B584B000200390FFE70398062810D8EF
:104E1000FFE7039800EB800140F64830C2F2000043
:104E200000EB810000F0DEFAFFE703980130039009
:104E3000EBE741F2FC70C2F20000019000F0D2FA00
:104E400041F61000C2F20000029000F0CBFA41F6E9
:104E50008C20C2F2000000F0C5FA41F6C020C2F278
:104E6000000000F0BFFA41F6AC20C2F2000000F0F2
:104E7000B9FA0199029840F63C32C2F20002116080
:104E800040F64431C2F20001086004B080BD000069
:104E900083B0029041F6A420C2F200000190FFE727
:104EA000019800680299884205D2FFE7FFE7019860
:104EB00000680190F4E70198009000980199496812
:104EC00008440299884209D1FFE702984268019993
:104ED0004868104448600198029000E0FFE702989B
:104EE000009000980299496808440199096888422D
:104EF00020D1FFE70198006840F64031C2F200017E
:104F0000096888420DD0FFE701980068426802995D
:104F10004868104448600198006800680299086079
:104F200007E040F64030C2F20000006802990860D5
:104F3000FFE704E00198006802990860FFE7019824
:104F40000299884204D0FFE702980199086000E0C6
:104F5000FFE703B07047000080B582B0019000F019
:104F6000B5FA0198806B18B9FFE70120009002E0C4
:104F700000200090FFE700F0D5FA009802B080BD55
:104F800080B582B0019000F0A1FA0198806B019980
:104F9000C96B884203D1FFE70120009002E00020A6
:104FA0000090FFE700F0BEFA009802B080BD00005C
:104FB00006480068006880F3088862B661B6BFF3EF
:104FC0004F8FBFF36F8F00DF00BF000008ED00E0E0
:104FD00081B040F63C30C2F200000068006840B981
:104FE000FFE741F68421C2F200014FF0FF30086074
:104FF0000FE040F63C30C2F200000068C068C068B4
:1050000000900098406841F68421C2F200010860D7
:10501000FFE701B07047000083B00020009040F22D
:105020000C00C2F200000068013058B1FFE74FF0F9
:10503000500080F31188BFF36F8FBFF34F8F029042
:10504000FFE7FEE74FF0500080F31188BFF36F8F4A
:10505000BFF34F8F0190FFE7009808B9FFE7FBE728
:1050600003B0704780B582B0019000F02FFA01982C
:1050700090F845008DF80300FFE79DF90300012833
:1050800016DBFFE70198406A58B1FFE7019824302A
:1050900001F03AFD18B1FFE700F078FB00E0FFE710
:1050A00000E005E09DF8030001388DF80300E4E717
:1050B0000199FF2081F8450000F034FA00F006FA6B
:1050C000019890F844008DF80200FFE79DF9020076
:1050D000012816DBFFE70198006980B1FFE701981E
:1050E000103001F011FD18B1FFE700F04FFB00E0B8
:1050F000FFE79DF8020001388DF8020000E000E0B3
:10510000E4E70199FF2081F8440000F00BFA02B0B7
:1051100080BD000080B58AB006900020029000F0AB
:1051200075FC40F64030C2F20000006818B9FFE795
:10513000FFF74AFD00E0FFE7069841F2F871C2F27E
:1051400000010968084240F0BE80FFE7069800B3FE
:10515000FFE70698083006909DF818004007B0B1A8
:10516000FFE7069820F00700083006909DF8180029
:10517000400758B1FFE74FF0500080F31188BFF3AC
:105180006F8FBFF34F8F0990FFE7FEE700E0FFE767
:1051900000E0FFE70698002800F09380FFE70698FC
:1051A00041F62401C2F200010968884200F28980B8
:1051B000FFE741F6A420C2F20000049000680590C9
:1051C000FFE705984168069A00209142019007D2B6
:1051D000FFE705980068002818BF01200190FFE74D
:1051E0000198C00730B1FFE7059804900598006862
:1051F0000590E6E7059840F64031C2F200010968E3
:1052000088425CD0FFE70498006808300290059857
:10521000006804990860059840680699401A1128AA
:1052200021D3FFE705980699084403909DF80C00E8
:10523000400758B1FFE74FF0500080F31188BFF3EB
:105240006F8FBFF34F8F0890FFE7FEE70598406828
:105250000699401A03994860069805994860039892
:10526000FFF716FE00E0FFE70598426841F62400CC
:10527000C2F200000168891A0160006841F68021CD
:10528000C2F20001096888420BD2FFE741F6240010
:10529000C2F20000006841F68021C2F200010860FD
:1052A00000E0FFE741F2F870C2F2000002680599E1
:1052B00048681043486005990020086000E0FFE757
:1052C00000E0FFE700E0FFE701F080FC9DF8080048
:1052D000400758B1FFE74FF0500080F31188BFF34B
:1052E0006F8FBFF34F8F0790FFE7FEE702980AB07A
:1052F00080BD000040F63830C2F20000006848B1BE
:10530000FFE740F63830C2F200000168886C0130D7
:105310008864FFE740F63830C2F20000006870474A
:1053200083B0029001910092029804380290029991
:105330004FF080700860029804380290019820F0C5
:10534000010002990860029804380290029945F21F
:105350001900C0F600000860029814380290009806
:1053600002990860029820380290029803B07047B2
:1053700082B00190019800690090019841688068AE
:105380008860019948688968486000984068019978
:10539000884205D1FFE7019880680099486000E0E5
:1053A000FFE701990020086100990868013808604A
:1053B0000098006802B0704783B00290019100929B
:1053C000029941F62C20C2F200000860019941F6D2
:1053D0002800C2F20000086000998020086003B035
:1053E0007047000081B00090009901F1080048600A
:1053F00000994FF0FF308860009901F10800C86003
:10540000009901F10800086100990020086001B0CE
:105410007047000081B0009000990020086101B041
:105420007047000084B003900291029800680090D9
:105430000098013020B9FFE703980069019010E05F
:10544000039808300190FFE70198406800680099D0
:10545000884205D8FFE7FFE7019840680190F3E72D
:10546000FFE70198406802994860029841688860A7
:1054700001980299886002980199486003980299FE
:105480000861039908680130086004B070470000A3
:1054900083B00290019102984068009000980199B1
:1054A000486000988068019988600198009989682F
:1054B00048600198009988600298019908610299F2
:1054C00008680130086003B07047000082B04FF0F8
:1054D000500080F31188BFF36F8FBFF34F8F01909F
:1054E00040F20C00C2F20000016801310160006866
:1054F000012814D1FFE74EF60450CEF200000068F8
:10550000000658B1FFE74FF0500080F31188BFF359
:105510006F8FBFF34F8F0090FFE7FEE7FFE702B00A
:105520007047000082B040F20C00C2F20000006838
:1055300058B9FFE74FF0500080F31188BFF36F8F29
:10554000BFF34F8F0090FFE7FEE740F20C00C2F27E
:105550000000016801390160006830B9FFE70020F0
:105560000190019880F31188FFE702B070470000B6
:1055700080B586B00390039802900398002855D018
:10558000FFE702980838029002980190019840685D
:1055900041F2F871C2F20001096808420BD1FFE73D
:1055A0004FF0500080F31188BFF36F8FBFF34F8F20
:1055B0000590FFE7FEE70198006858B1FFE74FF05C
:1055C000500080F31188BFF36F8FBFF34F8F0490AB
:1055D000FFE7FEE70198406841F2F871C2F200016E
:1055E0000968084220D0FFE701980068D0B9FFE7BA
:1055F00041F2F870C2F200000268019948689043D5
:10560000486000F003FA0198426841F62401C2F2B2
:1056100000010868104408600198FFF739FC01F0A8
:10562000D5FA00E0FFE700E0FFE7FFE706B080BD46
:105630004EF21001CEF20001002008604EF2180276
:10564000CEF20002106040F20000C2F200000068DA
:1056500044F6D352C1F26202A0FB02024FF0FF30C7
:1056600000EB92104EF21402CEF2000210600720FE
:105670000860704784B0EFF305800190019810280E
:105680001ED3FFE701984EF2F031CEF20001405CEC
:105690008DF803009DF8030041F2D671C2F20001BB
:1056A000097888420BDAFFE74FF0500080F3118849
:1056B000BFF36F8FBFF34F8F0390FFE7FEE7FFE766
:1056C0004EF60C50CEF20000006800F4E06041F2AB
:1056D000D871C2F20001096888420BD9FFE74FF088
:1056E000500080F31188BFF36F8FBFF34F8F02908C
:1056F000FFE7FEE704B0704780B584B00290002059
:1057000001900298E0B1FFE741F2EC70C2F20000B4
:10571000006858B1FFE74FF0500080F31188BFF3E5
:105720006F8FBFF34F8F0390FFE7FEE700F06EF936
:1057300002980021FFF74CF801F048FA019000E0D0
:10574000FFE7019860B9FFE74EF60451CEF2000181
:105750004FF080500860BFF34F8FBFF36F8F00E0B2
:10576000FFE704B080BD000081B0009041F68820C2
:10577000C2F2000000680099086041F6D420C2F22D
:10578000000000680099486001B0704741F6D821D8
:10579000C2F20001012008607047000080B584B0AB
:1057A00002900191029858B9FFE74FF0500080F342
:1057B0001188BFF36F8FBFF34F8F0390FFE7FEE7B2
:1057C000029840F63831C2F2000109681831FFF73B
:1057D00029FE01980121FEF7FBFF04B080BD000007
:1057E00080B588B005900491059803900120009041
:1057F0000598002800F09E80FFE70398806C58B958
:10580000FFE74FF0500080F31188BFF36F8FBFF3B5
:105810004F8F0790FFE7FEE70398406C049988429A
:1058200003D2FFE70498019003E00398406C0190D5
:10583000FFE70398C06A0199884279D0FFE703988F
:10584000806C012872D1FFE7039840F63831C2F22C
:105850000001096888420BD1FFE74FF0500080F348
:105860001188BFF36F8FBFF34F8F0690FFE7FEE7FE
:105870000398C06A029001980399C8620398C07E99
:105880000006002806D4FFE70198C0F1070003993D
:10589000886100E0FFE703984069029901EB81020B
:1058A00040F64831C2F2000101EB820188423BD14F
:1058B000FFE703980430FFF75BFDD0B9FFE70398DB
:1058C000C06A00EB800140F64830C2F2000050F898
:1058D000210068B9FFE70398C16A012000FA01F2CC
:1058E00041F2F471C2F20001086890430860FFE7DA
:1058F00000E0FFE70398C16A012000FA01F241F2DB
:10590000F471C2F200010868104308600399C86A84
:1059100000EB800240F64830C2F2000000EB82004B
:105920000431FFF7B5FD00E0FFE700E0FFE700E02E
:10593000FFE700E0FFE708B080BD000080B58AB057
:10594000002003900690059006A805A904AAFFF779
:1059500033FD039B049A0599DDF818C06846C0F82A
:1059600008C04160036044F68540C0F6000048F678
:105970004F51C0F6000100F041FE014641F62820DB
:10598000C2F200000160006818B1FFE70120079033
:1059900002E000200790FFE70798012823D1FFE7E6
:1059A0004FF0500080F31188BFF36F8FBFF34F8F1C
:1059B000099041F68421C2F200014FF0FF300860E7
:1059C00041F6A021C2F200010120086041F6D42175
:1059D000C2F200010020086000F080F808B1FFE783
:1059E00000E0FFE70FE00798013058B9FFE74FF0FC
:1059F000500080F31188BFF36F8FBFF34F8F089073
:105A0000FFE7FEE7FFE70AB080BD000041F2EC715E
:105A1000C2F20001086801300860704785B041F2A9
:105A2000EC70C2F20000006838B1FFE741F6D821FF
:105A3000C2F20001012008604DE041F6D821C2F217
:105A400000010020086041F2F470C2F2000000681A
:105A500004900498B0FA80F08DF80F009DF80F00C4
:105A6000C0F11F000190019800EB800140F6483022
:105A7000C2F2000050F8210058B9FFE74FF0500083
:105A800080F31188BFF36F8FBFF34F8F0290FFE752
:105A9000FEE7019800EB800140F64830C2F20000BA
:105AA00000EB8100009000994868406848600099C8
:105AB00048680831884205D1FFE700994868406886
:105AC0004860FFE700984068C06840F63831C2F28D
:105AD00000010860FFE705B07047000080B586B0A0
